{
  "address": "0x7Adbae16917BD6545d9936A91D5baE2773b15fD6",
  "abi": [
    {
      "anonymous": false,
      "inputs": [
        {
          "components": [
            {
              "internalType": "bytes",
              "name": "val",
              "type": "bytes"
            },
            {
              "internalType": "bool",
              "name": "neg",
              "type": "bool"
            }
          ],
          "indexed": false,
          "internalType": "struct BigInt",
          "name": "msg",
          "type": "tuple"
        }
      ],
      "name": "Logger",
      "type": "event"
    },
    {
      "inputs": [
        {
          "internalType": "bytes",
          "name": "nquota",
          "type": "bytes"
        },
        {
          "internalType": "uint64",
          "name": "expiration",
          "type": "uint64"
        },
        {
          "internalType": "bytes",
          "name": "miner",
          "type": "bytes"
        }
      ],
      "name": "ConfirmChangeBen",
      "outputs": [
        {
          "internalType": "uint256",
          "name": "",
          "type": "uint256"
        }
      ],
      "stateMutability": "nonpayable",
      "type": "function"
    },
    {
      "inputs": [],
      "name": "getRollNumber",
      "outputs": [
        {
          "internalType": "uint256",
          "name": "",
          "type": "uint256"
        }
      ],
      "stateMutability": "nonpayable",
      "type": "function"
    }
  ],
  "transactionHash": "0x4265e9f3ac3318fbb30ef19b25bf5431a4c4b25dc04fccd82083b2c03e65e6f0",
  "args": [],
  "numDeployments": 1,
  "solcInputHash": "1a4c90bf0466fd1fc63a8ef63424e8c7",
  "bytecode": "0x608060405234801561001057600080fd5b5061198c806100206000396000f3fe608060405234801561001057600080fd5b50600436106100365760003560e01c806309ce2d4f1461003b5780632fdd972414610059575b600080fd5b610043610089565b6040516100509190610f41565b60405180910390f35b610073600480360381019061006e91906110f6565b610093565b6040516100809190610f41565b60405180910390f35b60006103e8905090565b600061009d610ea1565b60006100a88661011c565b905080826020018190525084826040019067ffffffffffffffff16908167ffffffffffffffff168152505060003360601b9050806040516020016100ec91906111bc565b604051602081830303815290604052836000018190525061010d85846102c3565b6103e893505050509392505050565b610124610ed2565b6000825103610162576040518060400160405280604051806040016040528060018152602001600081525081526020016000151581525090506102be565b6000600183516101729190611206565b67ffffffffffffffff81111561018b5761018a610f8b565b5b6040519080825280601f01601f1916602001820160405280156101bd5781602001600182028036833780820191505090505b5090506000600160f81b846000815181106101db576101da61123a565b5b602001015160f81c60f81b7effffffffffffffffffffffffffffffffffffffffffffffffffffffffffffff19160361021257600190505b6000600190505b84518110156102a1578481815181106102355761023461123a565b5b602001015160f81c60f81b8360018361024e9190611206565b8151811061025f5761025e61123a565b5b60200101907effffffffffffffffffffffffffffffffffffffffffffffffffffffffffffff1916908160001a905350808061029990611269565b915050610219565b506040518060400160405280838152602001821515815250925050505b919050565b60006102ce826102f6565b905060006102e4635d9dfc2c8584607134610378565b90506102ef816104b3565b5050505050565b6060600061030460406105a4565b905061031a6003826105cb90919063ffffffff16565b6103318360000151826105db90919063ffffffff16565b6103506103418460200151610604565b826105db90919063ffffffff16565b61036783604001518261076190919063ffffffff16565b61037081610771565b915050919050565b606060008073fe0000000000000000000000000000000000000373ffffffffffffffffffffffffffffffffffffffff1688856000888a8c6040516020016103c49695949392919061133f565b6040516020818303038152906040526040516103e091906113ea565b600060405180830381855af49150503d806000811461041b576040519150601f19603f3d011682016040523d82523d6000602084013e610420565b606091505b509150915060011515821515146040518060400160405280601181526020017f6163746f722063616c6c206661696c6564000000000000000000000000000000815250906104a4576040517f08c379a000000000000000000000000000000000000000000000000000000000815260040161049b9190611456565b60405180910390fd5b50809250505095945050505050565b60606000806000848060200190518101906104ce9190611533565b925092509250600067ffffffffffffffff168267ffffffffffffffff16148061050b5750607167ffffffffffffffff168267ffffffffffffffff16145b61054a576040517f08c379a0000000000000000000000000000000000000000000000000000000008152600401610541906115ee565b60405180910390fd5b60008314610557846107ca565b90610598576040517f08c379a000000000000000000000000000000000000000000000000000000000815260040161058f9190611456565b60405180910390fd5b50809350505050919050565b6105ac610eee565b6105ba816000015183610834565b506000816020018181525050919050565b6105d7826004836108ad565b5050565b6105e882600283516108bd565b6105ff818360000151610a6690919063ffffffff16565b505050565b60606000600183600001515161061a919061160e565b67ffffffffffffffff81111561063357610632610f8b565b5b6040519080825280601f01601f1916602001820160405280156106655781602001600182028036833780820191505090505b5090508260200151156106bb57600160f81b8160008151811061068b5761068a61123a565b5b60200101907effffffffffffffffffffffffffffffffffffffffffffffffffffffffffffff1916908160001a9053505b60006001905060005b84600001515181101561075657846000015181815181106106e8576106e761123a565b5b602001015160f81c60f81b8383815181106107065761070561123a565b5b60200101907effffffffffffffffffffffffffffffffffffffffffffffffffffffffffffff1916908160001a905350818061074090611269565b925050808061074e90611269565b9150506106c4565b508192505050919050565b61076d826000836108bd565b5050565b606060008260200151146107ba576040517f08c379a00000000000000000000000000000000000000000000000000000000081526004016107b19061168e565b60405180910390fd5b8160000151600001519050919050565b60606000821215610804576107de82610a82565b6040516020016107ee9190611710565b604051602081830303815290604052905061082f565b61080d82610a82565b60405160200161081d9190611710565b60405160208183030381529060405290505b919050565b61083c610f0e565b600060208361084b9190611765565b146108775760208261085d9190611765565b60206108699190611206565b82610874919061160e565b91505b81836020018181525050604051808452600081528281016020018181101561089e57600080fd5b80604052505082905092915050565b6108b88383836108bd565b505050565b60178167ffffffffffffffff16116108f8576108f28160058460ff16901b60ff16178460000151610b5090919063ffffffff16565b50610a61565b60ff8167ffffffffffffffff16116109565761092b601860058460ff16901b178460000151610b5090919063ffffffff16565b506109508167ffffffffffffffff1660018560000151610bba9092919063ffffffff16565b50610a60565b61ffff8167ffffffffffffffff16116109b55761098a601960058460ff16901b178460000151610b5090919063ffffffff16565b506109af8167ffffffffffffffff1660028560000151610bba9092919063ffffffff16565b50610a5f565b63ffffffff8167ffffffffffffffff1611610a16576109eb601a60058460ff16901b178460000151610b5090919063ffffffff16565b50610a108167ffffffffffffffff1660048560000151610bba9092919063ffffffff16565b50610a5e565b610a37601b60058460ff16901b178460000151610b5090919063ffffffff16565b50610a5c8167ffffffffffffffff1660088560000151610bba9092919063ffffffff16565b505b5b5b5b505050565b610a6e610f0e565b610a7a83838451610c47565b905092915050565b606060006001610a9184610d2a565b01905060008167ffffffffffffffff811115610ab057610aaf610f8b565b5b6040519080825280601f01601f191660200182016040528015610ae25781602001600182028036833780820191505090505b509050600082602001820190505b600115610b45578080600190039150507f3031323334353637383961626364656600000000000000000000000000000000600a86061a8153600a8581610b3957610b38611736565b5b04945060008503610af0575b819350505050919050565b610b58610f0e565b600083600001515190506000600182610b71919061160e565b905084602001518210610b9557610b9485600283610b8f9190611796565b610e7d565b5b84516020838201018581538151831115610bad578282525b5050849250505092915050565b610bc2610f0e565b6000846000015151905060008184610bda919061160e565b90508560200151811115610bff57610bfe86600283610bf99190611796565b610e7d565b5b6000600185610100610c11919061190b565b610c1b9190611206565b905086518281018783198251161781528151841115610c38578382525b50508693505050509392505050565b610c4f610f0e565b8251821115610c5d57600080fd5b6000846000015151905060008382610c75919061160e565b90508560200151811115610c9a57610c9986600283610c949190611796565b610e7d565b5b60008087518051856020830101935080851115610cb5578482525b60208901925050505b60208610610cfc5780518252602082610cd7919061160e565b9150602081610ce6919061160e565b9050602086610cf59190611206565b9550610cbe565b60006001876020036101000a0390508019825116818451168181178552505050879450505050509392505050565b600080600090507a184f03e93ff9f4daa797ed6e38ed64bf6a1f0100000000000000008310610d88577a184f03e93ff9f4daa797ed6e38ed64bf6a1f0100000000000000008381610d7e57610d7d611736565b5b0492506040810190505b6d04ee2d6d415b85acef81000000008310610dc5576d04ee2d6d415b85acef81000000008381610dbb57610dba611736565b5b0492506020810190505b662386f26fc100008310610df457662386f26fc100008381610dea57610de9611736565b5b0492506010810190505b6305f5e1008310610e1d576305f5e1008381610e1357610e12611736565b5b0492506008810190505b6127108310610e42576127108381610e3857610e37611736565b5b0492506004810190505b60648310610e655760648381610e5b57610e5a611736565b5b0492506002810190505b600a8310610e74576001810190505b80915050919050565b600082600001519050610e908383610834565b50610e9b8382610a66565b50505050565b604051806060016040528060608152602001610ebb610ed2565b8152602001600067ffffffffffffffff1681525090565b6040518060400160405280606081526020016000151581525090565b6040518060400160405280610f01610f0e565b8152602001600081525090565b604051806040016040528060608152602001600081525090565b6000819050919050565b610f3b81610f28565b82525050565b6000602082019050610f566000830184610f32565b92915050565b6000604051905090565b600080fd5b600080fd5b600080fd5b600080fd5b6000601f19601f8301169050919050565b7f4e487b7100000000000000000000000000000000000000000000000000000000600052604160045260246000fd5b610fc382610f7a565b810181811067ffffffffffffffff82111715610fe257610fe1610f8b565b5b80604052505050565b6000610ff5610f5c565b90506110018282610fba565b919050565b600067ffffffffffffffff82111561102157611020610f8b565b5b61102a82610f7a565b9050602081019050919050565b82818337600083830152505050565b600061105961105484611006565b610feb565b90508281526020810184848401111561107557611074610f75565b5b611080848285611037565b509392505050565b600082601f83011261109d5761109c610f70565b5b81356110ad848260208601611046565b91505092915050565b600067ffffffffffffffff82169050919050565b6110d3816110b6565b81146110de57600080fd5b50565b6000813590506110f0816110ca565b92915050565b60008060006060848603121561110f5761110e610f66565b5b600084013567ffffffffffffffff81111561112d5761112c610f6b565b5b61113986828701611088565b935050602061114a868287016110e1565b925050604084013567ffffffffffffffff81111561116b5761116a610f6b565b5b61117786828701611088565b9150509250925092565b60007fffffffffffffffffffffffffffffffffffffffff00000000000000000000000082169050919050565b6111b681611181565b82525050565b60006020820190506111d160008301846111ad565b92915050565b7f4e487b7100000000000000000000000000000000000000000000000000000000600052601160045260246000fd5b600061121182610f28565b915061121c83610f28565b9250828203905081811115611234576112336111d7565b5b92915050565b7f4e487b7100000000000000000000000000000000000000000000000000000000600052603260045260246000fd5b600061127482610f28565b91507fffffffffffffffffffffffffffffffffffffffffffffffffffffffffffffffff82036112a6576112a56111d7565b5b600182019050919050565b6112ba816110b6565b82525050565b600081519050919050565b600082825260208201905092915050565b60005b838110156112fa5780820151818401526020810190506112df565b60008484015250505050565b6000611311826112c0565b61131b81856112cb565b935061132b8185602086016112dc565b61133481610f7a565b840191505092915050565b600060c08201905061135460008301896112b1565b6113616020830188610f32565b61136e60408301876112b1565b61137b60608301866112b1565b818103608083015261138d8185611306565b905081810360a08301526113a18184611306565b9050979650505050505050565b600081905092915050565b60006113c4826112c0565b6113ce81856113ae565b93506113de8185602086016112dc565b80840191505092915050565b60006113f682846113b9565b915081905092915050565b600081519050919050565b600082825260208201905092915050565b600061142882611401565b611432818561140c565b93506114428185602086016112dc565b61144b81610f7a565b840191505092915050565b60006020820190508181036000830152611470818461141d565b905092915050565b6000819050919050565b61148b81611478565b811461149657600080fd5b50565b6000815190506114a881611482565b92915050565b6000815190506114bd816110ca565b92915050565b60006114d66114d184611006565b610feb565b9050828152602081018484840111156114f2576114f1610f75565b5b6114fd8482856112dc565b509392505050565b600082601f83011261151a57611519610f70565b5b815161152a8482602086016114c3565b91505092915050565b60008060006060848603121561154c5761154b610f66565b5b600061155a86828701611499565b935050602061156b868287016114ae565b925050604084015167ffffffffffffffff81111561158c5761158b610f6b565b5b61159886828701611505565b9150509250925092565b7f726573706f6e736520636f646563206e6f7420737570706f7274656400000000600082015250565b60006115d8601c8361140c565b91506115e3826115a2565b602082019050919050565b60006020820190508181036000830152611607816115cb565b9050919050565b600061161982610f28565b915061162483610f28565b925082820190508082111561163c5761163b6111d7565b5b92915050565b7f496e76616c69642043424f520000000000000000000000000000000000000000600082015250565b6000611678600c8361140c565b915061168382611642565b602082019050919050565b600060208201905081810360008301526116a78161166b565b9050919050565b7f6163746f72206572726f7220636f6465202d0000000000000000000000000000815250565b600081905092915050565b60006116ea82611401565b6116f481856116d4565b93506117048185602086016112dc565b80840191505092915050565b600061171b826116ae565b60128201915061172b82846116df565b915081905092915050565b7f4e487b7100000000000000000000000000000000000000000000000000000000600052601260045260246000fd5b600061177082610f28565b915061177b83610f28565b92508261178b5761178a611736565b5b828206905092915050565b60006117a182610f28565b91506117ac83610f28565b92508282026117ba81610f28565b915082820484148315176117d1576117d06111d7565b5b5092915050565b60008160011c9050919050565b6000808291508390505b600185111561182f5780860481111561180b5761180a6111d7565b5b600185161561181a5780820291505b8081029050611828856117d8565b94506117ef565b94509492505050565b6000826118485760019050611904565b816118565760009050611904565b816001811461186c5760028114611876576118a5565b6001915050611904565b60ff841115611888576118876111d7565b5b8360020a91508482111561189f5761189e6111d7565b5b50611904565b5060208310610133831016604e8410600b84101617156118da5782820a9050838111156118d5576118d46111d7565b5b611904565b6118e784848460016117e5565b925090508184048111156118fe576118fd6111d7565b5b81810290505b9392505050565b600061191682610f28565b915061192183610f28565b925061194e7fffffffffffffffffffffffffffffffffffffffffffffffffffffffffffffffff8484611838565b90509291505056fea264697066735822122093f0234f5de178bef4eb3054de68f2845866abc1baa5f69834c8eedf2c0627be64736f6c63430008110033",
  "devdoc": {
    "kind": "dev",
    "methods": {},
    "version": 1
  },
  "userdoc": {
    "kind": "user",
    "methods": {},
    "version": 1
  },
  "storageLayout": {
    "storage": [],
    "types": null
  }
}