{
  "address": "0xC448aD9f7BC7B4D773573b8018cD31C5Ea5CE134",
  "abi": [
    {
      "inputs": [],
      "stateMutability": "nonpayable",
      "type": "constructor"
    },
    {
      "inputs": [],
      "name": "AlreadyInitialized",
      "type": "error"
    },
    {
      "inputs": [],
      "name": "ChangeBeneficiaryFailed",
      "type": "error"
    },
    {
      "inputs": [],
      "name": "InvalidInt104",
      "type": "error"
    },
    {
      "inputs": [],
      "name": "InvalidInt256",
      "type": "error"
    },
    {
      "inputs": [],
      "name": "InvalidUInt104",
      "type": "error"
    },
    {
      "inputs": [],
      "name": "InvalidUInt128",
      "type": "error"
    },
    {
      "inputs": [],
      "name": "InvalidUInt64",
      "type": "error"
    },
    {
      "inputs": [],
      "name": "NegativeNumber",
      "type": "error"
    },
    {
      "inputs": [],
      "name": "TimestampTooLarge",
      "type": "error"
    },
    {
      "inputs": [],
      "name": "TransferInFailed",
      "type": "error"
    },
    {
      "inputs": [],
      "name": "TransferOutFailed",
      "type": "error"
    },
    {
      "inputs": [],
      "name": "Unauthorized",
      "type": "error"
    },
    {
      "anonymous": false,
      "inputs": [
        {
          "indexed": true,
          "internalType": "address",
          "name": "dst",
          "type": "address"
        },
        {
          "indexed": false,
          "internalType": "uint256",
          "name": "amount",
          "type": "uint256"
        }
      ],
      "name": "Borrow",
      "type": "event"
    },
    {
      "anonymous": false,
      "inputs": [
        {
          "indexed": true,
          "internalType": "address",
          "name": "miner",
          "type": "address"
        },
        {
          "indexed": false,
          "internalType": "uint64",
          "name": "scale",
          "type": "uint64"
        }
      ],
      "name": "ChangePledgeScale",
      "type": "event"
    },
    {
      "anonymous": false,
      "inputs": [
        {
          "indexed": true,
          "internalType": "address",
          "name": "to",
          "type": "address"
        },
        {
          "indexed": false,
          "internalType": "uint256",
          "name": "amount",
          "type": "uint256"
        }
      ],
      "name": "InterestWithdraw",
      "type": "event"
    },
    {
      "anonymous": false,
      "inputs": [
        {
          "components": [
            {
              "internalType": "bytes",
              "name": "val",
              "type": "bytes"
            },
            {
              "internalType": "bool",
              "name": "neg",
              "type": "bool"
            }
          ],
          "indexed": false,
          "internalType": "struct BigInt",
          "name": "msg",
          "type": "tuple"
        }
      ],
      "name": "Logger",
      "type": "event"
    },
    {
      "anonymous": false,
      "inputs": [
        {
          "indexed": true,
          "internalType": "address",
          "name": "src",
          "type": "address"
        },
        {
          "indexed": true,
          "internalType": "address",
          "name": "dst",
          "type": "address"
        },
        {
          "indexed": true,
          "internalType": "address",
          "name": "miner",
          "type": "address"
        }
      ],
      "name": "Pledge",
      "type": "event"
    },
    {
      "anonymous": false,
      "inputs": [
        {
          "indexed": true,
          "internalType": "address",
          "name": "src",
          "type": "address"
        },
        {
          "indexed": false,
          "internalType": "uint256",
          "name": "amount",
          "type": "uint256"
        }
      ],
      "name": "Repay",
      "type": "event"
    },
    {
      "anonymous": false,
      "inputs": [
        {
          "indexed": true,
          "internalType": "address",
          "name": "from",
          "type": "address"
        },
        {
          "indexed": true,
          "internalType": "address",
          "name": "dst",
          "type": "address"
        },
        {
          "indexed": false,
          "internalType": "uint256",
          "name": "amount",
          "type": "uint256"
        }
      ],
      "name": "Supply",
      "type": "event"
    },
    {
      "anonymous": false,
      "inputs": [
        {
          "indexed": true,
          "internalType": "address",
          "name": "src",
          "type": "address"
        },
        {
          "indexed": true,
          "internalType": "address",
          "name": "dst",
          "type": "address"
        },
        {
          "indexed": true,
          "internalType": "address",
          "name": "miner",
          "type": "address"
        }
      ],
      "name": "Unpledge",
      "type": "event"
    },
    {
      "anonymous": false,
      "inputs": [
        {
          "indexed": true,
          "internalType": "address",
          "name": "src",
          "type": "address"
        },
        {
          "indexed": true,
          "internalType": "address",
          "name": "to",
          "type": "address"
        },
        {
          "indexed": false,
          "internalType": "uint256",
          "name": "amount",
          "type": "uint256"
        }
      ],
      "name": "Withdraw",
      "type": "event"
    },
    {
      "stateMutability": "payable",
      "type": "fallback"
    },
    {
      "inputs": [],
      "name": "TotalBorrow",
      "outputs": [
        {
          "internalType": "uint256",
          "name": "",
          "type": "uint256"
        }
      ],
      "stateMutability": "view",
      "type": "function"
    },
    {
      "inputs": [],
      "name": "TotalPledge",
      "outputs": [
        {
          "internalType": "uint256",
          "name": "",
          "type": "uint256"
        }
      ],
      "stateMutability": "view",
      "type": "function"
    },
    {
      "inputs": [],
      "name": "TotalSupply",
      "outputs": [
        {
          "internalType": "uint256",
          "name": "",
          "type": "uint256"
        }
      ],
      "stateMutability": "view",
      "type": "function"
    },
    {
      "inputs": [],
      "name": "baseToken",
      "outputs": [
        {
          "internalType": "address",
          "name": "",
          "type": "address"
        }
      ],
      "stateMutability": "view",
      "type": "function"
    },
    {
      "inputs": [
        {
          "internalType": "uint256",
          "name": "amount",
          "type": "uint256"
        }
      ],
      "name": "borrow",
      "outputs": [],
      "stateMutability": "nonpayable",
      "type": "function"
    },
    {
      "inputs": [
        {
          "internalType": "address",
          "name": "owner",
          "type": "address"
        }
      ],
      "name": "borrowBalanceOf",
      "outputs": [
        {
          "internalType": "uint256",
          "name": "",
          "type": "uint256"
        }
      ],
      "stateMutability": "view",
      "type": "function"
    },
    {
      "inputs": [],
      "name": "changeBeneficiary",
      "outputs": [],
      "stateMutability": "nonpayable",
      "type": "function"
    },
    {
      "inputs": [
        {
          "internalType": "address",
          "name": "miner",
          "type": "address"
        },
        {
          "internalType": "uint32",
          "name": "scale",
          "type": "uint32"
        }
      ],
      "name": "changePledgeScale",
      "outputs": [],
      "stateMutability": "nonpayable",
      "type": "function"
    },
    {
      "inputs": [],
      "name": "getAvailableBalance",
      "outputs": [
        {
          "components": [
            {
              "components": [
                {
                  "internalType": "bytes",
                  "name": "val",
                  "type": "bytes"
                },
                {
                  "internalType": "bool",
                  "name": "neg",
                  "type": "bool"
                }
              ],
              "internalType": "struct BigInt",
              "name": "available_balance",
              "type": "tuple"
            }
          ],
          "internalType": "struct MinerTypes.GetAvailableBalanceReturn",
          "name": "",
          "type": "tuple"
        }
      ],
      "stateMutability": "nonpayable",
      "type": "function"
    },
    {
      "inputs": [
        {
          "internalType": "string",
          "name": "target",
          "type": "string"
        }
      ],
      "name": "getAvailableBalance",
      "outputs": [
        {
          "components": [
            {
              "internalType": "bytes",
              "name": "val",
              "type": "bytes"
            },
            {
              "internalType": "bool",
              "name": "neg",
              "type": "bool"
            }
          ],
          "internalType": "struct BigInt",
          "name": "",
          "type": "tuple"
        }
      ],
      "stateMutability": "nonpayable",
      "type": "function"
    },
    {
      "inputs": [],
      "name": "governor",
      "outputs": [
        {
          "internalType": "address",
          "name": "",
          "type": "address"
        }
      ],
      "stateMutability": "view",
      "type": "function"
    },
    {
      "inputs": [
        {
          "internalType": "address",
          "name": "owner",
          "type": "address"
        },
        {
          "internalType": "address",
          "name": "manager",
          "type": "address"
        }
      ],
      "name": "hasPermission",
      "outputs": [
        {
          "internalType": "bool",
          "name": "",
          "type": "bool"
        }
      ],
      "stateMutability": "view",
      "type": "function"
    },
    {
      "inputs": [],
      "name": "initializeStorage",
      "outputs": [],
      "stateMutability": "nonpayable",
      "type": "function"
    },
    {
      "inputs": [
        {
          "internalType": "uint256",
          "name": "amount",
          "type": "uint256"
        }
      ],
      "name": "interestWithdraw",
      "outputs": [],
      "stateMutability": "nonpayable",
      "type": "function"
    },
    {
      "inputs": [
        {
          "internalType": "address",
          "name": "",
          "type": "address"
        },
        {
          "internalType": "address",
          "name": "",
          "type": "address"
        }
      ],
      "name": "isAllowed",
      "outputs": [
        {
          "internalType": "bool",
          "name": "",
          "type": "bool"
        }
      ],
      "stateMutability": "view",
      "type": "function"
    },
    {
      "inputs": [
        {
          "internalType": "address",
          "name": "",
          "type": "address"
        },
        {
          "internalType": "address",
          "name": "",
          "type": "address"
        }
      ],
      "name": "nodeAssets",
      "outputs": [
        {
          "internalType": "address",
          "name": "miner",
          "type": "address"
        },
        {
          "internalType": "uint32",
          "name": "pledgeScale",
          "type": "uint32"
        },
        {
          "internalType": "uint128",
          "name": "pledgedAmt",
          "type": "uint128"
        },
        {
          "internalType": "uint128",
          "name": "balance",
          "type": "uint128"
        },
        {
          "internalType": "uint128",
          "name": "canBorrowedBalance",
          "type": "uint128"
        },
        {
          "internalType": "uint128",
          "name": "beneficiaryWithdrawnAmt",
          "type": "uint128"
        }
      ],
      "stateMutability": "view",
      "type": "function"
    },
    {
      "inputs": [],
      "name": "pauseGuardian",
      "outputs": [
        {
          "internalType": "address",
          "name": "",
          "type": "address"
        }
      ],
      "stateMutability": "view",
      "type": "function"
    },
    {
      "inputs": [
        {
          "internalType": "address",
          "name": "miner",
          "type": "address"
        }
      ],
      "name": "pledge",
      "outputs": [],
      "stateMutability": "nonpayable",
      "type": "function"
    },
    {
      "inputs": [
        {
          "internalType": "address",
          "name": "owner",
          "type": "address"
        }
      ],
      "name": "pledgeBalanceOf",
      "outputs": [
        {
          "internalType": "uint256",
          "name": "",
          "type": "uint256"
        }
      ],
      "stateMutability": "view",
      "type": "function"
    },
    {
      "inputs": [
        {
          "internalType": "uint256",
          "name": "amount",
          "type": "uint256"
        }
      ],
      "name": "repay",
      "outputs": [],
      "stateMutability": "nonpayable",
      "type": "function"
    },
    {
      "inputs": [
        {
          "internalType": "uint256",
          "name": "baseBorrowInterestRate_",
          "type": "uint256"
        }
      ],
      "name": "setBaseBorrowInterestRate",
      "outputs": [],
      "stateMutability": "nonpayable",
      "type": "function"
    },
    {
      "inputs": [
        {
          "internalType": "uint256",
          "name": "baseSupplyInterestRate_",
          "type": "uint256"
        }
      ],
      "name": "setBaseSupplyInterestRate",
      "outputs": [],
      "stateMutability": "nonpayable",
      "type": "function"
    },
    {
      "inputs": [
        {
          "internalType": "uint256",
          "name": "liquidityRate_",
          "type": "uint256"
        }
      ],
      "name": "setLiquidateCollateralFactor",
      "outputs": [],
      "stateMutability": "nonpayable",
      "type": "function"
    },
    {
      "inputs": [
        {
          "internalType": "uint256",
          "name": "amount",
          "type": "uint256"
        }
      ],
      "name": "supply",
      "outputs": [],
      "stateMutability": "nonpayable",
      "type": "function"
    },
    {
      "inputs": [
        {
          "internalType": "address",
          "name": "owner",
          "type": "address"
        }
      ],
      "name": "supplyBalanceOf",
      "outputs": [
        {
          "internalType": "uint256",
          "name": "",
          "type": "uint256"
        }
      ],
      "stateMutability": "view",
      "type": "function"
    },
    {
      "inputs": [
        {
          "internalType": "string",
          "name": "tmp",
          "type": "string"
        }
      ],
      "name": "test",
      "outputs": [
        {
          "internalType": "string",
          "name": "",
          "type": "string"
        }
      ],
      "stateMutability": "pure",
      "type": "function"
    },
    {
      "inputs": [
        {
          "internalType": "address",
          "name": "owner",
          "type": "address"
        }
      ],
      "name": "totalBorrowInterestOf",
      "outputs": [
        {
          "internalType": "uint256",
          "name": "",
          "type": "uint256"
        }
      ],
      "stateMutability": "view",
      "type": "function"
    },
    {
      "inputs": [
        {
          "internalType": "address",
          "name": "owner",
          "type": "address"
        }
      ],
      "name": "totalSupplyInterestOf",
      "outputs": [
        {
          "internalType": "uint256",
          "name": "",
          "type": "uint256"
        }
      ],
      "stateMutability": "view",
      "type": "function"
    },
    {
      "inputs": [
        {
          "internalType": "address",
          "name": "owner",
          "type": "address"
        }
      ],
      "name": "unClaimBorrowInterestOf",
      "outputs": [
        {
          "internalType": "uint256",
          "name": "",
          "type": "uint256"
        }
      ],
      "stateMutability": "view",
      "type": "function"
    },
    {
      "inputs": [
        {
          "internalType": "address",
          "name": "owner",
          "type": "address"
        }
      ],
      "name": "unClaimSupplyInterestOf",
      "outputs": [
        {
          "internalType": "uint256",
          "name": "",
          "type": "uint256"
        }
      ],
      "stateMutability": "view",
      "type": "function"
    },
    {
      "inputs": [
        {
          "internalType": "address",
          "name": "miner",
          "type": "address"
        }
      ],
      "name": "unpledge",
      "outputs": [],
      "stateMutability": "nonpayable",
      "type": "function"
    },
    {
      "inputs": [
        {
          "internalType": "address",
          "name": "",
          "type": "address"
        }
      ],
      "name": "userAccounts",
      "outputs": [
        {
          "internalType": "uint104",
          "name": "supplyBalance",
          "type": "uint104"
        },
        {
          "internalType": "uint104",
          "name": "borrowBalance",
          "type": "uint104"
        },
        {
          "internalType": "uint40",
          "name": "lastAccrualTime",
          "type": "uint40"
        },
        {
          "internalType": "uint64",
          "name": "supplyTotalInterest",
          "type": "uint64"
        },
        {
          "internalType": "uint64",
          "name": "unClaimSupplyInterest",
          "type": "uint64"
        },
        {
          "internalType": "uint64",
          "name": "borrowTotalInterest",
          "type": "uint64"
        },
        {
          "internalType": "uint64",
          "name": "unClaimBorrowInterest",
          "type": "uint64"
        },
        {
          "internalType": "uint128",
          "name": "canBorrowedBalance",
          "type": "uint128"
        }
      ],
      "stateMutability": "view",
      "type": "function"
    },
    {
      "inputs": [
        {
          "internalType": "uint256",
          "name": "amount",
          "type": "uint256"
        }
      ],
      "name": "withdraw",
      "outputs": [],
      "stateMutability": "nonpayable",
      "type": "function"
    },
    {
      "stateMutability": "payable",
      "type": "receive"
    }
  ],
  "transactionHash": "0x94256db8d480f33f946a7a21a2cb3514ba019879e72a05fb9fc2135eb69efbc2",
  "args": [],
  "numDeployments": 1,
  "solcInputHash": "a54dba21b5e588c2660f77696ff2b188",
  "bytecode": "0x60806040523480156200001157600080fd5b50306000806101000a81548173ffffffffffffffffffffffffffffffffffffffff021916908373ffffffffffffffffffffffffffffffffffffffff16021790555030600160006101000a81548173ffffffffffffffffffffffffffffffffffffffff021916908373ffffffffffffffffffffffffffffffffffffffff16021790555030600260006101000a81548173ffffffffffffffffffffffffffffffffffffffff021916908373ffffffffffffffffffffffffffffffffffffffff1602179055506301e13380662386f26fc100006007620000ef9190620001f9565b620000fb91906200026e565b600260146101000a81548167ffffffffffffffff021916908367ffffffffffffffff1602179055506301e13380662386f26fc1000060036200013e9190620001f9565b6200014a91906200026e565b600360006101000a81548167ffffffffffffffff021916908367ffffffffffffffff160217905550662386f26fc100006050620001889190620001f9565b600560006101000a81548167ffffffffffffffff021916908367ffffffffffffffff160217905550620002a6565b600067ffffffffffffffff82169050919050565b7f4e487b7100000000000000000000000000000000000000000000000000000000600052601160045260246000fd5b60006200020682620001b6565b91506200021383620001b6565b92508282026200022381620001b6565b9150808214620002385762000237620001ca565b5b5092915050565b7f4e487b7100000000000000000000000000000000000000000000000000000000600052601260045260246000fd5b60006200027b82620001b6565b91506200028883620001b6565b9250826200029b576200029a6200023f565b5b828204905092915050565b61415980620002b66000396000f3fe6080604052600436106101f25760003560e01c8063809dab6a1161010d578063b6bd21c9116100a0578063cde680411161006f578063cde680411461075b578063da4c10c814610798578063f216ed8a146107c1578063f6f6217d146107ea578063f9fbd55414610801576101f9565b8063b6bd21c91461069f578063c2b31f38146106ca578063c55dae6314610707578063c5ebeaec14610732576101f9565b8063a1654379116100dc578063a1654379146105e5578063a44b47f714610622578063a752ca421461064d578063b34e9be614610676576101f9565b8063809dab6a14610503578063836f21051461052e5780638a594f501461056b57806393889f06146105a8576101f9565b80633cb0c0ab1161018557806365a700a81161015457806365a700a81461043057806365a8e4f01461045b578063782f8918146104985780637ca98acf146104c1576101f9565b80633cb0c0ab1461035d5780635251d91c1461038657806358363150146103ca5780635a67e239146103f3576101f9565b806335403023116101c15780633540302314610291578063371fd8e6146102ba578063374c49b4146102e35780633a485e5014610320576101f9565b80630c340a24146101fb5780631c9f7fb91461022657806324a3d6221461023d5780632e1a7d4d14610268576101f9565b366101f957005b005b34801561020757600080fd5b5061021061083e565b60405161021d9190613174565b60405180910390f35b34801561023257600080fd5b5061023b610862565b005b34801561024957600080fd5b506102526108e2565b60405161025f9190613174565b60405180910390f35b34801561027457600080fd5b5061028f600480360381019061028a91906131d9565b610908565b005b34801561029d57600080fd5b506102b860048036038101906102b391906131d9565b610997565b005b3480156102c657600080fd5b506102e160048036038101906102dc91906131d9565b610a26565b005b3480156102ef57600080fd5b5061030a60048036038101906103059190613232565b610a9e565b604051610317919061326e565b60405180910390f35b34801561032c57600080fd5b5061034760048036038101906103429190613232565b610b17565b604051610354919061326e565b60405180910390f35b34801561036957600080fd5b50610384600480360381019061037f91906131d9565b610b86565b005b34801561039257600080fd5b506103ad60048036038101906103a89190613232565b610bb2565b6040516103c198979695949392919061331f565b60405180910390f35b3480156103d657600080fd5b506103f160048036038101906103ec91906131d9565b610ca9565b005b3480156103ff57600080fd5b5061041a60048036038101906104159190613232565b610d21565b604051610427919061326e565b60405180910390f35b34801561043c57600080fd5b50610445610da0565b604051610452919061326e565b60405180910390f35b34801561046757600080fd5b50610482600480360381019061047d9190613232565b610dd8565b60405161048f919061326e565b60405180910390f35b3480156104a457600080fd5b506104bf60048036038101906104ba91906131d9565b610e47565b005b3480156104cd57600080fd5b506104e860048036038101906104e3919061339d565b610e73565b6040516104fa969594939291906133fc565b60405180910390f35b34801561050f57600080fd5b50610518610f5c565b604051610525919061356f565b60405180910390f35b34801561053a57600080fd5b5061055560048036038101906105509190613232565b610fa7565b604051610562919061326e565b60405180910390f35b34801561057757600080fd5b50610592600480360381019061058d91906136c6565b611016565b60405161059f919061374c565b60405180910390f35b3480156105b457600080fd5b506105cf60048036038101906105ca9190613232565b611073565b6040516105dc919061326e565b60405180910390f35b3480156105f157600080fd5b5061060c6004803603810190610607919061339d565b6110ec565b604051610619919061377d565b60405180910390f35b34801561062e57600080fd5b5061063761111b565b604051610644919061326e565b60405180910390f35b34801561065957600080fd5b50610674600480360381019061066f9190613232565b611153565b005b34801561068257600080fd5b5061069d600480360381019061069891906131d9565b6111e2565b005b3480156106ab57600080fd5b506106b461120e565b6040516106c1919061326e565b60405180910390f35b3480156106d657600080fd5b506106f160048036038101906106ec9190613232565b611246565b6040516106fe919061326e565b60405180910390f35b34801561071357600080fd5b5061071c6112b5565b6040516107299190613174565b60405180910390f35b34801561073e57600080fd5b50610759600480360381019061075491906131d9565b6112db565b005b34801561076757600080fd5b50610782600480360381019061077d919061339d565b611353565b60405161078f919061377d565b60405180910390f35b3480156107a457600080fd5b506107bf60048036038101906107ba91906137c4565b61141d565b005b3480156107cd57600080fd5b506107e860048036038101906107e39190613232565b61177b565b005b3480156107f657600080fd5b506107ff611ad5565b005b34801561080d57600080fd5b50610828600480360381019061082391906136c6565b611bbd565b6040516108359190613859565b60405180910390f35b60008054906101000a900473ffffffffffffffffffffffffffffffffffffffff1681565b6000600560089054906101000a900464ffffffffff1664ffffffffff16146108b6576040517f0dc149f000000000000000000000000000000000000000000000000000000000815260040160405180910390fd5b6108be611bc7565b600560086101000a81548164ffffffffff021916908364ffffffffff160217905550565b600160009054906101000a900473ffffffffffffffffffffffffffffffffffffffff1681565b60008103156109945761091a33611c0e565b6109243382611c11565b61092e3382611c15565b3373ffffffffffffffffffffffffffffffffffffffff163073ffffffffffffffffffffffffffffffffffffffff167f9b1bfa7fa9ee420a16e124f794c35ac9f90472acc99140eb2f6447c714cad8eb8360405161098b919061326e565b60405180910390a35b50565b6000810315610a23576109aa3382611c19565b6109b333611c0e565b3073ffffffffffffffffffffffffffffffffffffffff163373ffffffffffffffffffffffffffffffffffffffff167fd1cf3d156d5f8f0d50f6c122ed609cec09d35c9b9fb3fff6ea0959134dae424e83604051610a10919061326e565b60405180910390a3610a223382611c1d565b5b50565b6000810315610a9b57610a393382611c19565b610a4233611c0e565b610a4c3382611c21565b3373ffffffffffffffffffffffffffffffffffffffff167f5c16de4f8b59bd9caf0f49a545f25819a895ed223294290b408242e72a59423182604051610a92919061326e565b60405180910390a25b50565b600080600760008473ffffffffffffffffffffffffffffffffffffffff1673ffffffffffffffffffffffffffffffffffffffff168152602001908152602001600020905080600001600d9054906101000a90046cffffffffffffffffffffffffff166cffffffffffffffffffffffffff16915050919050565b600080600760008473ffffffffffffffffffffffffffffffffffffffff1673ffffffffffffffffffffffffffffffffffffffff16815260200190815260200160002090508060010160189054906101000a900467ffffffffffffffff1667ffffffffffffffff16915050919050565b80600260146101000a81548167ffffffffffffffff021916908367ffffffffffffffff16021790555050565b60076020528060005260406000206000915090508060000160009054906101000a90046cffffffffffffffffffffffffff169080600001600d9054906101000a90046cffffffffffffffffffffffffff169080600001601a9054906101000a900464ffffffffff16908060010160009054906101000a900467ffffffffffffffff16908060010160089054906101000a900467ffffffffffffffff16908060010160109054906101000a900467ffffffffffffffff16908060010160189054906101000a900467ffffffffffffffff16908060020160009054906101000a90046fffffffffffffffffffffffffffffffff16905088565b6000810315610d1e57610cbb33611c0e565b610cc53382611c25565b610ccf3382611c15565b3373ffffffffffffffffffffffffffffffffffffffff167feab2c64fe6274878371122aa1c2f1fd513478898c6a8a3a166f68a9ef6866de982604051610d15919061326e565b60405180910390a25b50565b600080600760008473ffffffffffffffffffffffffffffffffffffffff1673ffffffffffffffffffffffffffffffffffffffff16815260200190815260200160002090508060020160009054906101000a90046fffffffffffffffffffffffffffffffff166fffffffffffffffffffffffffffffffff16915050919050565b6000600460009054906101000a90046fffffffffffffffffffffffffffffffff166fffffffffffffffffffffffffffffffff16905090565b600080600760008473ffffffffffffffffffffffffffffffffffffffff1673ffffffffffffffffffffffffffffffffffffffff16815260200190815260200160002090508060010160009054906101000a900467ffffffffffffffff1667ffffffffffffffff16915050919050565b80600360006101000a81548167ffffffffffffffff021916908367ffffffffffffffff16021790555050565b6008602052816000526040600020602052806000526040600020600091509150508060000160009054906101000a900473ffffffffffffffffffffffffffffffffffffffff16908060000160149054906101000a900463ffffffff16908060010160009054906101000a90046fffffffffffffffffffffffffffffffff16908060010160109054906101000a90046fffffffffffffffffffffffffffffffff16908060020160009054906101000a90046fffffffffffffffffffffffffffffffff16908060020160109054906101000a90046fffffffffffffffffffffffffffffffff16905086565b610f64612ff9565b610fa26040518060400160405280600681526020017f7430313036340000000000000000000000000000000000000000000000000000815250611c29565b905090565b600080600760008473ffffffffffffffffffffffffffffffffffffffff1673ffffffffffffffffffffffffffffffffffffffff16815260200190815260200160002090508060010160109054906101000a900467ffffffffffffffff1667ffffffffffffffff16915050919050565b61101e613012565b600061102983611c29565b90507fa2ddd6267efd2f6d55932aa34c682b9e61e408a2f4267a45334fa90a5247d210816000015160405161105e919061374c565b60405180910390a18060000151915050919050565b600080600760008473ffffffffffffffffffffffffffffffffffffffff1673ffffffffffffffffffffffffffffffffffffffff16815260200190815260200160002090508060000160009054906101000a90046cffffffffffffffffffffffffff166cffffffffffffffffffffffffff16915050919050565b60066020528160005260406000206020528060005260406000206000915091509054906101000a900460ff1681565b6000600360089054906101000a90046fffffffffffffffffffffffffffffffff166fffffffffffffffffffffffffffffffff16905090565b61115b611ad5565b61116433611c0e565b61116e3382611ccc565b8073ffffffffffffffffffffffffffffffffffffffff168173ffffffffffffffffffffffffffffffffffffffff163373ffffffffffffffffffffffffffffffffffffffff167fc68c7698ea36b34fd2470ca60decc74a0988213438a0eebb75835ea5ec68ab7d60405160405180910390a450565b80600560006101000a81548167ffffffffffffffff021916908367ffffffffffffffff16021790555050565b6000600460109054906101000a90046fffffffffffffffffffffffffffffffff166fffffffffffffffffffffffffffffffff16905090565b600080600760008473ffffffffffffffffffffffffffffffffffffffff1673ffffffffffffffffffffffffffffffffffffffff16815260200190815260200160002090508060010160089054906101000a900467ffffffffffffffff1667ffffffffffffffff16915050919050565b600260009054906101000a900473ffffffffffffffffffffffffffffffffffffffff1681565b6000810315611350576112ed33611c0e565b6112f73382611cd0565b6113013382611c15565b3373ffffffffffffffffffffffffffffffffffffffff167fcbc04eca7e9da35cb1393a6135a199ca52e450d5e9251cbd99f7847d33a3675082604051611347919061326e565b60405180910390a25b50565b60008173ffffffffffffffffffffffffffffffffffffffff168373ffffffffffffffffffffffffffffffffffffffff1614806114155750600660008473ffffffffffffffffffffffffffffffffffffffff1673ffffffffffffffffffffffffffffffffffffffff16815260200190815260200160002060008373ffffffffffffffffffffffffffffffffffffffff1673ffffffffffffffffffffffffffffffffffffffff16815260200190815260200160002060009054906101000a900460ff165b905092915050565b60008163ffffffff160315611777576000600860003373ffffffffffffffffffffffffffffffffffffffff1673ffffffffffffffffffffffffffffffffffffffff16815260200190815260200160002060008473ffffffffffffffffffffffffffffffffffffffff1673ffffffffffffffffffffffffffffffffffffffff1681526020019081526020016000206040518060c00160405290816000820160009054906101000a900473ffffffffffffffffffffffffffffffffffffffff1673ffffffffffffffffffffffffffffffffffffffff1673ffffffffffffffffffffffffffffffffffffffff1681526020016000820160149054906101000a900463ffffffff1663ffffffff1663ffffffff1681526020016001820160009054906101000a90046fffffffffffffffffffffffffffffffff166fffffffffffffffffffffffffffffffff166fffffffffffffffffffffffffffffffff1681526020016001820160109054906101000a90046fffffffffffffffffffffffffffffffff166fffffffffffffffffffffffffffffffff166fffffffffffffffffffffffffffffffff1681526020016002820160009054906101000a90046fffffffffffffffffffffffffffffffff166fffffffffffffffffffffffffffffffff166fffffffffffffffffffffffffffffffff1681526020016002820160109054906101000a90046fffffffffffffffffffffffffffffffff166fffffffffffffffffffffffffffffffff166fffffffffffffffffffffffffffffffff16815250509050600073ffffffffffffffffffffffffffffffffffffffff16816000015173ffffffffffffffffffffffffffffffffffffffff16036116ce576040517f08c379a00000000000000000000000000000000000000000000000000000000081526004016116c5906138c7565b60405180910390fd5b81816020019063ffffffff16908163ffffffff16815250506116f03382611cd4565b6116fa3382611cd8565b6117043382611cdc565b8273ffffffffffffffffffffffffffffffffffffffff168373ffffffffffffffffffffffffffffffffffffffff163373ffffffffffffffffffffffffffffffffffffffff167fe0ea7157684b9221a5a892ff620f60a898399d0885255b04f07d1408f03aa4ca60405160405180910390a4505b5050565b6000600860003373ffffffffffffffffffffffffffffffffffffffff1673ffffffffffffffffffffffffffffffffffffffff16815260200190815260200160002060008373ffffffffffffffffffffffffffffffffffffffff1673ffffffffffffffffffffffffffffffffffffffff1681526020019081526020016000206040518060c00160405290816000820160009054906101000a900473ffffffffffffffffffffffffffffffffffffffff1673ffffffffffffffffffffffffffffffffffffffff1673ffffffffffffffffffffffffffffffffffffffff1681526020016000820160149054906101000a900463ffffffff1663ffffffff1663ffffffff1681526020016001820160009054906101000a90046fffffffffffffffffffffffffffffffff166fffffffffffffffffffffffffffffffff166fffffffffffffffffffffffffffffffff1681526020016001820160109054906101000a90046fffffffffffffffffffffffffffffffff166fffffffffffffffffffffffffffffffff166fffffffffffffffffffffffffffffffff1681526020016002820160009054906101000a90046fffffffffffffffffffffffffffffffff166fffffffffffffffffffffffffffffffff166fffffffffffffffffffffffffffffffff1681526020016002820160109054906101000a90046fffffffffffffffffffffffffffffffff166fffffffffffffffffffffffffffffffff166fffffffffffffffffffffffffffffffff16815250509050600073ffffffffffffffffffffffffffffffffffffffff16816000015173ffffffffffffffffffffffffffffffffffffffff1614611a1d576040517f08c379a0000000000000000000000000000000000000000000000000000000008152600401611a1490613933565b60405180910390fd5b611a25611ad5565b6000611a3083611ce0565b90506000816020019063ffffffff16908163ffffffff1681525050611a553382611cd8565b611a5f3382611cdc565b8273ffffffffffffffffffffffffffffffffffffffff168373ffffffffffffffffffffffffffffffffffffffff163373ffffffffffffffffffffffffffffffffffffffff167fe0ea7157684b9221a5a892ff620f60a898399d0885255b04f07d1408f03aa4ca60405160405180910390a4505050565b611add61302e565b600060405180604001604052806040518060400160405280600281526020017f100000000000000000000000000000000000000000000000000000000000000081525081526020016000151581525090508082602001819052506103e8826040019067ffffffffffffffff16908167ffffffffffffffff16815250506040518060600160405280602981526020016140fb602991398260000181905250611bb96040518060400160405280600781526020017f743031383231330000000000000000000000000000000000000000000000000081525083611ced565b5050565b6060819050919050565b6000650100000000004210611c08576040517f3d32ffdb00000000000000000000000000000000000000000000000000000000815260040160405180910390fd5b42905090565b50565b5050565b5050565b5050565b5050565b5050565b5050565b611c31612ff9565b60008067ffffffffffffffff811115611c4d57611c4c61359b565b5b6040519080825280601f01601f191660200182016040528015611c7f5781602001600182028036833780820191505090505b5090506000611c9663eff983fa8584600034611d20565b90506000611ca382611e5b565b9050611cad612ff9565b611cc08282611f4c90919063ffffffff16565b80945050505050919050565b5050565b5050565b5050565b5050565b5050565b611ce861305f565b919050565b6000611cf882611fff565b90506000611d0e635d9dfc2c8584607134611d20565b9050611d1981611e5b565b5050505050565b606060008073fe0000000000000000000000000000000000000373ffffffffffffffffffffffffffffffffffffffff1688856000888a8c604051602001611d6c9695949392919061399d565b604051602081830303815290604052604051611d889190613a48565b600060405180830381855af49150503d8060008114611dc3576040519150601f19603f3d011682016040523d82523d6000602084013e611dc8565b606091505b509150915060011515821515146040518060400160405280601181526020017f6163746f722063616c6c206661696c656400000000000000000000000000000081525090611e4c576040517f08c379a0000000000000000000000000000000000000000000000000000000008152600401611e439190613859565b60405180910390fd5b50809250505095945050505050565b6060600080600084806020019051810190611e769190613b62565b925092509250600067ffffffffffffffff168267ffffffffffffffff161480611eb35750607167ffffffffffffffff168267ffffffffffffffff16145b611ef2576040517f08c379a0000000000000000000000000000000000000000000000000000000008152600401611ee990613c1d565b60405180910390fd5b60008314611eff84612081565b90611f40576040517f08c379a0000000000000000000000000000000000000000000000000000000008152600401611f379190613859565b60405180910390fd5b50809350505050919050565b60006060611f6382846120eb90919063ffffffff16565b8093508192505050600081511115611f8b57611f7e81612295565b8460000181905250611ff9565b6040518060400160405280600067ffffffffffffffff811115611fb157611fb061359b565b5b6040519080825280601f01601f191660200182016040528015611fe35781602001600182028036833780820191505090505b5081526020016000151581525084600001819052505b50505050565b6060600061200d604061243c565b905061202360038261246390919063ffffffff16565b61203a83600001518261247390919063ffffffff16565b61205961204a846020015161249c565b8261247390919063ffffffff16565b6120708360400151826125f990919063ffffffff16565b61207981612609565b915050919050565b606060008212156120bb5761209582612662565b6040516020016120a59190613c9f565b60405160208183030381529060405290506120e6565b6120c482612662565b6040516020016120d49190613c9f565b60405160208183030381529060405290505b919050565b606060008060006120fc8686612730565b8167ffffffffffffffff169150809750819350829450505050600660ff168260ff1614806121305750600260ff168260ff16145b61213d5761213c613cc5565b5b600660ff168260ff1603612186576121558686612730565b8167ffffffffffffffff169150809750819350829450505050600260ff168260ff161461218557612184613cc5565b5b5b600081866121949190613d23565b905060008267ffffffffffffffff8111156121b2576121b161359b565b5b6040519080825280601f01601f1916602001820160405280156121e45781602001600182028036833780820191505090505b5090506000808890505b838110156122775789818151811061220957612208613d57565b5b602001015160f81c60f81b83838151811061222757612226613d57565b5b60200101907effffffffffffffffffffffffffffffffffffffffffffffffffffffffffffff1916908160001a905350818061226190613d86565b925050808061226f90613d86565b9150506121ee565b508184896122859190613d23565b9650965050505050509250929050565b61229d613012565b60008251036122db57604051806040016040528060405180604001604052806001815260200160008152508152602001600015158152509050612437565b6000600183516122eb9190613dce565b67ffffffffffffffff8111156123045761230361359b565b5b6040519080825280601f01601f1916602001820160405280156123365781602001600182028036833780820191505090505b5090506000600160f81b8460008151811061235457612353613d57565b5b602001015160f81c60f81b7effffffffffffffffffffffffffffffffffffffffffffffffffffffffffffff19160361238b57600190505b6000600190505b845181101561241a578481815181106123ae576123ad613d57565b5b602001015160f81c60f81b836001836123c79190613dce565b815181106123d8576123d7613d57565b5b60200101907effffffffffffffffffffffffffffffffffffffffffffffffffffffffffffff1916908160001a905350808061241290613d86565b915050612392565b506040518060400160405280838152602001821515815250925050505b919050565b6124446130f9565b6124528160000151836128be565b506000816020018181525050919050565b61246f82600483612937565b5050565b6124808260028351612947565b612497818360000151612af090919063ffffffff16565b505050565b6060600060018360000151516124b29190613d23565b67ffffffffffffffff8111156124cb576124ca61359b565b5b6040519080825280601f01601f1916602001820160405280156124fd5781602001600182028036833780820191505090505b50905082602001511561255357600160f81b8160008151811061252357612522613d57565b5b60200101907effffffffffffffffffffffffffffffffffffffffffffffffffffffffffffff1916908160001a9053505b60006001905060005b8460000151518110156125ee57846000015181815181106125805761257f613d57565b5b602001015160f81c60f81b83838151811061259e5761259d613d57565b5b60200101907effffffffffffffffffffffffffffffffffffffffffffffffffffffffffffff1916908160001a90535081806125d890613d86565b92505080806125e690613d86565b91505061255c565b508192505050919050565b61260582600083612947565b5050565b60606000826020015114612652576040517f08c379a000000000000000000000000000000000000000000000000000000000815260040161264990613e4e565b60405180910390fd5b8160000151600001519050919050565b60606000600161267184612b0c565b01905060008167ffffffffffffffff8111156126905761268f61359b565b5b6040519080825280601f01601f1916602001820160405280156126c25781602001600182028036833780820191505090505b509050600082602001820190505b600115612725578080600190039150507f3031323334353637383961626364656600000000000000000000000000000000600a86061a8153600a858161271957612718613e6e565b5b049450600085036126d0575b819350505050919050565b6000806000806127408686612c5f565b905060018561274f9190613d23565b94506000600560e0831660ff16901c90506000601f83169050601c8160ff161061277c5761277b613cc5565b5b60188160ff16101561279f578181888160ff1691509550955095505050506128b7565b60188160ff16036127f45760006127b68989612c5f565b90506001886127c59190613d23565b975060188160ff1610156127dc576127db613cc5565b5b8281898160ff169150965096509650505050506128b7565b60198160ff160361283557600061280b8989612cc6565b905060028861281a9190613d23565b97508281898161ffff169150965096509650505050506128b7565b601a8160ff160361287857600061284c8989612d2d565b905060048861285b9190613d23565b97508281898163ffffffff169150965096509650505050506128b7565b601b8160ff161461288c5761288b613cc5565b5b60006128988989612d94565b90506008886128a79190613d23565b9750828189965096509650505050505b9250925092565b6128c6613119565b60006020836128d59190613e9d565b14612901576020826128e79190613e9d565b60206128f39190613dce565b826128fe9190613d23565b91505b81836020018181525050604051808452600081528281016020018181101561292857600080fd5b80604052505082905092915050565b612942838383612947565b505050565b60178167ffffffffffffffff16116129825761297c8160058460ff16901b60ff16178460000151612dfb90919063ffffffff16565b50612aeb565b60ff8167ffffffffffffffff16116129e0576129b5601860058460ff16901b178460000151612dfb90919063ffffffff16565b506129da8167ffffffffffffffff1660018560000151612e659092919063ffffffff16565b50612aea565b61ffff8167ffffffffffffffff1611612a3f57612a14601960058460ff16901b178460000151612dfb90919063ffffffff16565b50612a398167ffffffffffffffff1660028560000151612e659092919063ffffffff16565b50612ae9565b63ffffffff8167ffffffffffffffff1611612aa057612a75601a60058460ff16901b178460000151612dfb90919063ffffffff16565b50612a9a8167ffffffffffffffff1660048560000151612e659092919063ffffffff16565b50612ae8565b612ac1601b60058460ff16901b178460000151612dfb90919063ffffffff16565b50612ae68167ffffffffffffffff1660088560000151612e659092919063ffffffff16565b505b5b5b5b505050565b612af8613119565b612b0483838451612ef2565b905092915050565b600080600090507a184f03e93ff9f4daa797ed6e38ed64bf6a1f0100000000000000008310612b6a577a184f03e93ff9f4daa797ed6e38ed64bf6a1f0100000000000000008381612b6057612b5f613e6e565b5b0492506040810190505b6d04ee2d6d415b85acef81000000008310612ba7576d04ee2d6d415b85acef81000000008381612b9d57612b9c613e6e565b5b0492506020810190505b662386f26fc100008310612bd657662386f26fc100008381612bcc57612bcb613e6e565b5b0492506010810190505b6305f5e1008310612bff576305f5e1008381612bf557612bf4613e6e565b5b0492506008810190505b6127108310612c24576127108381612c1a57612c19613e6e565b5b0492506004810190505b60648310612c475760648381612c3d57612c3c613e6e565b5b0492506002810190505b600a8310612c56576001810190505b80915050919050565b6000600182612c6e9190613d23565b83511015612cb1576040517f08c379a0000000000000000000000000000000000000000000000000000000008152600401612ca890613f1a565b60405180910390fd5b60008260010184015190508091505092915050565b6000600282612cd59190613d23565b83511015612d18576040517f08c379a0000000000000000000000000000000000000000000000000000000008152600401612d0f90613f1a565b60405180910390fd5b60008260020184015190508091505092915050565b6000600482612d3c9190613d23565b83511015612d7f576040517f08c379a0000000000000000000000000000000000000000000000000000000008152600401612d7690613f1a565b60405180910390fd5b60008260040184015190508091505092915050565b6000600882612da39190613d23565b83511015612de6576040517f08c379a0000000000000000000000000000000000000000000000000000000008152600401612ddd90613f1a565b60405180910390fd5b60008260080184015190508091505092915050565b612e03613119565b600083600001515190506000600182612e1c9190613d23565b905084602001518210612e4057612e3f85600283612e3a9190613f3a565b612fd5565b5b84516020838201018581538151831115612e58578282525b5050849250505092915050565b612e6d613119565b6000846000015151905060008184612e859190613d23565b90508560200151811115612eaa57612ea986600283612ea49190613f3a565b612fd5565b5b6000600185610100612ebc91906140af565b612ec69190613dce565b905086518281018783198251161781528151841115612ee3578382525b50508693505050509392505050565b612efa613119565b8251821115612f0857600080fd5b6000846000015151905060008382612f209190613d23565b90508560200151811115612f4557612f4486600283612f3f9190613f3a565b612fd5565b5b60008087518051856020830101935080851115612f60578482525b60208901925050505b60208610612fa75780518252602082612f829190613d23565b9150602081612f919190613d23565b9050602086612fa09190613dce565b9550612f69565b60006001876020036101000a0390508019825116818451168181178552505050879450505050509392505050565b600082600001519050612fe883836128be565b50612ff38382612af0565b50505050565b604051806020016040528061300c613012565b81525090565b6040518060400160405280606081526020016000151581525090565b604051806060016040528060608152602001613048613012565b8152602001600067ffffffffffffffff1681525090565b6040518060c00160405280600073ffffffffffffffffffffffffffffffffffffffff168152602001600063ffffffff16815260200160006fffffffffffffffffffffffffffffffff16815260200160006fffffffffffffffffffffffffffffffff16815260200160006fffffffffffffffffffffffffffffffff16815260200160006fffffffffffffffffffffffffffffffff1681525090565b604051806040016040528061310c613119565b8152602001600081525090565b604051806040016040528060608152602001600081525090565b600073ffffffffffffffffffffffffffffffffffffffff82169050919050565b600061315e82613133565b9050919050565b61316e81613153565b82525050565b60006020820190506131896000830184613165565b92915050565b6000604051905090565b600080fd5b600080fd5b6000819050919050565b6131b6816131a3565b81146131c157600080fd5b50565b6000813590506131d3816131ad565b92915050565b6000602082840312156131ef576131ee613199565b5b60006131fd848285016131c4565b91505092915050565b61320f81613153565b811461321a57600080fd5b50565b60008135905061322c81613206565b92915050565b60006020828403121561324857613247613199565b5b60006132568482850161321d565b91505092915050565b613268816131a3565b82525050565b6000602082019050613283600083018461325f565b92915050565b60006cffffffffffffffffffffffffff82169050919050565b6132ab81613289565b82525050565b600064ffffffffff82169050919050565b6132cb816132b1565b82525050565b600067ffffffffffffffff82169050919050565b6132ee816132d1565b82525050565b60006fffffffffffffffffffffffffffffffff82169050919050565b613319816132f4565b82525050565b600061010082019050613335600083018b6132a2565b613342602083018a6132a2565b61334f60408301896132c2565b61335c60608301886132e5565b61336960808301876132e5565b61337660a08301866132e5565b61338360c08301856132e5565b61339060e0830184613310565b9998505050505050505050565b600080604083850312156133b4576133b3613199565b5b60006133c28582860161321d565b92505060206133d38582860161321d565b9150509250929050565b600063ffffffff82169050919050565b6133f6816133dd565b82525050565b600060c0820190506134116000830189613165565b61341e60208301886133ed565b61342b6040830187613310565b6134386060830186613310565b6134456080830185613310565b61345260a0830184613310565b979650505050505050565b600081519050919050565b600082825260208201905092915050565b60005b8381101561349757808201518184015260208101905061347c565b60008484015250505050565b6000601f19601f8301169050919050565b60006134bf8261345d565b6134c98185613468565b93506134d9818560208601613479565b6134e2816134a3565b840191505092915050565b60008115159050919050565b613502816134ed565b82525050565b6000604083016000830151848203600086015261352582826134b4565b915050602083015161353a60208601826134f9565b508091505092915050565b600060208301600083015184820360008601526135628282613508565b9150508091505092915050565b600060208201905081810360008301526135898184613545565b905092915050565b600080fd5b600080fd5b7f4e487b7100000000000000000000000000000000000000000000000000000000600052604160045260246000fd5b6135d3826134a3565b810181811067ffffffffffffffff821117156135f2576135f161359b565b5b80604052505050565b600061360561318f565b905061361182826135ca565b919050565b600067ffffffffffffffff8211156136315761363061359b565b5b61363a826134a3565b9050602081019050919050565b82818337600083830152505050565b600061366961366484613616565b6135fb565b90508281526020810184848401111561368557613684613596565b5b613690848285613647565b509392505050565b600082601f8301126136ad576136ac613591565b5b81356136bd848260208601613656565b91505092915050565b6000602082840312156136dc576136db613199565b5b600082013567ffffffffffffffff8111156136fa576136f961319e565b5b61370684828501613698565b91505092915050565b6000604083016000830151848203600086015261372c82826134b4565b915050602083015161374160208601826134f9565b508091505092915050565b60006020820190508181036000830152613766818461370f565b905092915050565b613777816134ed565b82525050565b6000602082019050613792600083018461376e565b92915050565b6137a1816133dd565b81146137ac57600080fd5b50565b6000813590506137be81613798565b92915050565b600080604083850312156137db576137da613199565b5b60006137e98582860161321d565b92505060206137fa858286016137af565b9150509250929050565b600081519050919050565b600082825260208201905092915050565b600061382b82613804565b613835818561380f565b9350613845818560208601613479565b61384e816134a3565b840191505092915050565b600060208201905081810360008301526138738184613820565b905092915050565b7f6d696e6572206e6f742065786973740000000000000000000000000000000000600082015250565b60006138b1600f8361380f565b91506138bc8261387b565b602082019050919050565b600060208201905081810360008301526138e0816138a4565b9050919050565b7f6d696e657220616c726561647920657869737400000000000000000000000000600082015250565b600061391d60138361380f565b9150613928826138e7565b602082019050919050565b6000602082019050818103600083015261394c81613910565b9050919050565b600082825260208201905092915050565b600061396f8261345d565b6139798185613953565b9350613989818560208601613479565b613992816134a3565b840191505092915050565b600060c0820190506139b260008301896132e5565b6139bf602083018861325f565b6139cc60408301876132e5565b6139d960608301866132e5565b81810360808301526139eb8185613964565b905081810360a08301526139ff8184613964565b9050979650505050505050565b600081905092915050565b6000613a228261345d565b613a2c8185613a0c565b9350613a3c818560208601613479565b80840191505092915050565b6000613a548284613a17565b915081905092915050565b6000819050919050565b613a7281613a5f565b8114613a7d57600080fd5b50565b600081519050613a8f81613a69565b92915050565b613a9e816132d1565b8114613aa957600080fd5b50565b600081519050613abb81613a95565b92915050565b600067ffffffffffffffff821115613adc57613adb61359b565b5b613ae5826134a3565b9050602081019050919050565b6000613b05613b0084613ac1565b6135fb565b905082815260208101848484011115613b2157613b20613596565b5b613b2c848285613479565b509392505050565b600082601f830112613b4957613b48613591565b5b8151613b59848260208601613af2565b91505092915050565b600080600060608486031215613b7b57613b7a613199565b5b6000613b8986828701613a80565b9350506020613b9a86828701613aac565b925050604084015167ffffffffffffffff811115613bbb57613bba61319e565b5b613bc786828701613b34565b9150509250925092565b7f726573706f6e736520636f646563206e6f7420737570706f7274656400000000600082015250565b6000613c07601c8361380f565b9150613c1282613bd1565b602082019050919050565b60006020820190508181036000830152613c3681613bfa565b9050919050565b7f6163746f72206572726f7220636f6465202d0000000000000000000000000000815250565b600081905092915050565b6000613c7982613804565b613c838185613c63565b9350613c93818560208601613479565b80840191505092915050565b6000613caa82613c3d565b601282019150613cba8284613c6e565b915081905092915050565b7f4e487b7100000000000000000000000000000000000000000000000000000000600052600160045260246000fd5b7f4e487b7100000000000000000000000000000000000000000000000000000000600052601160045260246000fd5b6000613d2e826131a3565b9150613d39836131a3565b9250828201905080821115613d5157613d50613cf4565b5b92915050565b7f4e487b7100000000000000000000000000000000000000000000000000000000600052603260045260246000fd5b6000613d91826131a3565b91507fffffffffffffffffffffffffffffffffffffffffffffffffffffffffffffffff8203613dc357613dc2613cf4565b5b600182019050919050565b6000613dd9826131a3565b9150613de4836131a3565b9250828203905081811115613dfc57613dfb613cf4565b5b92915050565b7f496e76616c69642043424f520000000000000000000000000000000000000000600082015250565b6000613e38600c8361380f565b9150613e4382613e02565b602082019050919050565b60006020820190508181036000830152613e6781613e2b565b9050919050565b7f4e487b7100000000000000000000000000000000000000000000000000000000600052601260045260246000fd5b6000613ea8826131a3565b9150613eb3836131a3565b925082613ec357613ec2613e6e565b5b828206905092915050565b7f736c6963696e67206f7574206f662072616e6765000000000000000000000000600082015250565b6000613f0460148361380f565b9150613f0f82613ece565b602082019050919050565b60006020820190508181036000830152613f3381613ef7565b9050919050565b6000613f45826131a3565b9150613f50836131a3565b9250828202613f5e816131a3565b91508282048414831517613f7557613f74613cf4565b5b5092915050565b60008160011c9050919050565b6000808291508390505b6001851115613fd357808604811115613faf57613fae613cf4565b5b6001851615613fbe5780820291505b8081029050613fcc85613f7c565b9450613f93565b94509492505050565b600082613fec57600190506140a8565b81613ffa57600090506140a8565b8160018114614010576002811461401a57614049565b60019150506140a8565b60ff84111561402c5761402b613cf4565b5b8360020a91508482111561404357614042613cf4565b5b506140a8565b5060208310610133831016604e8410600b841016171561407e5782820a90508381111561407957614078613cf4565b5b6140a8565b61408b8484846001613f89565b925090508184048111156140a2576140a1613cf4565b5b81810290505b9392505050565b60006140ba826131a3565b91506140c5836131a3565b92506140f27fffffffffffffffffffffffffffffffffffffffffffffffffffffffffffffffff8484613fdc565b90509291505056fe3078343743436262314436373642343436346331394335633538646561413530624134363843363942a2646970667358221220893786e5cc507026f0aaef2f4cbd5893205b31b7d01e750d2a2be1feba0a792364736f6c63430008110033",
  "devdoc": {
    "kind": "dev",
    "methods": {},
    "version": 1
  },
  "userdoc": {
    "kind": "user",
    "methods": {
      "TotalBorrow()": {
        "notice": "Get the total amount of borrow*"
      },
      "TotalPledge()": {
        "notice": "Get the total amount of pledge*"
      },
      "TotalSupply()": {
        "notice": "Get the total amount of supply*"
      },
      "borrow(uint256)": {
        "notice": "Borrow FIL from the contract"
      },
      "borrowBalanceOf(address)": {
        "notice": "Get the total amount of borrow*"
      },
      "changeBeneficiary()": {
        "notice": "Call the miner's change beneficiary method"
      },
      "changePledgeScale(address,uint32)": {
        "notice": "change pledge miner  scale to the contract,This operation will  affect the miner's loanable balance and the entire user's loanable balance"
      },
      "getAvailableBalance()": {
        "notice": "Get the current miner available balance"
      },
      "getAvailableBalance(string)": {
        "notice": "Get the current miner available balance"
      },
      "initializeStorage()": {
        "notice": "Initialize the market"
      },
      "interestWithdraw(uint256)": {
        "notice": "withdraw accrued  to wallet"
      },
      "pledge(address)": {
        "notice": "pledge miner to the contract"
      },
      "pledgeBalanceOf(address)": {
        "notice": "Get the total amount of pledge*"
      },
      "repay(uint256)": {
        "notice": "Repay FIL to the contract"
      },
      "setBaseBorrowInterestRate(uint256)": {
        "notice": "set the base borrow interest rate*"
      },
      "setBaseSupplyInterestRate(uint256)": {
        "notice": "set the base supply interest rate*"
      },
      "supply(uint256)": {
        "notice": "Deposit funds into the contract to provide liquidity and obtain income."
      },
      "supplyBalanceOf(address)": {
        "notice": "Get the total amount of supply*"
      },
      "totalBorrowInterestOf(address)": {
        "notice": "Get the total amount of borrow interest*"
      },
      "totalSupplyInterestOf(address)": {
        "notice": "Get the total amount of supply interest*"
      },
      "unClaimBorrowInterestOf(address)": {
        "notice": "Get the rePay amount of borrow interest*"
      },
      "unClaimSupplyInterestOf(address)": {
        "notice": "Get the  unClaim amount of supply interest*"
      },
      "unpledge(address)": {
        "notice": "unpledge miner from the contract"
      },
      "withdraw(uint256)": {
        "notice": "Transfer tokens out of the market"
      }
    },
    "version": 1
  },
  "storageLayout": {
    "storage": [
      {
        "astId": 6797,
        "contract": "contracts/Filfi.sol:Filfi",
        "label": "governor",
        "offset": 0,
        "slot": "0",
        "type": "t_address"
      },
      {
        "astId": 6799,
        "contract": "contracts/Filfi.sol:Filfi",
        "label": "pauseGuardian",
        "offset": 0,
        "slot": "1",
        "type": "t_address"
      },
      {
        "astId": 6801,
        "contract": "contracts/Filfi.sol:Filfi",
        "label": "baseToken",
        "offset": 0,
        "slot": "2",
        "type": "t_address"
      },
      {
        "astId": 6833,
        "contract": "contracts/Filfi.sol:Filfi",
        "label": "baseBorrowInterestRate",
        "offset": 20,
        "slot": "2",
        "type": "t_uint64"
      },
      {
        "astId": 6835,
        "contract": "contracts/Filfi.sol:Filfi",
        "label": "baseSupplyInterestRate",
        "offset": 0,
        "slot": "3",
        "type": "t_uint64"
      },
      {
        "astId": 6837,
        "contract": "contracts/Filfi.sol:Filfi",
        "label": "totalSupply",
        "offset": 8,
        "slot": "3",
        "type": "t_uint128"
      },
      {
        "astId": 6839,
        "contract": "contracts/Filfi.sol:Filfi",
        "label": "totalBorrow",
        "offset": 0,
        "slot": "4",
        "type": "t_uint128"
      },
      {
        "astId": 6841,
        "contract": "contracts/Filfi.sol:Filfi",
        "label": "totalPledged",
        "offset": 16,
        "slot": "4",
        "type": "t_uint128"
      },
      {
        "astId": 6843,
        "contract": "contracts/Filfi.sol:Filfi",
        "label": "liquidateCollateralFactor",
        "offset": 0,
        "slot": "5",
        "type": "t_uint64"
      },
      {
        "astId": 6845,
        "contract": "contracts/Filfi.sol:Filfi",
        "label": "lastAccrualTime",
        "offset": 8,
        "slot": "5",
        "type": "t_uint40"
      },
      {
        "astId": 6851,
        "contract": "contracts/Filfi.sol:Filfi",
        "label": "isAllowed",
        "offset": 0,
        "slot": "6",
        "type": "t_mapping(t_address,t_mapping(t_address,t_bool))"
      },
      {
        "astId": 6856,
        "contract": "contracts/Filfi.sol:Filfi",
        "label": "userAccounts",
        "offset": 0,
        "slot": "7",
        "type": "t_mapping(t_address,t_struct(UserAccount)6831_storage)"
      },
      {
        "astId": 6863,
        "contract": "contracts/Filfi.sol:Filfi",
        "label": "nodeAssets",
        "offset": 0,
        "slot": "8",
        "type": "t_mapping(t_address,t_mapping(t_address,t_struct(NodeAsset)6814_storage))"
      }
    ],
    "types": {
      "t_address": {
        "encoding": "inplace",
        "label": "address",
        "numberOfBytes": "20"
      },
      "t_bool": {
        "encoding": "inplace",
        "label": "bool",
        "numberOfBytes": "1"
      },
      "t_mapping(t_address,t_bool)": {
        "encoding": "mapping",
        "key": "t_address",
        "label": "mapping(address => bool)",
        "numberOfBytes": "32",
        "value": "t_bool"
      },
      "t_mapping(t_address,t_mapping(t_address,t_bool))": {
        "encoding": "mapping",
        "key": "t_address",
        "label": "mapping(address => mapping(address => bool))",
        "numberOfBytes": "32",
        "value": "t_mapping(t_address,t_bool)"
      },
      "t_mapping(t_address,t_mapping(t_address,t_struct(NodeAsset)6814_storage))": {
        "encoding": "mapping",
        "key": "t_address",
        "label": "mapping(address => mapping(address => struct FilfiStorage.NodeAsset))",
        "numberOfBytes": "32",
        "value": "t_mapping(t_address,t_struct(NodeAsset)6814_storage)"
      },
      "t_mapping(t_address,t_struct(NodeAsset)6814_storage)": {
        "encoding": "mapping",
        "key": "t_address",
        "label": "mapping(address => struct FilfiStorage.NodeAsset)",
        "numberOfBytes": "32",
        "value": "t_struct(NodeAsset)6814_storage"
      },
      "t_mapping(t_address,t_struct(UserAccount)6831_storage)": {
        "encoding": "mapping",
        "key": "t_address",
        "label": "mapping(address => struct FilfiStorage.UserAccount)",
        "numberOfBytes": "32",
        "value": "t_struct(UserAccount)6831_storage"
      },
      "t_struct(NodeAsset)6814_storage": {
        "encoding": "inplace",
        "label": "struct FilfiStorage.NodeAsset",
        "members": [
          {
            "astId": 6803,
            "contract": "contracts/Filfi.sol:Filfi",
            "label": "miner",
            "offset": 0,
            "slot": "0",
            "type": "t_address"
          },
          {
            "astId": 6805,
            "contract": "contracts/Filfi.sol:Filfi",
            "label": "pledgeScale",
            "offset": 20,
            "slot": "0",
            "type": "t_uint32"
          },
          {
            "astId": 6807,
            "contract": "contracts/Filfi.sol:Filfi",
            "label": "pledgedAmt",
            "offset": 0,
            "slot": "1",
            "type": "t_uint128"
          },
          {
            "astId": 6809,
            "contract": "contracts/Filfi.sol:Filfi",
            "label": "balance",
            "offset": 16,
            "slot": "1",
            "type": "t_uint128"
          },
          {
            "astId": 6811,
            "contract": "contracts/Filfi.sol:Filfi",
            "label": "canBorrowedBalance",
            "offset": 0,
            "slot": "2",
            "type": "t_uint128"
          },
          {
            "astId": 6813,
            "contract": "contracts/Filfi.sol:Filfi",
            "label": "beneficiaryWithdrawnAmt",
            "offset": 16,
            "slot": "2",
            "type": "t_uint128"
          }
        ],
        "numberOfBytes": "96"
      },
      "t_struct(UserAccount)6831_storage": {
        "encoding": "inplace",
        "label": "struct FilfiStorage.UserAccount",
        "members": [
          {
            "astId": 6816,
            "contract": "contracts/Filfi.sol:Filfi",
            "label": "supplyBalance",
            "offset": 0,
            "slot": "0",
            "type": "t_uint104"
          },
          {
            "astId": 6818,
            "contract": "contracts/Filfi.sol:Filfi",
            "label": "borrowBalance",
            "offset": 13,
            "slot": "0",
            "type": "t_uint104"
          },
          {
            "astId": 6820,
            "contract": "contracts/Filfi.sol:Filfi",
            "label": "lastAccrualTime",
            "offset": 26,
            "slot": "0",
            "type": "t_uint40"
          },
          {
            "astId": 6822,
            "contract": "contracts/Filfi.sol:Filfi",
            "label": "supplyTotalInterest",
            "offset": 0,
            "slot": "1",
            "type": "t_uint64"
          },
          {
            "astId": 6824,
            "contract": "contracts/Filfi.sol:Filfi",
            "label": "unClaimSupplyInterest",
            "offset": 8,
            "slot": "1",
            "type": "t_uint64"
          },
          {
            "astId": 6826,
            "contract": "contracts/Filfi.sol:Filfi",
            "label": "borrowTotalInterest",
            "offset": 16,
            "slot": "1",
            "type": "t_uint64"
          },
          {
            "astId": 6828,
            "contract": "contracts/Filfi.sol:Filfi",
            "label": "unClaimBorrowInterest",
            "offset": 24,
            "slot": "1",
            "type": "t_uint64"
          },
          {
            "astId": 6830,
            "contract": "contracts/Filfi.sol:Filfi",
            "label": "canBorrowedBalance",
            "offset": 0,
            "slot": "2",
            "type": "t_uint128"
          }
        ],
        "numberOfBytes": "96"
      },
      "t_uint104": {
        "encoding": "inplace",
        "label": "uint104",
        "numberOfBytes": "13"
      },
      "t_uint128": {
        "encoding": "inplace",
        "label": "uint128",
        "numberOfBytes": "16"
      },
      "t_uint32": {
        "encoding": "inplace",
        "label": "uint32",
        "numberOfBytes": "4"
      },
      "t_uint40": {
        "encoding": "inplace",
        "label": "uint40",
        "numberOfBytes": "5"
      },
      "t_uint64": {
        "encoding": "inplace",
        "label": "uint64",
        "numberOfBytes": "8"
      }
    }
  }
}