{
  "address": "0x4247b30a4795c3F215274d2eE5666830E8f4f548",
  "abi": [
    {
      "inputs": [],
      "stateMutability": "nonpayable",
      "type": "constructor"
    },
    {
      "inputs": [],
      "name": "AlreadyInitialized",
      "type": "error"
    },
    {
      "inputs": [],
      "name": "ChangeBeneficiaryFailed",
      "type": "error"
    },
    {
      "inputs": [],
      "name": "InvalidInt104",
      "type": "error"
    },
    {
      "inputs": [],
      "name": "InvalidInt256",
      "type": "error"
    },
    {
      "inputs": [],
      "name": "InvalidUInt104",
      "type": "error"
    },
    {
      "inputs": [],
      "name": "InvalidUInt128",
      "type": "error"
    },
    {
      "inputs": [],
      "name": "InvalidUInt64",
      "type": "error"
    },
    {
      "inputs": [],
      "name": "NegativeNumber",
      "type": "error"
    },
    {
      "inputs": [],
      "name": "TimestampTooLarge",
      "type": "error"
    },
    {
      "inputs": [],
      "name": "TransferInFailed",
      "type": "error"
    },
    {
      "inputs": [],
      "name": "TransferOutFailed",
      "type": "error"
    },
    {
      "inputs": [],
      "name": "Unauthorized",
      "type": "error"
    },
    {
      "anonymous": false,
      "inputs": [
        {
          "indexed": true,
          "internalType": "address",
          "name": "dst",
          "type": "address"
        },
        {
          "indexed": false,
          "internalType": "uint256",
          "name": "amount",
          "type": "uint256"
        }
      ],
      "name": "Borrow",
      "type": "event"
    },
    {
      "anonymous": false,
      "inputs": [
        {
          "indexed": true,
          "internalType": "address",
          "name": "miner",
          "type": "address"
        },
        {
          "indexed": false,
          "internalType": "uint64",
          "name": "scale",
          "type": "uint64"
        }
      ],
      "name": "ChangePledgeScale",
      "type": "event"
    },
    {
      "anonymous": false,
      "inputs": [
        {
          "indexed": true,
          "internalType": "address",
          "name": "to",
          "type": "address"
        },
        {
          "indexed": false,
          "internalType": "uint256",
          "name": "amount",
          "type": "uint256"
        }
      ],
      "name": "InterestWithdraw",
      "type": "event"
    },
    {
      "anonymous": false,
      "inputs": [
        {
          "components": [
            {
              "internalType": "bytes",
              "name": "val",
              "type": "bytes"
            },
            {
              "internalType": "bool",
              "name": "neg",
              "type": "bool"
            }
          ],
          "indexed": false,
          "internalType": "struct BigInt",
          "name": "msg",
          "type": "tuple"
        }
      ],
      "name": "Logger",
      "type": "event"
    },
    {
      "anonymous": false,
      "inputs": [
        {
          "indexed": true,
          "internalType": "address",
          "name": "src",
          "type": "address"
        },
        {
          "indexed": true,
          "internalType": "address",
          "name": "dst",
          "type": "address"
        },
        {
          "indexed": true,
          "internalType": "address",
          "name": "miner",
          "type": "address"
        }
      ],
      "name": "Pledge",
      "type": "event"
    },
    {
      "anonymous": false,
      "inputs": [
        {
          "indexed": true,
          "internalType": "address",
          "name": "src",
          "type": "address"
        },
        {
          "indexed": false,
          "internalType": "uint256",
          "name": "amount",
          "type": "uint256"
        }
      ],
      "name": "Repay",
      "type": "event"
    },
    {
      "anonymous": false,
      "inputs": [
        {
          "indexed": true,
          "internalType": "address",
          "name": "from",
          "type": "address"
        },
        {
          "indexed": true,
          "internalType": "address",
          "name": "dst",
          "type": "address"
        },
        {
          "indexed": false,
          "internalType": "uint256",
          "name": "amount",
          "type": "uint256"
        }
      ],
      "name": "Supply",
      "type": "event"
    },
    {
      "anonymous": false,
      "inputs": [
        {
          "indexed": true,
          "internalType": "address",
          "name": "src",
          "type": "address"
        },
        {
          "indexed": true,
          "internalType": "address",
          "name": "dst",
          "type": "address"
        },
        {
          "indexed": true,
          "internalType": "address",
          "name": "miner",
          "type": "address"
        }
      ],
      "name": "Unpledge",
      "type": "event"
    },
    {
      "anonymous": false,
      "inputs": [
        {
          "indexed": true,
          "internalType": "address",
          "name": "src",
          "type": "address"
        },
        {
          "indexed": true,
          "internalType": "address",
          "name": "to",
          "type": "address"
        },
        {
          "indexed": false,
          "internalType": "uint256",
          "name": "amount",
          "type": "uint256"
        }
      ],
      "name": "Withdraw",
      "type": "event"
    },
    {
      "stateMutability": "payable",
      "type": "fallback"
    },
    {
      "inputs": [],
      "name": "TotalBorrow",
      "outputs": [
        {
          "internalType": "uint256",
          "name": "",
          "type": "uint256"
        }
      ],
      "stateMutability": "view",
      "type": "function"
    },
    {
      "inputs": [],
      "name": "TotalPledge",
      "outputs": [
        {
          "internalType": "uint256",
          "name": "",
          "type": "uint256"
        }
      ],
      "stateMutability": "view",
      "type": "function"
    },
    {
      "inputs": [],
      "name": "TotalSupply",
      "outputs": [
        {
          "internalType": "uint256",
          "name": "",
          "type": "uint256"
        }
      ],
      "stateMutability": "view",
      "type": "function"
    },
    {
      "inputs": [],
      "name": "baseToken",
      "outputs": [
        {
          "internalType": "address",
          "name": "",
          "type": "address"
        }
      ],
      "stateMutability": "view",
      "type": "function"
    },
    {
      "inputs": [
        {
          "internalType": "uint256",
          "name": "amount",
          "type": "uint256"
        }
      ],
      "name": "borrow",
      "outputs": [],
      "stateMutability": "nonpayable",
      "type": "function"
    },
    {
      "inputs": [
        {
          "internalType": "address",
          "name": "owner",
          "type": "address"
        }
      ],
      "name": "borrowBalanceOf",
      "outputs": [
        {
          "internalType": "uint256",
          "name": "",
          "type": "uint256"
        }
      ],
      "stateMutability": "view",
      "type": "function"
    },
    {
      "inputs": [],
      "name": "changeBeneficiary",
      "outputs": [],
      "stateMutability": "nonpayable",
      "type": "function"
    },
    {
      "inputs": [
        {
          "internalType": "address",
          "name": "miner",
          "type": "address"
        },
        {
          "internalType": "uint32",
          "name": "scale",
          "type": "uint32"
        }
      ],
      "name": "changePledgeScale",
      "outputs": [],
      "stateMutability": "nonpayable",
      "type": "function"
    },
    {
      "inputs": [],
      "name": "getAvailableBalance",
      "outputs": [
        {
          "components": [
            {
              "components": [
                {
                  "internalType": "bytes",
                  "name": "val",
                  "type": "bytes"
                },
                {
                  "internalType": "bool",
                  "name": "neg",
                  "type": "bool"
                }
              ],
              "internalType": "struct BigInt",
              "name": "available_balance",
              "type": "tuple"
            }
          ],
          "internalType": "struct MinerTypes.GetAvailableBalanceReturn",
          "name": "",
          "type": "tuple"
        }
      ],
      "stateMutability": "nonpayable",
      "type": "function"
    },
    {
      "inputs": [
        {
          "internalType": "string",
          "name": "target",
          "type": "string"
        }
      ],
      "name": "getAvailableBalance",
      "outputs": [
        {
          "components": [
            {
              "internalType": "bytes",
              "name": "val",
              "type": "bytes"
            },
            {
              "internalType": "bool",
              "name": "neg",
              "type": "bool"
            }
          ],
          "internalType": "struct BigInt",
          "name": "",
          "type": "tuple"
        }
      ],
      "stateMutability": "nonpayable",
      "type": "function"
    },
    {
      "inputs": [],
      "name": "governor",
      "outputs": [
        {
          "internalType": "address",
          "name": "",
          "type": "address"
        }
      ],
      "stateMutability": "view",
      "type": "function"
    },
    {
      "inputs": [
        {
          "internalType": "address",
          "name": "owner",
          "type": "address"
        },
        {
          "internalType": "address",
          "name": "manager",
          "type": "address"
        }
      ],
      "name": "hasPermission",
      "outputs": [
        {
          "internalType": "bool",
          "name": "",
          "type": "bool"
        }
      ],
      "stateMutability": "view",
      "type": "function"
    },
    {
      "inputs": [],
      "name": "initializeStorage",
      "outputs": [],
      "stateMutability": "nonpayable",
      "type": "function"
    },
    {
      "inputs": [
        {
          "internalType": "uint256",
          "name": "amount",
          "type": "uint256"
        }
      ],
      "name": "interestWithdraw",
      "outputs": [],
      "stateMutability": "nonpayable",
      "type": "function"
    },
    {
      "inputs": [
        {
          "internalType": "address",
          "name": "",
          "type": "address"
        },
        {
          "internalType": "address",
          "name": "",
          "type": "address"
        }
      ],
      "name": "isAllowed",
      "outputs": [
        {
          "internalType": "bool",
          "name": "",
          "type": "bool"
        }
      ],
      "stateMutability": "view",
      "type": "function"
    },
    {
      "inputs": [
        {
          "internalType": "address",
          "name": "",
          "type": "address"
        },
        {
          "internalType": "address",
          "name": "",
          "type": "address"
        }
      ],
      "name": "nodeAssets",
      "outputs": [
        {
          "internalType": "address",
          "name": "miner",
          "type": "address"
        },
        {
          "internalType": "uint32",
          "name": "pledgeScale",
          "type": "uint32"
        },
        {
          "internalType": "uint128",
          "name": "pledgedAmt",
          "type": "uint128"
        },
        {
          "internalType": "uint128",
          "name": "balance",
          "type": "uint128"
        },
        {
          "internalType": "uint128",
          "name": "canBorrowedBalance",
          "type": "uint128"
        },
        {
          "internalType": "uint128",
          "name": "beneficiaryWithdrawnAmt",
          "type": "uint128"
        }
      ],
      "stateMutability": "view",
      "type": "function"
    },
    {
      "inputs": [],
      "name": "pauseGuardian",
      "outputs": [
        {
          "internalType": "address",
          "name": "",
          "type": "address"
        }
      ],
      "stateMutability": "view",
      "type": "function"
    },
    {
      "inputs": [
        {
          "internalType": "address",
          "name": "miner",
          "type": "address"
        },
        {
          "internalType": "uint256",
          "name": "amount",
          "type": "uint256"
        }
      ],
      "name": "pledge",
      "outputs": [],
      "stateMutability": "nonpayable",
      "type": "function"
    },
    {
      "inputs": [
        {
          "internalType": "address",
          "name": "owner",
          "type": "address"
        }
      ],
      "name": "pledgeBalanceOf",
      "outputs": [
        {
          "internalType": "uint256",
          "name": "",
          "type": "uint256"
        }
      ],
      "stateMutability": "view",
      "type": "function"
    },
    {
      "inputs": [
        {
          "internalType": "uint256",
          "name": "amount",
          "type": "uint256"
        }
      ],
      "name": "repay",
      "outputs": [],
      "stateMutability": "nonpayable",
      "type": "function"
    },
    {
      "inputs": [
        {
          "internalType": "uint256",
          "name": "baseBorrowInterestRate_",
          "type": "uint256"
        }
      ],
      "name": "setBaseBorrowInterestRate",
      "outputs": [],
      "stateMutability": "nonpayable",
      "type": "function"
    },
    {
      "inputs": [
        {
          "internalType": "uint256",
          "name": "baseSupplyInterestRate_",
          "type": "uint256"
        }
      ],
      "name": "setBaseSupplyInterestRate",
      "outputs": [],
      "stateMutability": "nonpayable",
      "type": "function"
    },
    {
      "inputs": [
        {
          "internalType": "uint256",
          "name": "liquidityRate_",
          "type": "uint256"
        }
      ],
      "name": "setLiquidateCollateralFactor",
      "outputs": [],
      "stateMutability": "nonpayable",
      "type": "function"
    },
    {
      "inputs": [
        {
          "internalType": "uint256",
          "name": "amount",
          "type": "uint256"
        }
      ],
      "name": "supply",
      "outputs": [],
      "stateMutability": "nonpayable",
      "type": "function"
    },
    {
      "inputs": [
        {
          "internalType": "address",
          "name": "owner",
          "type": "address"
        }
      ],
      "name": "supplyBalanceOf",
      "outputs": [
        {
          "internalType": "uint256",
          "name": "",
          "type": "uint256"
        }
      ],
      "stateMutability": "view",
      "type": "function"
    },
    {
      "inputs": [
        {
          "internalType": "string",
          "name": "tmp",
          "type": "string"
        }
      ],
      "name": "test",
      "outputs": [
        {
          "internalType": "string",
          "name": "",
          "type": "string"
        }
      ],
      "stateMutability": "pure",
      "type": "function"
    },
    {
      "inputs": [
        {
          "internalType": "address",
          "name": "owner",
          "type": "address"
        }
      ],
      "name": "totalBorrowInterestOf",
      "outputs": [
        {
          "internalType": "uint256",
          "name": "",
          "type": "uint256"
        }
      ],
      "stateMutability": "view",
      "type": "function"
    },
    {
      "inputs": [
        {
          "internalType": "address",
          "name": "owner",
          "type": "address"
        }
      ],
      "name": "totalSupplyInterestOf",
      "outputs": [
        {
          "internalType": "uint256",
          "name": "",
          "type": "uint256"
        }
      ],
      "stateMutability": "view",
      "type": "function"
    },
    {
      "inputs": [
        {
          "internalType": "address",
          "name": "owner",
          "type": "address"
        }
      ],
      "name": "unClaimBorrowInterestOf",
      "outputs": [
        {
          "internalType": "uint256",
          "name": "",
          "type": "uint256"
        }
      ],
      "stateMutability": "view",
      "type": "function"
    },
    {
      "inputs": [
        {
          "internalType": "address",
          "name": "owner",
          "type": "address"
        }
      ],
      "name": "unClaimSupplyInterestOf",
      "outputs": [
        {
          "internalType": "uint256",
          "name": "",
          "type": "uint256"
        }
      ],
      "stateMutability": "view",
      "type": "function"
    },
    {
      "inputs": [
        {
          "internalType": "address",
          "name": "miner",
          "type": "address"
        }
      ],
      "name": "unpledge",
      "outputs": [],
      "stateMutability": "nonpayable",
      "type": "function"
    },
    {
      "inputs": [
        {
          "internalType": "address",
          "name": "",
          "type": "address"
        }
      ],
      "name": "userAccounts",
      "outputs": [
        {
          "internalType": "uint104",
          "name": "supplyBalance",
          "type": "uint104"
        },
        {
          "internalType": "uint104",
          "name": "borrowBalance",
          "type": "uint104"
        },
        {
          "internalType": "uint40",
          "name": "lastAccrualTime",
          "type": "uint40"
        },
        {
          "internalType": "uint64",
          "name": "supplyTotalInterest",
          "type": "uint64"
        },
        {
          "internalType": "uint64",
          "name": "unClaimSupplyInterest",
          "type": "uint64"
        },
        {
          "internalType": "uint64",
          "name": "borrowTotalInterest",
          "type": "uint64"
        },
        {
          "internalType": "uint64",
          "name": "unClaimBorrowInterest",
          "type": "uint64"
        },
        {
          "internalType": "uint128",
          "name": "canBorrowedBalance",
          "type": "uint128"
        }
      ],
      "stateMutability": "view",
      "type": "function"
    },
    {
      "inputs": [
        {
          "internalType": "uint256",
          "name": "amount",
          "type": "uint256"
        }
      ],
      "name": "withdraw",
      "outputs": [],
      "stateMutability": "nonpayable",
      "type": "function"
    },
    {
      "stateMutability": "payable",
      "type": "receive"
    }
  ],
  "transactionHash": "0xf1d9e67933ccdafef6b2ce7fba4c3f19d38c7f9dd87a35a5d50a16650035bd07",
  "args": [],
  "numDeployments": 8,
  "solcInputHash": "23721561e4202e98c5f8065c918e6d07",
  "bytecode": "0x60806040523480156200001157600080fd5b50306000806101000a81548173ffffffffffffffffffffffffffffffffffffffff021916908373ffffffffffffffffffffffffffffffffffffffff16021790555030600160006101000a81548173ffffffffffffffffffffffffffffffffffffffff021916908373ffffffffffffffffffffffffffffffffffffffff16021790555030600260006101000a81548173ffffffffffffffffffffffffffffffffffffffff021916908373ffffffffffffffffffffffffffffffffffffffff1602179055506301e13380662386f26fc100006007620000ef9190620001f9565b620000fb91906200026e565b600260146101000a81548167ffffffffffffffff021916908367ffffffffffffffff1602179055506301e13380662386f26fc1000060036200013e9190620001f9565b6200014a91906200026e565b600360006101000a81548167ffffffffffffffff021916908367ffffffffffffffff160217905550662386f26fc100006050620001889190620001f9565b600560006101000a81548167ffffffffffffffff021916908367ffffffffffffffff160217905550620002a6565b600067ffffffffffffffff82169050919050565b7f4e487b7100000000000000000000000000000000000000000000000000000000600052601160045260246000fd5b60006200020682620001b6565b91506200021383620001b6565b92508282026200022381620001b6565b9150808214620002385762000237620001ca565b5b5092915050565b7f4e487b7100000000000000000000000000000000000000000000000000000000600052601260045260246000fd5b60006200027b82620001b6565b91506200028883620001b6565b9250826200029b576200029a6200023f565b5b828204905092915050565b6141a580620002b66000396000f3fe6080604052600436106101f25760003560e01c80637ca98acf1161010d578063b34e9be6116100a0578063c5ebeaec1161006f578063c5ebeaec1461075b578063cde6804114610784578063da4c10c8146107c1578063f6f6217d146107ea578063f9fbd55414610801576101f9565b8063b34e9be61461069f578063b6bd21c9146106c8578063c2b31f38146106f3578063c55dae6314610730576101f9565b806393889f06116100dc57806393889f06146105d1578063a16543791461060e578063a44b47f71461064b578063a752ca4214610676576101f9565b80637ca98acf146104ea578063809dab6a1461052c578063836f2105146105575780638a594f5014610594576101f9565b80633cb0c0ab1161018557806365a700a81161015457806365a700a81461043057806365a8e4f01461045b578063743b345214610498578063782f8918146104c1576101f9565b80633cb0c0ab1461035d5780635251d91c1461038657806358363150146103ca5780635a67e239146103f3576101f9565b806335403023116101c15780633540302314610291578063371fd8e6146102ba578063374c49b4146102e35780633a485e5014610320576101f9565b80630c340a24146101fb5780631c9f7fb91461022657806324a3d6221461023d5780632e1a7d4d14610268576101f9565b366101f957005b005b34801561020757600080fd5b5061021061083e565b60405161021d919061317f565b60405180910390f35b34801561023257600080fd5b5061023b610862565b005b34801561024957600080fd5b506102526108e2565b60405161025f919061317f565b60405180910390f35b34801561027457600080fd5b5061028f600480360381019061028a91906131e4565b610908565b005b34801561029d57600080fd5b506102b860048036038101906102b391906131e4565b610997565b005b3480156102c657600080fd5b506102e160048036038101906102dc91906131e4565b610a26565b005b3480156102ef57600080fd5b5061030a6004803603810190610305919061323d565b610a9e565b6040516103179190613279565b60405180910390f35b34801561032c57600080fd5b506103476004803603810190610342919061323d565b610b17565b6040516103549190613279565b60405180910390f35b34801561036957600080fd5b50610384600480360381019061037f91906131e4565b610b86565b005b34801561039257600080fd5b506103ad60048036038101906103a8919061323d565b610bb2565b6040516103c198979695949392919061332a565b60405180910390f35b3480156103d657600080fd5b506103f160048036038101906103ec91906131e4565b610ca9565b005b3480156103ff57600080fd5b5061041a6004803603810190610415919061323d565b610d21565b6040516104279190613279565b60405180910390f35b34801561043c57600080fd5b50610445610da0565b6040516104529190613279565b60405180910390f35b34801561046757600080fd5b50610482600480360381019061047d919061323d565b610dd8565b60405161048f9190613279565b60405180910390f35b3480156104a457600080fd5b506104bf60048036038101906104ba91906133a8565b610e47565b005b3480156104cd57600080fd5b506104e860048036038101906104e391906131e4565b6111ac565b005b3480156104f657600080fd5b50610511600480360381019061050c91906133e8565b6111d8565b60405161052396959493929190613447565b60405180910390f35b34801561053857600080fd5b506105416112c1565b60405161054e91906135ba565b60405180910390f35b34801561056357600080fd5b5061057e6004803603810190610579919061323d565b61130c565b60405161058b9190613279565b60405180910390f35b3480156105a057600080fd5b506105bb60048036038101906105b69190613711565b61137b565b6040516105c89190613797565b60405180910390f35b3480156105dd57600080fd5b506105f860048036038101906105f3919061323d565b6113d8565b6040516106059190613279565b60405180910390f35b34801561061a57600080fd5b50610635600480360381019061063091906133e8565b611451565b60405161064291906137c8565b60405180910390f35b34801561065757600080fd5b50610660611480565b60405161066d9190613279565b60405180910390f35b34801561068257600080fd5b5061069d6004803603810190610698919061323d565b6114b8565b005b3480156106ab57600080fd5b506106c660048036038101906106c191906131e4565b611547565b005b3480156106d457600080fd5b506106dd611573565b6040516106ea9190613279565b60405180910390f35b3480156106ff57600080fd5b5061071a6004803603810190610715919061323d565b6115ab565b6040516107279190613279565b60405180910390f35b34801561073c57600080fd5b5061074561161a565b604051610752919061317f565b60405180910390f35b34801561076757600080fd5b50610782600480360381019061077d91906131e4565b611640565b005b34801561079057600080fd5b506107ab60048036038101906107a691906133e8565b6116b8565b6040516107b891906137c8565b60405180910390f35b3480156107cd57600080fd5b506107e860048036038101906107e3919061380f565b611782565b005b3480156107f657600080fd5b506107ff611ae0565b005b34801561080d57600080fd5b5061082860048036038101906108239190613711565b611bc8565b60405161083591906138a4565b60405180910390f35b60008054906101000a900473ffffffffffffffffffffffffffffffffffffffff1681565b6000600560089054906101000a900464ffffffffff1664ffffffffff16146108b6576040517f0dc149f000000000000000000000000000000000000000000000000000000000815260040160405180910390fd5b6108be611bd2565b600560086101000a81548164ffffffffff021916908364ffffffffff160217905550565b600160009054906101000a900473ffffffffffffffffffffffffffffffffffffffff1681565b60008103156109945761091a33611c19565b6109243382611c1c565b61092e3382611c20565b3373ffffffffffffffffffffffffffffffffffffffff163073ffffffffffffffffffffffffffffffffffffffff167f9b1bfa7fa9ee420a16e124f794c35ac9f90472acc99140eb2f6447c714cad8eb8360405161098b9190613279565b60405180910390a35b50565b6000810315610a23576109aa3382611c24565b6109b333611c19565b3073ffffffffffffffffffffffffffffffffffffffff163373ffffffffffffffffffffffffffffffffffffffff167fd1cf3d156d5f8f0d50f6c122ed609cec09d35c9b9fb3fff6ea0959134dae424e83604051610a109190613279565b60405180910390a3610a223382611c28565b5b50565b6000810315610a9b57610a393382611c24565b610a4233611c19565b610a4c3382611c2c565b3373ffffffffffffffffffffffffffffffffffffffff167f5c16de4f8b59bd9caf0f49a545f25819a895ed223294290b408242e72a59423182604051610a929190613279565b60405180910390a25b50565b600080600760008473ffffffffffffffffffffffffffffffffffffffff1673ffffffffffffffffffffffffffffffffffffffff168152602001908152602001600020905080600001600d9054906101000a90046cffffffffffffffffffffffffff166cffffffffffffffffffffffffff16915050919050565b600080600760008473ffffffffffffffffffffffffffffffffffffffff1673ffffffffffffffffffffffffffffffffffffffff16815260200190815260200160002090508060010160189054906101000a900467ffffffffffffffff1667ffffffffffffffff16915050919050565b80600260146101000a81548167ffffffffffffffff021916908367ffffffffffffffff16021790555050565b60076020528060005260406000206000915090508060000160009054906101000a90046cffffffffffffffffffffffffff169080600001600d9054906101000a90046cffffffffffffffffffffffffff169080600001601a9054906101000a900464ffffffffff16908060010160009054906101000a900467ffffffffffffffff16908060010160089054906101000a900467ffffffffffffffff16908060010160109054906101000a900467ffffffffffffffff16908060010160189054906101000a900467ffffffffffffffff16908060020160009054906101000a90046fffffffffffffffffffffffffffffffff16905088565b6000810315610d1e57610cbb33611c19565b610cc53382611c30565b610ccf3382611c20565b3373ffffffffffffffffffffffffffffffffffffffff167feab2c64fe6274878371122aa1c2f1fd513478898c6a8a3a166f68a9ef6866de982604051610d159190613279565b60405180910390a25b50565b600080600760008473ffffffffffffffffffffffffffffffffffffffff1673ffffffffffffffffffffffffffffffffffffffff16815260200190815260200160002090508060020160009054906101000a90046fffffffffffffffffffffffffffffffff166fffffffffffffffffffffffffffffffff16915050919050565b6000600460009054906101000a90046fffffffffffffffffffffffffffffffff166fffffffffffffffffffffffffffffffff16905090565b600080600760008473ffffffffffffffffffffffffffffffffffffffff1673ffffffffffffffffffffffffffffffffffffffff16815260200190815260200160002090508060010160009054906101000a900467ffffffffffffffff1667ffffffffffffffff16915050919050565b60008103156111a857610e58611ae0565b6000600860003373ffffffffffffffffffffffffffffffffffffffff1673ffffffffffffffffffffffffffffffffffffffff16815260200190815260200160002060008473ffffffffffffffffffffffffffffffffffffffff1673ffffffffffffffffffffffffffffffffffffffff1681526020019081526020016000206040518060c00160405290816000820160009054906101000a900473ffffffffffffffffffffffffffffffffffffffff1673ffffffffffffffffffffffffffffffffffffffff1673ffffffffffffffffffffffffffffffffffffffff1681526020016000820160149054906101000a900463ffffffff1663ffffffff1663ffffffff1681526020016001820160009054906101000a90046fffffffffffffffffffffffffffffffff166fffffffffffffffffffffffffffffffff166fffffffffffffffffffffffffffffffff1681526020016001820160109054906101000a90046fffffffffffffffffffffffffffffffff166fffffffffffffffffffffffffffffffff166fffffffffffffffffffffffffffffffff1681526020016002820160009054906101000a90046fffffffffffffffffffffffffffffffff166fffffffffffffffffffffffffffffffff166fffffffffffffffffffffffffffffffff1681526020016002820160109054906101000a90046fffffffffffffffffffffffffffffffff166fffffffffffffffffffffffffffffffff166fffffffffffffffffffffffffffffffff16815250509050600073ffffffffffffffffffffffffffffffffffffffff16816000015173ffffffffffffffffffffffffffffffffffffffff16146110fa576040517f08c379a00000000000000000000000000000000000000000000000000000000081526004016110f190613912565b60405180910390fd5b600061110584611c34565b90506000816020019063ffffffff16908163ffffffff168152505061112a3382611c41565b6111343382611c45565b8373ffffffffffffffffffffffffffffffffffffffff168473ffffffffffffffffffffffffffffffffffffffff163373ffffffffffffffffffffffffffffffffffffffff167fe0ea7157684b9221a5a892ff620f60a898399d0885255b04f07d1408f03aa4ca60405160405180910390a450505b5050565b80600360006101000a81548167ffffffffffffffff021916908367ffffffffffffffff16021790555050565b6008602052816000526040600020602052806000526040600020600091509150508060000160009054906101000a900473ffffffffffffffffffffffffffffffffffffffff16908060000160149054906101000a900463ffffffff16908060010160009054906101000a90046fffffffffffffffffffffffffffffffff16908060010160109054906101000a90046fffffffffffffffffffffffffffffffff16908060020160009054906101000a90046fffffffffffffffffffffffffffffffff16908060020160109054906101000a90046fffffffffffffffffffffffffffffffff16905086565b6112c9613004565b6113076040518060400160405280600681526020017f7430313036340000000000000000000000000000000000000000000000000000815250611c49565b905090565b600080600760008473ffffffffffffffffffffffffffffffffffffffff1673ffffffffffffffffffffffffffffffffffffffff16815260200190815260200160002090508060010160109054906101000a900467ffffffffffffffff1667ffffffffffffffff16915050919050565b61138361301d565b600061138e83611c49565b90507fa2ddd6267efd2f6d55932aa34c682b9e61e408a2f4267a45334fa90a5247d21081600001516040516113c39190613797565b60405180910390a18060000151915050919050565b600080600760008473ffffffffffffffffffffffffffffffffffffffff1673ffffffffffffffffffffffffffffffffffffffff16815260200190815260200160002090508060000160009054906101000a90046cffffffffffffffffffffffffff166cffffffffffffffffffffffffff16915050919050565b60066020528160005260406000206020528060005260406000206000915091509054906101000a900460ff1681565b6000600360089054906101000a90046fffffffffffffffffffffffffffffffff166fffffffffffffffffffffffffffffffff16905090565b6114c0611ae0565b6114c933611c19565b6114d33382611cec565b8073ffffffffffffffffffffffffffffffffffffffff168173ffffffffffffffffffffffffffffffffffffffff163373ffffffffffffffffffffffffffffffffffffffff167fc68c7698ea36b34fd2470ca60decc74a0988213438a0eebb75835ea5ec68ab7d60405160405180910390a450565b80600560006101000a81548167ffffffffffffffff021916908367ffffffffffffffff16021790555050565b6000600460109054906101000a90046fffffffffffffffffffffffffffffffff166fffffffffffffffffffffffffffffffff16905090565b600080600760008473ffffffffffffffffffffffffffffffffffffffff1673ffffffffffffffffffffffffffffffffffffffff16815260200190815260200160002090508060010160089054906101000a900467ffffffffffffffff1667ffffffffffffffff16915050919050565b600260009054906101000a900473ffffffffffffffffffffffffffffffffffffffff1681565b60008103156116b55761165233611c19565b61165c3382611cf0565b6116663382611c20565b3373ffffffffffffffffffffffffffffffffffffffff167fcbc04eca7e9da35cb1393a6135a199ca52e450d5e9251cbd99f7847d33a36750826040516116ac9190613279565b60405180910390a25b50565b60008173ffffffffffffffffffffffffffffffffffffffff168373ffffffffffffffffffffffffffffffffffffffff16148061177a5750600660008473ffffffffffffffffffffffffffffffffffffffff1673ffffffffffffffffffffffffffffffffffffffff16815260200190815260200160002060008373ffffffffffffffffffffffffffffffffffffffff1673ffffffffffffffffffffffffffffffffffffffff16815260200190815260200160002060009054906101000a900460ff165b905092915050565b60008163ffffffff160315611adc576000600860003373ffffffffffffffffffffffffffffffffffffffff1673ffffffffffffffffffffffffffffffffffffffff16815260200190815260200160002060008473ffffffffffffffffffffffffffffffffffffffff1673ffffffffffffffffffffffffffffffffffffffff1681526020019081526020016000206040518060c00160405290816000820160009054906101000a900473ffffffffffffffffffffffffffffffffffffffff1673ffffffffffffffffffffffffffffffffffffffff1673ffffffffffffffffffffffffffffffffffffffff1681526020016000820160149054906101000a900463ffffffff1663ffffffff1663ffffffff1681526020016001820160009054906101000a90046fffffffffffffffffffffffffffffffff166fffffffffffffffffffffffffffffffff166fffffffffffffffffffffffffffffffff1681526020016001820160109054906101000a90046fffffffffffffffffffffffffffffffff166fffffffffffffffffffffffffffffffff166fffffffffffffffffffffffffffffffff1681526020016002820160009054906101000a90046fffffffffffffffffffffffffffffffff166fffffffffffffffffffffffffffffffff166fffffffffffffffffffffffffffffffff1681526020016002820160109054906101000a90046fffffffffffffffffffffffffffffffff166fffffffffffffffffffffffffffffffff166fffffffffffffffffffffffffffffffff16815250509050600073ffffffffffffffffffffffffffffffffffffffff16816000015173ffffffffffffffffffffffffffffffffffffffff1603611a33576040517f08c379a0000000000000000000000000000000000000000000000000000000008152600401611a2a9061397e565b60405180910390fd5b81816020019063ffffffff16908163ffffffff1681525050611a553382611cf4565b611a5f3382611c41565b611a693382611c45565b8273ffffffffffffffffffffffffffffffffffffffff168373ffffffffffffffffffffffffffffffffffffffff163373ffffffffffffffffffffffffffffffffffffffff167fe0ea7157684b9221a5a892ff620f60a898399d0885255b04f07d1408f03aa4ca60405160405180910390a4505b5050565b611ae8613039565b600060405180604001604052806040518060400160405280600281526020017f100000000000000000000000000000000000000000000000000000000000000081525081526020016000151581525090508082602001819052506103e8826040019067ffffffffffffffff16908167ffffffffffffffff16815250506040518060600160405280602a8152602001614146602a91398260000181905250611bc46040518060400160405280600681526020017f743031383233000000000000000000000000000000000000000000000000000081525083611cf8565b5050565b6060819050919050565b6000650100000000004210611c13576040517f3d32ffdb00000000000000000000000000000000000000000000000000000000815260040160405180910390fd5b42905090565b50565b5050565b5050565b5050565b5050565b5050565b5050565b611c3c61306a565b919050565b5050565b5050565b611c51613004565b60008067ffffffffffffffff811115611c6d57611c6c6135e6565b5b6040519080825280601f01601f191660200182016040528015611c9f5781602001600182028036833780820191505090505b5090506000611cb663eff983fa8584600034611d2b565b90506000611cc382611e66565b9050611ccd613004565b611ce08282611f5790919063ffffffff16565b80945050505050919050565b5050565b5050565b5050565b6000611d038261200a565b90506000611d19635d9dfc2c8584607134611d2b565b9050611d2481611e66565b5050505050565b606060008073fe0000000000000000000000000000000000000373ffffffffffffffffffffffffffffffffffffffff1688856000888a8c604051602001611d77969594939291906139e8565b604051602081830303815290604052604051611d939190613a93565b600060405180830381855af49150503d8060008114611dce576040519150601f19603f3d011682016040523d82523d6000602084013e611dd3565b606091505b509150915060011515821515146040518060400160405280601181526020017f6163746f722063616c6c206661696c656400000000000000000000000000000081525090611e57576040517f08c379a0000000000000000000000000000000000000000000000000000000008152600401611e4e91906138a4565b60405180910390fd5b50809250505095945050505050565b6060600080600084806020019051810190611e819190613bad565b925092509250600067ffffffffffffffff168267ffffffffffffffff161480611ebe5750607167ffffffffffffffff168267ffffffffffffffff16145b611efd576040517f08c379a0000000000000000000000000000000000000000000000000000000008152600401611ef490613c68565b60405180910390fd5b60008314611f0a8461208c565b90611f4b576040517f08c379a0000000000000000000000000000000000000000000000000000000008152600401611f4291906138a4565b60405180910390fd5b50809350505050919050565b60006060611f6e82846120f690919063ffffffff16565b8093508192505050600081511115611f9657611f89816122a0565b8460000181905250612004565b6040518060400160405280600067ffffffffffffffff811115611fbc57611fbb6135e6565b5b6040519080825280601f01601f191660200182016040528015611fee5781602001600182028036833780820191505090505b5081526020016000151581525084600001819052505b50505050565b606060006120186040612447565b905061202e60038261246e90919063ffffffff16565b61204583600001518261247e90919063ffffffff16565b61206461205584602001516124a7565b8261247e90919063ffffffff16565b61207b83604001518261260490919063ffffffff16565b61208481612614565b915050919050565b606060008212156120c6576120a08261266d565b6040516020016120b09190613cea565b60405160208183030381529060405290506120f1565b6120cf8261266d565b6040516020016120df9190613cea565b60405160208183030381529060405290505b919050565b60606000806000612107868661273b565b8167ffffffffffffffff169150809750819350829450505050600660ff168260ff16148061213b5750600260ff168260ff16145b61214857612147613d10565b5b600660ff168260ff160361219157612160868661273b565b8167ffffffffffffffff169150809750819350829450505050600260ff168260ff16146121905761218f613d10565b5b5b6000818661219f9190613d6e565b905060008267ffffffffffffffff8111156121bd576121bc6135e6565b5b6040519080825280601f01601f1916602001820160405280156121ef5781602001600182028036833780820191505090505b5090506000808890505b838110156122825789818151811061221457612213613da2565b5b602001015160f81c60f81b83838151811061223257612231613da2565b5b60200101907effffffffffffffffffffffffffffffffffffffffffffffffffffffffffffff1916908160001a905350818061226c90613dd1565b925050808061227a90613dd1565b9150506121f9565b508184896122909190613d6e565b9650965050505050509250929050565b6122a861301d565b60008251036122e657604051806040016040528060405180604001604052806001815260200160008152508152602001600015158152509050612442565b6000600183516122f69190613e19565b67ffffffffffffffff81111561230f5761230e6135e6565b5b6040519080825280601f01601f1916602001820160405280156123415781602001600182028036833780820191505090505b5090506000600160f81b8460008151811061235f5761235e613da2565b5b602001015160f81c60f81b7effffffffffffffffffffffffffffffffffffffffffffffffffffffffffffff19160361239657600190505b6000600190505b8451811015612425578481815181106123b9576123b8613da2565b5b602001015160f81c60f81b836001836123d29190613e19565b815181106123e3576123e2613da2565b5b60200101907effffffffffffffffffffffffffffffffffffffffffffffffffffffffffffff1916908160001a905350808061241d90613dd1565b91505061239d565b506040518060400160405280838152602001821515815250925050505b919050565b61244f613104565b61245d8160000151836128c9565b506000816020018181525050919050565b61247a82600483612942565b5050565b61248b8260028351612952565b6124a2818360000151612afb90919063ffffffff16565b505050565b6060600060018360000151516124bd9190613d6e565b67ffffffffffffffff8111156124d6576124d56135e6565b5b6040519080825280601f01601f1916602001820160405280156125085781602001600182028036833780820191505090505b50905082602001511561255e57600160f81b8160008151811061252e5761252d613da2565b5b60200101907effffffffffffffffffffffffffffffffffffffffffffffffffffffffffffff1916908160001a9053505b60006001905060005b8460000151518110156125f9578460000151818151811061258b5761258a613da2565b5b602001015160f81c60f81b8383815181106125a9576125a8613da2565b5b60200101907effffffffffffffffffffffffffffffffffffffffffffffffffffffffffffff1916908160001a90535081806125e390613dd1565b92505080806125f190613dd1565b915050612567565b508192505050919050565b61261082600083612952565b5050565b6060600082602001511461265d576040517f08c379a000000000000000000000000000000000000000000000000000000000815260040161265490613e99565b60405180910390fd5b8160000151600001519050919050565b60606000600161267c84612b17565b01905060008167ffffffffffffffff81111561269b5761269a6135e6565b5b6040519080825280601f01601f1916602001820160405280156126cd5781602001600182028036833780820191505090505b509050600082602001820190505b600115612730578080600190039150507f3031323334353637383961626364656600000000000000000000000000000000600a86061a8153600a858161272457612723613eb9565b5b049450600085036126db575b819350505050919050565b60008060008061274b8686612c6a565b905060018561275a9190613d6e565b94506000600560e0831660ff16901c90506000601f83169050601c8160ff161061278757612786613d10565b5b60188160ff1610156127aa578181888160ff1691509550955095505050506128c2565b60188160ff16036127ff5760006127c18989612c6a565b90506001886127d09190613d6e565b975060188160ff1610156127e7576127e6613d10565b5b8281898160ff169150965096509650505050506128c2565b60198160ff16036128405760006128168989612cd1565b90506002886128259190613d6e565b97508281898161ffff169150965096509650505050506128c2565b601a8160ff16036128835760006128578989612d38565b90506004886128669190613d6e565b97508281898163ffffffff169150965096509650505050506128c2565b601b8160ff161461289757612896613d10565b5b60006128a38989612d9f565b90506008886128b29190613d6e565b9750828189965096509650505050505b9250925092565b6128d1613124565b60006020836128e09190613ee8565b1461290c576020826128f29190613ee8565b60206128fe9190613e19565b826129099190613d6e565b91505b81836020018181525050604051808452600081528281016020018181101561293357600080fd5b80604052505082905092915050565b61294d838383612952565b505050565b60178167ffffffffffffffff161161298d576129878160058460ff16901b60ff16178460000151612e0690919063ffffffff16565b50612af6565b60ff8167ffffffffffffffff16116129eb576129c0601860058460ff16901b178460000151612e0690919063ffffffff16565b506129e58167ffffffffffffffff1660018560000151612e709092919063ffffffff16565b50612af5565b61ffff8167ffffffffffffffff1611612a4a57612a1f601960058460ff16901b178460000151612e0690919063ffffffff16565b50612a448167ffffffffffffffff1660028560000151612e709092919063ffffffff16565b50612af4565b63ffffffff8167ffffffffffffffff1611612aab57612a80601a60058460ff16901b178460000151612e0690919063ffffffff16565b50612aa58167ffffffffffffffff1660048560000151612e709092919063ffffffff16565b50612af3565b612acc601b60058460ff16901b178460000151612e0690919063ffffffff16565b50612af18167ffffffffffffffff1660088560000151612e709092919063ffffffff16565b505b5b5b5b505050565b612b03613124565b612b0f83838451612efd565b905092915050565b600080600090507a184f03e93ff9f4daa797ed6e38ed64bf6a1f0100000000000000008310612b75577a184f03e93ff9f4daa797ed6e38ed64bf6a1f0100000000000000008381612b6b57612b6a613eb9565b5b0492506040810190505b6d04ee2d6d415b85acef81000000008310612bb2576d04ee2d6d415b85acef81000000008381612ba857612ba7613eb9565b5b0492506020810190505b662386f26fc100008310612be157662386f26fc100008381612bd757612bd6613eb9565b5b0492506010810190505b6305f5e1008310612c0a576305f5e1008381612c0057612bff613eb9565b5b0492506008810190505b6127108310612c2f576127108381612c2557612c24613eb9565b5b0492506004810190505b60648310612c525760648381612c4857612c47613eb9565b5b0492506002810190505b600a8310612c61576001810190505b80915050919050565b6000600182612c799190613d6e565b83511015612cbc576040517f08c379a0000000000000000000000000000000000000000000000000000000008152600401612cb390613f65565b60405180910390fd5b60008260010184015190508091505092915050565b6000600282612ce09190613d6e565b83511015612d23576040517f08c379a0000000000000000000000000000000000000000000000000000000008152600401612d1a90613f65565b60405180910390fd5b60008260020184015190508091505092915050565b6000600482612d479190613d6e565b83511015612d8a576040517f08c379a0000000000000000000000000000000000000000000000000000000008152600401612d8190613f65565b60405180910390fd5b60008260040184015190508091505092915050565b6000600882612dae9190613d6e565b83511015612df1576040517f08c379a0000000000000000000000000000000000000000000000000000000008152600401612de890613f65565b60405180910390fd5b60008260080184015190508091505092915050565b612e0e613124565b600083600001515190506000600182612e279190613d6e565b905084602001518210612e4b57612e4a85600283612e459190613f85565b612fe0565b5b84516020838201018581538151831115612e63578282525b5050849250505092915050565b612e78613124565b6000846000015151905060008184612e909190613d6e565b90508560200151811115612eb557612eb486600283612eaf9190613f85565b612fe0565b5b6000600185610100612ec791906140fa565b612ed19190613e19565b905086518281018783198251161781528151841115612eee578382525b50508693505050509392505050565b612f05613124565b8251821115612f1357600080fd5b6000846000015151905060008382612f2b9190613d6e565b90508560200151811115612f5057612f4f86600283612f4a9190613f85565b612fe0565b5b60008087518051856020830101935080851115612f6b578482525b60208901925050505b60208610612fb25780518252602082612f8d9190613d6e565b9150602081612f9c9190613d6e565b9050602086612fab9190613e19565b9550612f74565b60006001876020036101000a0390508019825116818451168181178552505050879450505050509392505050565b600082600001519050612ff383836128c9565b50612ffe8382612afb565b50505050565b604051806020016040528061301761301d565b81525090565b6040518060400160405280606081526020016000151581525090565b60405180606001604052806060815260200161305361301d565b8152602001600067ffffffffffffffff1681525090565b6040518060c00160405280600073ffffffffffffffffffffffffffffffffffffffff168152602001600063ffffffff16815260200160006fffffffffffffffffffffffffffffffff16815260200160006fffffffffffffffffffffffffffffffff16815260200160006fffffffffffffffffffffffffffffffff16815260200160006fffffffffffffffffffffffffffffffff1681525090565b6040518060400160405280613117613124565b8152602001600081525090565b604051806040016040528060608152602001600081525090565b600073ffffffffffffffffffffffffffffffffffffffff82169050919050565b60006131698261313e565b9050919050565b6131798161315e565b82525050565b60006020820190506131946000830184613170565b92915050565b6000604051905090565b600080fd5b600080fd5b6000819050919050565b6131c1816131ae565b81146131cc57600080fd5b50565b6000813590506131de816131b8565b92915050565b6000602082840312156131fa576131f96131a4565b5b6000613208848285016131cf565b91505092915050565b61321a8161315e565b811461322557600080fd5b50565b60008135905061323781613211565b92915050565b600060208284031215613253576132526131a4565b5b600061326184828501613228565b91505092915050565b613273816131ae565b82525050565b600060208201905061328e600083018461326a565b92915050565b60006cffffffffffffffffffffffffff82169050919050565b6132b681613294565b82525050565b600064ffffffffff82169050919050565b6132d6816132bc565b82525050565b600067ffffffffffffffff82169050919050565b6132f9816132dc565b82525050565b60006fffffffffffffffffffffffffffffffff82169050919050565b613324816132ff565b82525050565b600061010082019050613340600083018b6132ad565b61334d602083018a6132ad565b61335a60408301896132cd565b61336760608301886132f0565b61337460808301876132f0565b61338160a08301866132f0565b61338e60c08301856132f0565b61339b60e083018461331b565b9998505050505050505050565b600080604083850312156133bf576133be6131a4565b5b60006133cd85828601613228565b92505060206133de858286016131cf565b9150509250929050565b600080604083850312156133ff576133fe6131a4565b5b600061340d85828601613228565b925050602061341e85828601613228565b9150509250929050565b600063ffffffff82169050919050565b61344181613428565b82525050565b600060c08201905061345c6000830189613170565b6134696020830188613438565b613476604083018761331b565b613483606083018661331b565b613490608083018561331b565b61349d60a083018461331b565b979650505050505050565b600081519050919050565b600082825260208201905092915050565b60005b838110156134e25780820151818401526020810190506134c7565b60008484015250505050565b6000601f19601f8301169050919050565b600061350a826134a8565b61351481856134b3565b93506135248185602086016134c4565b61352d816134ee565b840191505092915050565b60008115159050919050565b61354d81613538565b82525050565b6000604083016000830151848203600086015261357082826134ff565b91505060208301516135856020860182613544565b508091505092915050565b600060208301600083015184820360008601526135ad8282613553565b9150508091505092915050565b600060208201905081810360008301526135d48184613590565b905092915050565b600080fd5b600080fd5b7f4e487b7100000000000000000000000000000000000000000000000000000000600052604160045260246000fd5b61361e826134ee565b810181811067ffffffffffffffff8211171561363d5761363c6135e6565b5b80604052505050565b600061365061319a565b905061365c8282613615565b919050565b600067ffffffffffffffff82111561367c5761367b6135e6565b5b613685826134ee565b9050602081019050919050565b82818337600083830152505050565b60006136b46136af84613661565b613646565b9050828152602081018484840111156136d0576136cf6135e1565b5b6136db848285613692565b509392505050565b600082601f8301126136f8576136f76135dc565b5b81356137088482602086016136a1565b91505092915050565b600060208284031215613727576137266131a4565b5b600082013567ffffffffffffffff811115613745576137446131a9565b5b613751848285016136e3565b91505092915050565b6000604083016000830151848203600086015261377782826134ff565b915050602083015161378c6020860182613544565b508091505092915050565b600060208201905081810360008301526137b1818461375a565b905092915050565b6137c281613538565b82525050565b60006020820190506137dd60008301846137b9565b92915050565b6137ec81613428565b81146137f757600080fd5b50565b600081359050613809816137e3565b92915050565b60008060408385031215613826576138256131a4565b5b600061383485828601613228565b9250506020613845858286016137fa565b9150509250929050565b600081519050919050565b600082825260208201905092915050565b60006138768261384f565b613880818561385a565b93506138908185602086016134c4565b613899816134ee565b840191505092915050565b600060208201905081810360008301526138be818461386b565b905092915050565b7f6d696e657220616c726561647920657869737400000000000000000000000000600082015250565b60006138fc60138361385a565b9150613907826138c6565b602082019050919050565b6000602082019050818103600083015261392b816138ef565b9050919050565b7f6d696e6572206e6f742065786973740000000000000000000000000000000000600082015250565b6000613968600f8361385a565b915061397382613932565b602082019050919050565b600060208201905081810360008301526139978161395b565b9050919050565b600082825260208201905092915050565b60006139ba826134a8565b6139c4818561399e565b93506139d48185602086016134c4565b6139dd816134ee565b840191505092915050565b600060c0820190506139fd60008301896132f0565b613a0a602083018861326a565b613a1760408301876132f0565b613a2460608301866132f0565b8181036080830152613a3681856139af565b905081810360a0830152613a4a81846139af565b9050979650505050505050565b600081905092915050565b6000613a6d826134a8565b613a778185613a57565b9350613a878185602086016134c4565b80840191505092915050565b6000613a9f8284613a62565b915081905092915050565b6000819050919050565b613abd81613aaa565b8114613ac857600080fd5b50565b600081519050613ada81613ab4565b92915050565b613ae9816132dc565b8114613af457600080fd5b50565b600081519050613b0681613ae0565b92915050565b600067ffffffffffffffff821115613b2757613b266135e6565b5b613b30826134ee565b9050602081019050919050565b6000613b50613b4b84613b0c565b613646565b905082815260208101848484011115613b6c57613b6b6135e1565b5b613b778482856134c4565b509392505050565b600082601f830112613b9457613b936135dc565b5b8151613ba4848260208601613b3d565b91505092915050565b600080600060608486031215613bc657613bc56131a4565b5b6000613bd486828701613acb565b9350506020613be586828701613af7565b925050604084015167ffffffffffffffff811115613c0657613c056131a9565b5b613c1286828701613b7f565b9150509250925092565b7f726573706f6e736520636f646563206e6f7420737570706f7274656400000000600082015250565b6000613c52601c8361385a565b9150613c5d82613c1c565b602082019050919050565b60006020820190508181036000830152613c8181613c45565b9050919050565b7f6163746f72206572726f7220636f6465202d0000000000000000000000000000815250565b600081905092915050565b6000613cc48261384f565b613cce8185613cae565b9350613cde8185602086016134c4565b80840191505092915050565b6000613cf582613c88565b601282019150613d058284613cb9565b915081905092915050565b7f4e487b7100000000000000000000000000000000000000000000000000000000600052600160045260246000fd5b7f4e487b7100000000000000000000000000000000000000000000000000000000600052601160045260246000fd5b6000613d79826131ae565b9150613d84836131ae565b9250828201905080821115613d9c57613d9b613d3f565b5b92915050565b7f4e487b7100000000000000000000000000000000000000000000000000000000600052603260045260246000fd5b6000613ddc826131ae565b91507fffffffffffffffffffffffffffffffffffffffffffffffffffffffffffffffff8203613e0e57613e0d613d3f565b5b600182019050919050565b6000613e24826131ae565b9150613e2f836131ae565b9250828203905081811115613e4757613e46613d3f565b5b92915050565b7f496e76616c69642043424f520000000000000000000000000000000000000000600082015250565b6000613e83600c8361385a565b9150613e8e82613e4d565b602082019050919050565b60006020820190508181036000830152613eb281613e76565b9050919050565b7f4e487b7100000000000000000000000000000000000000000000000000000000600052601260045260246000fd5b6000613ef3826131ae565b9150613efe836131ae565b925082613f0e57613f0d613eb9565b5b828206905092915050565b7f736c6963696e67206f7574206f662072616e6765000000000000000000000000600082015250565b6000613f4f60148361385a565b9150613f5a82613f19565b602082019050919050565b60006020820190508181036000830152613f7e81613f42565b9050919050565b6000613f90826131ae565b9150613f9b836131ae565b9250828202613fa9816131ae565b91508282048414831517613fc057613fbf613d3f565b5b5092915050565b60008160011c9050919050565b6000808291508390505b600185111561401e57808604811115613ffa57613ff9613d3f565b5b60018516156140095780820291505b808102905061401785613fc7565b9450613fde565b94509492505050565b60008261403757600190506140f3565b8161404557600090506140f3565b816001811461405b576002811461406557614094565b60019150506140f3565b60ff84111561407757614076613d3f565b5b8360020a91508482111561408e5761408d613d3f565b5b506140f3565b5060208310610133831016604e8410600b84101617156140c95782820a9050838111156140c4576140c3613d3f565b5b6140f3565b6140d68484846001613fd4565b925090508184048111156140ed576140ec613d3f565b5b81810290505b9392505050565b6000614105826131ae565b9150614110836131ae565b925061413d7fffffffffffffffffffffffffffffffffffffffffffffffffffffffffffffffff8484614027565b90509291505056fe307834374331436262314436373642343436346331394335633538646561413530624134363843363942a2646970667358221220a9239623991ccfdad782928b48ac9e4a44aa2339b22d3f1f469828c8300ddcf564736f6c63430008110033",
  "devdoc": {
    "kind": "dev",
    "methods": {},
    "version": 1
  },
  "userdoc": {
    "kind": "user",
    "methods": {
      "TotalBorrow()": {
        "notice": "Get the total amount of borrow*"
      },
      "TotalPledge()": {
        "notice": "Get the total amount of pledge*"
      },
      "TotalSupply()": {
        "notice": "Get the total amount of supply*"
      },
      "borrow(uint256)": {
        "notice": "Borrow FIL from the contract"
      },
      "borrowBalanceOf(address)": {
        "notice": "Get the total amount of borrow*"
      },
      "changeBeneficiary()": {
        "notice": "Call the miner's change beneficiary method"
      },
      "changePledgeScale(address,uint32)": {
        "notice": "change pledge miner  scale to the contract,This operation will  affect the miner's loanable balance and the entire user's loanable balance"
      },
      "getAvailableBalance()": {
        "notice": "Get the current miner available balance"
      },
      "getAvailableBalance(string)": {
        "notice": "Get the current miner available balance"
      },
      "initializeStorage()": {
        "notice": "Initialize the market"
      },
      "interestWithdraw(uint256)": {
        "notice": "withdraw accrued  to wallet"
      },
      "pledge(address,uint256)": {
        "notice": "pledge miner to the contract"
      },
      "pledgeBalanceOf(address)": {
        "notice": "Get the total amount of pledge*"
      },
      "repay(uint256)": {
        "notice": "Repay FIL to the contract"
      },
      "setBaseBorrowInterestRate(uint256)": {
        "notice": "set the base borrow interest rate*"
      },
      "setBaseSupplyInterestRate(uint256)": {
        "notice": "set the base supply interest rate*"
      },
      "supply(uint256)": {
        "notice": "Deposit funds into the contract to provide liquidity and obtain income."
      },
      "supplyBalanceOf(address)": {
        "notice": "Get the total amount of supply*"
      },
      "totalBorrowInterestOf(address)": {
        "notice": "Get the total amount of borrow interest*"
      },
      "totalSupplyInterestOf(address)": {
        "notice": "Get the total amount of supply interest*"
      },
      "unClaimBorrowInterestOf(address)": {
        "notice": "Get the rePay amount of borrow interest*"
      },
      "unClaimSupplyInterestOf(address)": {
        "notice": "Get the  unClaim amount of supply interest*"
      },
      "unpledge(address)": {
        "notice": "unpledge miner from the contract"
      },
      "withdraw(uint256)": {
        "notice": "Transfer tokens out of the market"
      }
    },
    "version": 1
  },
  "storageLayout": {
    "storage": [
      {
        "astId": 6798,
        "contract": "contracts/Filfi.sol:Filfi",
        "label": "governor",
        "offset": 0,
        "slot": "0",
        "type": "t_address"
      },
      {
        "astId": 6800,
        "contract": "contracts/Filfi.sol:Filfi",
        "label": "pauseGuardian",
        "offset": 0,
        "slot": "1",
        "type": "t_address"
      },
      {
        "astId": 6802,
        "contract": "contracts/Filfi.sol:Filfi",
        "label": "baseToken",
        "offset": 0,
        "slot": "2",
        "type": "t_address"
      },
      {
        "astId": 6834,
        "contract": "contracts/Filfi.sol:Filfi",
        "label": "baseBorrowInterestRate",
        "offset": 20,
        "slot": "2",
        "type": "t_uint64"
      },
      {
        "astId": 6836,
        "contract": "contracts/Filfi.sol:Filfi",
        "label": "baseSupplyInterestRate",
        "offset": 0,
        "slot": "3",
        "type": "t_uint64"
      },
      {
        "astId": 6838,
        "contract": "contracts/Filfi.sol:Filfi",
        "label": "totalSupply",
        "offset": 8,
        "slot": "3",
        "type": "t_uint128"
      },
      {
        "astId": 6840,
        "contract": "contracts/Filfi.sol:Filfi",
        "label": "totalBorrow",
        "offset": 0,
        "slot": "4",
        "type": "t_uint128"
      },
      {
        "astId": 6842,
        "contract": "contracts/Filfi.sol:Filfi",
        "label": "totalPledged",
        "offset": 16,
        "slot": "4",
        "type": "t_uint128"
      },
      {
        "astId": 6844,
        "contract": "contracts/Filfi.sol:Filfi",
        "label": "liquidateCollateralFactor",
        "offset": 0,
        "slot": "5",
        "type": "t_uint64"
      },
      {
        "astId": 6846,
        "contract": "contracts/Filfi.sol:Filfi",
        "label": "lastAccrualTime",
        "offset": 8,
        "slot": "5",
        "type": "t_uint40"
      },
      {
        "astId": 6852,
        "contract": "contracts/Filfi.sol:Filfi",
        "label": "isAllowed",
        "offset": 0,
        "slot": "6",
        "type": "t_mapping(t_address,t_mapping(t_address,t_bool))"
      },
      {
        "astId": 6857,
        "contract": "contracts/Filfi.sol:Filfi",
        "label": "userAccounts",
        "offset": 0,
        "slot": "7",
        "type": "t_mapping(t_address,t_struct(UserAccount)6832_storage)"
      },
      {
        "astId": 6864,
        "contract": "contracts/Filfi.sol:Filfi",
        "label": "nodeAssets",
        "offset": 0,
        "slot": "8",
        "type": "t_mapping(t_address,t_mapping(t_address,t_struct(NodeAsset)6815_storage))"
      }
    ],
    "types": {
      "t_address": {
        "encoding": "inplace",
        "label": "address",
        "numberOfBytes": "20"
      },
      "t_bool": {
        "encoding": "inplace",
        "label": "bool",
        "numberOfBytes": "1"
      },
      "t_mapping(t_address,t_bool)": {
        "encoding": "mapping",
        "key": "t_address",
        "label": "mapping(address => bool)",
        "numberOfBytes": "32",
        "value": "t_bool"
      },
      "t_mapping(t_address,t_mapping(t_address,t_bool))": {
        "encoding": "mapping",
        "key": "t_address",
        "label": "mapping(address => mapping(address => bool))",
        "numberOfBytes": "32",
        "value": "t_mapping(t_address,t_bool)"
      },
      "t_mapping(t_address,t_mapping(t_address,t_struct(NodeAsset)6815_storage))": {
        "encoding": "mapping",
        "key": "t_address",
        "label": "mapping(address => mapping(address => struct FilfiStorage.NodeAsset))",
        "numberOfBytes": "32",
        "value": "t_mapping(t_address,t_struct(NodeAsset)6815_storage)"
      },
      "t_mapping(t_address,t_struct(NodeAsset)6815_storage)": {
        "encoding": "mapping",
        "key": "t_address",
        "label": "mapping(address => struct FilfiStorage.NodeAsset)",
        "numberOfBytes": "32",
        "value": "t_struct(NodeAsset)6815_storage"
      },
      "t_mapping(t_address,t_struct(UserAccount)6832_storage)": {
        "encoding": "mapping",
        "key": "t_address",
        "label": "mapping(address => struct FilfiStorage.UserAccount)",
        "numberOfBytes": "32",
        "value": "t_struct(UserAccount)6832_storage"
      },
      "t_struct(NodeAsset)6815_storage": {
        "encoding": "inplace",
        "label": "struct FilfiStorage.NodeAsset",
        "members": [
          {
            "astId": 6804,
            "contract": "contracts/Filfi.sol:Filfi",
            "label": "miner",
            "offset": 0,
            "slot": "0",
            "type": "t_address"
          },
          {
            "astId": 6806,
            "contract": "contracts/Filfi.sol:Filfi",
            "label": "pledgeScale",
            "offset": 20,
            "slot": "0",
            "type": "t_uint32"
          },
          {
            "astId": 6808,
            "contract": "contracts/Filfi.sol:Filfi",
            "label": "pledgedAmt",
            "offset": 0,
            "slot": "1",
            "type": "t_uint128"
          },
          {
            "astId": 6810,
            "contract": "contracts/Filfi.sol:Filfi",
            "label": "balance",
            "offset": 16,
            "slot": "1",
            "type": "t_uint128"
          },
          {
            "astId": 6812,
            "contract": "contracts/Filfi.sol:Filfi",
            "label": "canBorrowedBalance",
            "offset": 0,
            "slot": "2",
            "type": "t_uint128"
          },
          {
            "astId": 6814,
            "contract": "contracts/Filfi.sol:Filfi",
            "label": "beneficiaryWithdrawnAmt",
            "offset": 16,
            "slot": "2",
            "type": "t_uint128"
          }
        ],
        "numberOfBytes": "96"
      },
      "t_struct(UserAccount)6832_storage": {
        "encoding": "inplace",
        "label": "struct FilfiStorage.UserAccount",
        "members": [
          {
            "astId": 6817,
            "contract": "contracts/Filfi.sol:Filfi",
            "label": "supplyBalance",
            "offset": 0,
            "slot": "0",
            "type": "t_uint104"
          },
          {
            "astId": 6819,
            "contract": "contracts/Filfi.sol:Filfi",
            "label": "borrowBalance",
            "offset": 13,
            "slot": "0",
            "type": "t_uint104"
          },
          {
            "astId": 6821,
            "contract": "contracts/Filfi.sol:Filfi",
            "label": "lastAccrualTime",
            "offset": 26,
            "slot": "0",
            "type": "t_uint40"
          },
          {
            "astId": 6823,
            "contract": "contracts/Filfi.sol:Filfi",
            "label": "supplyTotalInterest",
            "offset": 0,
            "slot": "1",
            "type": "t_uint64"
          },
          {
            "astId": 6825,
            "contract": "contracts/Filfi.sol:Filfi",
            "label": "unClaimSupplyInterest",
            "offset": 8,
            "slot": "1",
            "type": "t_uint64"
          },
          {
            "astId": 6827,
            "contract": "contracts/Filfi.sol:Filfi",
            "label": "borrowTotalInterest",
            "offset": 16,
            "slot": "1",
            "type": "t_uint64"
          },
          {
            "astId": 6829,
            "contract": "contracts/Filfi.sol:Filfi",
            "label": "unClaimBorrowInterest",
            "offset": 24,
            "slot": "1",
            "type": "t_uint64"
          },
          {
            "astId": 6831,
            "contract": "contracts/Filfi.sol:Filfi",
            "label": "canBorrowedBalance",
            "offset": 0,
            "slot": "2",
            "type": "t_uint128"
          }
        ],
        "numberOfBytes": "96"
      },
      "t_uint104": {
        "encoding": "inplace",
        "label": "uint104",
        "numberOfBytes": "13"
      },
      "t_uint128": {
        "encoding": "inplace",
        "label": "uint128",
        "numberOfBytes": "16"
      },
      "t_uint32": {
        "encoding": "inplace",
        "label": "uint32",
        "numberOfBytes": "4"
      },
      "t_uint40": {
        "encoding": "inplace",
        "label": "uint40",
        "numberOfBytes": "5"
      },
      "t_uint64": {
        "encoding": "inplace",
        "label": "uint64",
        "numberOfBytes": "8"
      }
    }
  }
}