{
  "address": "0x61fB37bcF43Ae927Bab01A7cf79a0331C70e931D",
  "abi": [
    {
      "inputs": [],
      "stateMutability": "nonpayable",
      "type": "constructor"
    },
    {
      "inputs": [],
      "name": "AlreadyInitialized",
      "type": "error"
    },
    {
      "inputs": [],
      "name": "InvalidInt104",
      "type": "error"
    },
    {
      "inputs": [],
      "name": "InvalidInt256",
      "type": "error"
    },
    {
      "inputs": [],
      "name": "InvalidUInt104",
      "type": "error"
    },
    {
      "inputs": [],
      "name": "InvalidUInt128",
      "type": "error"
    },
    {
      "inputs": [],
      "name": "InvalidUInt64",
      "type": "error"
    },
    {
      "inputs": [],
      "name": "NegativeNumber",
      "type": "error"
    },
    {
      "inputs": [],
      "name": "TimestampTooLarge",
      "type": "error"
    },
    {
      "anonymous": false,
      "inputs": [
        {
          "components": [
            {
              "internalType": "bytes",
              "name": "val",
              "type": "bytes"
            },
            {
              "internalType": "bool",
              "name": "neg",
              "type": "bool"
            }
          ],
          "indexed": false,
          "internalType": "struct BigInt",
          "name": "msg",
          "type": "tuple"
        }
      ],
      "name": "Logger",
      "type": "event"
    },
    {
      "inputs": [],
      "name": "changeBeneficiary",
      "outputs": [],
      "stateMutability": "nonpayable",
      "type": "function"
    },
    {
      "inputs": [
        {
          "internalType": "string",
          "name": "target",
          "type": "string"
        }
      ],
      "name": "getAvailableBalance",
      "outputs": [
        {
          "internalType": "int256",
          "name": "",
          "type": "int256"
        }
      ],
      "stateMutability": "nonpayable",
      "type": "function"
    },
    {
      "inputs": [],
      "name": "getBalance",
      "outputs": [
        {
          "components": [
            {
              "components": [
                {
                  "internalType": "bytes",
                  "name": "val",
                  "type": "bytes"
                },
                {
                  "internalType": "bool",
                  "name": "neg",
                  "type": "bool"
                }
              ],
              "internalType": "struct BigInt",
              "name": "available_balance",
              "type": "tuple"
            }
          ],
          "internalType": "struct MinerTypes.GetAvailableBalanceReturn",
          "name": "",
          "type": "tuple"
        }
      ],
      "stateMutability": "nonpayable",
      "type": "function"
    },
    {
      "inputs": [],
      "name": "getOnwer",
      "outputs": [
        {
          "components": [
            {
              "components": [
                {
                  "internalType": "bytes",
                  "name": "val",
                  "type": "bytes"
                },
                {
                  "internalType": "bool",
                  "name": "neg",
                  "type": "bool"
                }
              ],
              "internalType": "struct BigInt",
              "name": "available_balance",
              "type": "tuple"
            }
          ],
          "internalType": "struct MinerTypes.GetAvailableBalanceReturn",
          "name": "",
          "type": "tuple"
        }
      ],
      "stateMutability": "nonpayable",
      "type": "function"
    },
    {
      "inputs": [],
      "name": "governor",
      "outputs": [
        {
          "internalType": "address",
          "name": "",
          "type": "address"
        }
      ],
      "stateMutability": "view",
      "type": "function"
    },
    {
      "inputs": [
        {
          "internalType": "address",
          "name": "owner",
          "type": "address"
        },
        {
          "internalType": "address",
          "name": "manager",
          "type": "address"
        }
      ],
      "name": "hasPermission",
      "outputs": [
        {
          "internalType": "bool",
          "name": "",
          "type": "bool"
        }
      ],
      "stateMutability": "view",
      "type": "function"
    },
    {
      "inputs": [],
      "name": "initializeStorage",
      "outputs": [],
      "stateMutability": "nonpayable",
      "type": "function"
    },
    {
      "inputs": [
        {
          "internalType": "address",
          "name": "",
          "type": "address"
        },
        {
          "internalType": "address",
          "name": "",
          "type": "address"
        }
      ],
      "name": "isAllowed",
      "outputs": [
        {
          "internalType": "bool",
          "name": "",
          "type": "bool"
        }
      ],
      "stateMutability": "view",
      "type": "function"
    },
    {
      "inputs": [],
      "name": "pauseGuardian",
      "outputs": [
        {
          "internalType": "address",
          "name": "",
          "type": "address"
        }
      ],
      "stateMutability": "view",
      "type": "function"
    },
    {
      "inputs": [
        {
          "internalType": "string",
          "name": "tmp",
          "type": "string"
        }
      ],
      "name": "test",
      "outputs": [
        {
          "internalType": "string",
          "name": "",
          "type": "string"
        }
      ],
      "stateMutability": "pure",
      "type": "function"
    },
    {
      "inputs": [
        {
          "internalType": "address",
          "name": "",
          "type": "address"
        }
      ],
      "name": "totalsCollateral",
      "outputs": [
        {
          "internalType": "uint128",
          "name": "totalSupplyAsset",
          "type": "uint128"
        },
        {
          "internalType": "uint128",
          "name": "_reserved",
          "type": "uint128"
        }
      ],
      "stateMutability": "view",
      "type": "function"
    },
    {
      "inputs": [
        {
          "internalType": "address",
          "name": "",
          "type": "address"
        }
      ],
      "name": "userBasic",
      "outputs": [
        {
          "internalType": "uint128",
          "name": "pricipal",
          "type": "uint128"
        },
        {
          "internalType": "uint64",
          "name": "baseTrackingIndex",
          "type": "uint64"
        },
        {
          "internalType": "uint64",
          "name": "baseTrackingAccrued",
          "type": "uint64"
        }
      ],
      "stateMutability": "view",
      "type": "function"
    }
  ],
  "transactionHash": "0x4f3a117511f7cd3baa9830f4154d77f5d965941c9c23999f12b411a5b42cec34",
  "args": [],
  "numDeployments": 6,
  "solcInputHash": "c349cc00d094fae798eec88a7b0e2b3b",
  "bytecode": "0x60c060405234801561001057600080fd5b503073ffffffffffffffffffffffffffffffffffffffff1660808173ffffffffffffffffffffffffffffffffffffffff16815250503073ffffffffffffffffffffffffffffffffffffffff1660a08173ffffffffffffffffffffffffffffffffffffffff168152505060805160a05161291561009e60003960006103570152600061026a01526129156000f3fe608060405234801561001057600080fd5b50600436106100b45760003560e01c8063a165437911610071578063a16543791461017e578063b634b8e5146101ae578063cde68041146101cc578063dc4abafd146101fc578063f6f6217d1461022e578063f9fbd55414610238576100b4565b80630c340a24146100b957806312065fe0146100d75780631c9f7fb9146100f557806324a3d622146100ff57806359e017bd1461011d5780638a594f501461014e575b600080fd5b6100c1610268565b6040516100ce9190611ba3565b60405180910390f35b6100df61028c565b6040516100ec9190611cd0565b60405180910390f35b6100fd6102d7565b005b610107610355565b6040516101149190611ba3565b60405180910390f35b61013760048036038101906101329190611d32565b610379565b604051610145929190611d8a565b60405180910390f35b61016860048036038101906101639190611ee8565b6103d5565b6040516101759190611f4a565b60405180910390f35b61019860048036038101906101939190611f65565b610428565b6040516101a59190611fb4565b60405180910390f35b6101b6610457565b6040516101c39190611cd0565b60405180910390f35b6101e660048036038101906101e19190611f65565b6104a2565b6040516101f39190611fb4565b60405180910390f35b61021660048036038101906102119190611d32565b61056c565b60405161022593929190611ff2565b60405180910390f35b6102366105da565b005b610252600480360381019061024d9190611ee8565b6106c2565b60405161025f919061207e565b60405180910390f35b7f000000000000000000000000000000000000000000000000000000000000000081565b610294611ac2565b6102d26040518060400160405280600681526020017f74303130363400000000000000000000000000000000000000000000000000008152506106cc565b905090565b60008060009054906101000a900464ffffffffff1664ffffffffff161461032a576040517f0dc149f000000000000000000000000000000000000000000000000000000000815260040160405180910390fd5b61033261076f565b6000806101000a81548164ffffffffff021916908364ffffffffff160217905550565b7f000000000000000000000000000000000000000000000000000000000000000081565b60016020528060005260406000206000915090508060000160009054906101000a90046fffffffffffffffffffffffffffffffff16908060000160109054906101000a90046fffffffffffffffffffffffffffffffff16905082565b6000806103e1836106cc565b90507fa2ddd6267efd2f6d55932aa34c682b9e61e408a2f4267a45334fa90a5247d210816000015160405161041691906120dd565b60405180910390a1607b915050919050565b60026020528160005260406000206020528060005260406000206000915091509054906101000a900460ff1681565b61045f611ac2565b61049d6040518060400160405280600681526020017f74303130363400000000000000000000000000000000000000000000000000008152506106cc565b905090565b60008173ffffffffffffffffffffffffffffffffffffffff168373ffffffffffffffffffffffffffffffffffffffff1614806105645750600260008473ffffffffffffffffffffffffffffffffffffffff1673ffffffffffffffffffffffffffffffffffffffff16815260200190815260200160002060008373ffffffffffffffffffffffffffffffffffffffff1673ffffffffffffffffffffffffffffffffffffffff16815260200190815260200160002060009054906101000a900460ff165b905092915050565b60036020528060005260406000206000915090508060000160009054906101000a90046fffffffffffffffffffffffffffffffff16908060000160109054906101000a900467ffffffffffffffff16908060000160189054906101000a900467ffffffffffffffff16905083565b6105e2611adb565b600060405180604001604052806040518060400160405280600281526020017f100000000000000000000000000000000000000000000000000000000000000081525081526020016000151581525090508082602001819052506103e8826040019067ffffffffffffffff16908167ffffffffffffffff16815250506040518060600160405280602a81526020016128b6602a913982600001819052506106be6040518060400160405280600681526020017f7430313832330000000000000000000000000000000000000000000000000000815250836107b6565b5050565b6060819050919050565b6106d4611ac2565b60008067ffffffffffffffff8111156106f0576106ef611dbd565b5b6040519080825280601f01601f1916602001820160405280156107225781602001600182028036833780820191505090505b509050600061073963eff983fa85846000346107e9565b9050600061074682610924565b9050610750611ac2565b6107638282610a1590919063ffffffff16565b80945050505050919050565b60006501000000000042106107b0576040517f3d32ffdb00000000000000000000000000000000000000000000000000000000815260040160405180910390fd5b42905090565b60006107c182610ac8565b905060006107d7635d9dfc2c85846071346107e9565b90506107e281610924565b5050505050565b606060008073fe0000000000000000000000000000000000000373ffffffffffffffffffffffffffffffffffffffff1688856000888a8c60405160200161083596959493929190612162565b604051602081830303815290604052604051610851919061220d565b600060405180830381855af49150503d806000811461088c576040519150601f19603f3d011682016040523d82523d6000602084013e610891565b606091505b509150915060011515821515146040518060400160405280601181526020017f6163746f722063616c6c206661696c656400000000000000000000000000000081525090610915576040517f08c379a000000000000000000000000000000000000000000000000000000000815260040161090c919061207e565b60405180910390fd5b50809250505095945050505050565b606060008060008480602001905181019061093f919061231d565b925092509250600067ffffffffffffffff168267ffffffffffffffff16148061097c5750607167ffffffffffffffff168267ffffffffffffffff16145b6109bb576040517f08c379a00000000000000000000000000000000000000000000000000000000081526004016109b2906123d8565b60405180910390fd5b600083146109c884610b4a565b90610a09576040517f08c379a0000000000000000000000000000000000000000000000000000000008152600401610a00919061207e565b60405180910390fd5b50809350505050919050565b60006060610a2c8284610bb490919063ffffffff16565b8093508192505050600081511115610a5457610a4781610d5e565b8460000181905250610ac2565b6040518060400160405280600067ffffffffffffffff811115610a7a57610a79611dbd565b5b6040519080825280601f01601f191660200182016040528015610aac5781602001600182028036833780820191505090505b5081526020016000151581525084600001819052505b50505050565b60606000610ad66040610f05565b9050610aec600382610f2c90919063ffffffff16565b610b03836000015182610f3c90919063ffffffff16565b610b22610b138460200151610f65565b82610f3c90919063ffffffff16565b610b398360400151826110c290919063ffffffff16565b610b42816110d2565b915050919050565b60606000821215610b8457610b5e8261112b565b604051602001610b6e919061245a565b6040516020818303038152906040529050610baf565b610b8d8261112b565b604051602001610b9d919061245a565b60405160208183030381529060405290505b919050565b60606000806000610bc586866111f9565b8167ffffffffffffffff169150809750819350829450505050600660ff168260ff161480610bf95750600260ff168260ff16145b610c0657610c05612480565b5b600660ff168260ff1603610c4f57610c1e86866111f9565b8167ffffffffffffffff169150809750819350829450505050600260ff168260ff1614610c4e57610c4d612480565b5b5b60008186610c5d91906124de565b905060008267ffffffffffffffff811115610c7b57610c7a611dbd565b5b6040519080825280601f01601f191660200182016040528015610cad5781602001600182028036833780820191505090505b5090506000808890505b83811015610d4057898181518110610cd257610cd1612512565b5b602001015160f81c60f81b838381518110610cf057610cef612512565b5b60200101907effffffffffffffffffffffffffffffffffffffffffffffffffffffffffffff1916908160001a9053508180610d2a90612541565b9250508080610d3890612541565b915050610cb7565b50818489610d4e91906124de565b9650965050505050509250929050565b610d66611b0c565b6000825103610da457604051806040016040528060405180604001604052806001815260200160008152508152602001600015158152509050610f00565b600060018351610db49190612589565b67ffffffffffffffff811115610dcd57610dcc611dbd565b5b6040519080825280601f01601f191660200182016040528015610dff5781602001600182028036833780820191505090505b5090506000600160f81b84600081518110610e1d57610e1c612512565b5b602001015160f81c60f81b7effffffffffffffffffffffffffffffffffffffffffffffffffffffffffffff191603610e5457600190505b6000600190505b8451811015610ee357848181518110610e7757610e76612512565b5b602001015160f81c60f81b83600183610e909190612589565b81518110610ea157610ea0612512565b5b60200101907effffffffffffffffffffffffffffffffffffffffffffffffffffffffffffff1916908160001a9053508080610edb90612541565b915050610e5b565b506040518060400160405280838152602001821515815250925050505b919050565b610f0d611b28565b610f1b816000015183611387565b506000816020018181525050919050565b610f3882600483611400565b5050565b610f498260028351611410565b610f608183600001516115b990919063ffffffff16565b505050565b606060006001836000015151610f7b91906124de565b67ffffffffffffffff811115610f9457610f93611dbd565b5b6040519080825280601f01601f191660200182016040528015610fc65781602001600182028036833780820191505090505b50905082602001511561101c57600160f81b81600081518110610fec57610feb612512565b5b60200101907effffffffffffffffffffffffffffffffffffffffffffffffffffffffffffff1916908160001a9053505b60006001905060005b8460000151518110156110b7578460000151818151811061104957611048612512565b5b602001015160f81c60f81b83838151811061106757611066612512565b5b60200101907effffffffffffffffffffffffffffffffffffffffffffffffffffffffffffff1916908160001a90535081806110a190612541565b92505080806110af90612541565b915050611025565b508192505050919050565b6110ce82600083611410565b5050565b6060600082602001511461111b576040517f08c379a000000000000000000000000000000000000000000000000000000000815260040161111290612609565b60405180910390fd5b8160000151600001519050919050565b60606000600161113a846115d5565b01905060008167ffffffffffffffff81111561115957611158611dbd565b5b6040519080825280601f01601f19166020018201604052801561118b5781602001600182028036833780820191505090505b509050600082602001820190505b6001156111ee578080600190039150507f3031323334353637383961626364656600000000000000000000000000000000600a86061a8153600a85816111e2576111e1612629565b5b04945060008503611199575b819350505050919050565b6000806000806112098686611728565b905060018561121891906124de565b94506000600560e0831660ff16901c90506000601f83169050601c8160ff161061124557611244612480565b5b60188160ff161015611268578181888160ff169150955095509550505050611380565b60188160ff16036112bd57600061127f8989611728565b905060018861128e91906124de565b975060188160ff1610156112a5576112a4612480565b5b8281898160ff16915096509650965050505050611380565b60198160ff16036112fe5760006112d4898961178f565b90506002886112e391906124de565b97508281898161ffff16915096509650965050505050611380565b601a8160ff160361134157600061131589896117f6565b905060048861132491906124de565b97508281898163ffffffff16915096509650965050505050611380565b601b8160ff161461135557611354612480565b5b6000611361898961185d565b905060088861137091906124de565b9750828189965096509650505050505b9250925092565b61138f611b48565b600060208361139e9190612658565b146113ca576020826113b09190612658565b60206113bc9190612589565b826113c791906124de565b91505b8183602001818152505060405180845260008152828101602001818110156113f157600080fd5b80604052505082905092915050565b61140b838383611410565b505050565b60178167ffffffffffffffff161161144b576114458160058460ff16901b60ff161784600001516118c490919063ffffffff16565b506115b4565b60ff8167ffffffffffffffff16116114a95761147e601860058460ff16901b1784600001516118c490919063ffffffff16565b506114a38167ffffffffffffffff166001856000015161192e9092919063ffffffff16565b506115b3565b61ffff8167ffffffffffffffff1611611508576114dd601960058460ff16901b1784600001516118c490919063ffffffff16565b506115028167ffffffffffffffff166002856000015161192e9092919063ffffffff16565b506115b2565b63ffffffff8167ffffffffffffffff16116115695761153e601a60058460ff16901b1784600001516118c490919063ffffffff16565b506115638167ffffffffffffffff166004856000015161192e9092919063ffffffff16565b506115b1565b61158a601b60058460ff16901b1784600001516118c490919063ffffffff16565b506115af8167ffffffffffffffff166008856000015161192e9092919063ffffffff16565b505b5b5b5b505050565b6115c1611b48565b6115cd838384516119bb565b905092915050565b600080600090507a184f03e93ff9f4daa797ed6e38ed64bf6a1f0100000000000000008310611633577a184f03e93ff9f4daa797ed6e38ed64bf6a1f010000000000000000838161162957611628612629565b5b0492506040810190505b6d04ee2d6d415b85acef81000000008310611670576d04ee2d6d415b85acef8100000000838161166657611665612629565b5b0492506020810190505b662386f26fc10000831061169f57662386f26fc10000838161169557611694612629565b5b0492506010810190505b6305f5e10083106116c8576305f5e10083816116be576116bd612629565b5b0492506008810190505b61271083106116ed5761271083816116e3576116e2612629565b5b0492506004810190505b60648310611710576064838161170657611705612629565b5b0492506002810190505b600a831061171f576001810190505b80915050919050565b600060018261173791906124de565b8351101561177a576040517f08c379a0000000000000000000000000000000000000000000000000000000008152600401611771906126d5565b60405180910390fd5b60008260010184015190508091505092915050565b600060028261179e91906124de565b835110156117e1576040517f08c379a00000000000000000000000000000000000000000000000000000000081526004016117d8906126d5565b60405180910390fd5b60008260020184015190508091505092915050565b600060048261180591906124de565b83511015611848576040517f08c379a000000000000000000000000000000000000000000000000000000000815260040161183f906126d5565b60405180910390fd5b60008260040184015190508091505092915050565b600060088261186c91906124de565b835110156118af576040517f08c379a00000000000000000000000000000000000000000000000000000000081526004016118a6906126d5565b60405180910390fd5b60008260080184015190508091505092915050565b6118cc611b48565b6000836000015151905060006001826118e591906124de565b905084602001518210611909576119088560028361190391906126f5565b611a9e565b5b84516020838201018581538151831115611921578282525b5050849250505092915050565b611936611b48565b600084600001515190506000818461194e91906124de565b90508560200151811115611973576119728660028361196d91906126f5565b611a9e565b5b6000600185610100611985919061286a565b61198f9190612589565b9050865182810187831982511617815281518411156119ac578382525b50508693505050509392505050565b6119c3611b48565b82518211156119d157600080fd5b60008460000151519050600083826119e991906124de565b90508560200151811115611a0e57611a0d86600283611a0891906126f5565b611a9e565b5b60008087518051856020830101935080851115611a29578482525b60208901925050505b60208610611a705780518252602082611a4b91906124de565b9150602081611a5a91906124de565b9050602086611a699190612589565b9550611a32565b60006001876020036101000a0390508019825116818451168181178552505050879450505050509392505050565b600082600001519050611ab18383611387565b50611abc83826115b9565b50505050565b6040518060200160405280611ad5611b0c565b81525090565b604051806060016040528060608152602001611af5611b0c565b8152602001600067ffffffffffffffff1681525090565b6040518060400160405280606081526020016000151581525090565b6040518060400160405280611b3b611b48565b8152602001600081525090565b604051806040016040528060608152602001600081525090565b600073ffffffffffffffffffffffffffffffffffffffff82169050919050565b6000611b8d82611b62565b9050919050565b611b9d81611b82565b82525050565b6000602082019050611bb86000830184611b94565b92915050565b600081519050919050565b600082825260208201905092915050565b60005b83811015611bf8578082015181840152602081019050611bdd565b60008484015250505050565b6000601f19601f8301169050919050565b6000611c2082611bbe565b611c2a8185611bc9565b9350611c3a818560208601611bda565b611c4381611c04565b840191505092915050565b60008115159050919050565b611c6381611c4e565b82525050565b60006040830160008301518482036000860152611c868282611c15565b9150506020830151611c9b6020860182611c5a565b508091505092915050565b60006020830160008301518482036000860152611cc38282611c69565b9150508091505092915050565b60006020820190508181036000830152611cea8184611ca6565b905092915050565b6000604051905090565b600080fd5b600080fd5b611d0f81611b82565b8114611d1a57600080fd5b50565b600081359050611d2c81611d06565b92915050565b600060208284031215611d4857611d47611cfc565b5b6000611d5684828501611d1d565b91505092915050565b60006fffffffffffffffffffffffffffffffff82169050919050565b611d8481611d5f565b82525050565b6000604082019050611d9f6000830185611d7b565b611dac6020830184611d7b565b9392505050565b600080fd5b600080fd5b7f4e487b7100000000000000000000000000000000000000000000000000000000600052604160045260246000fd5b611df582611c04565b810181811067ffffffffffffffff82111715611e1457611e13611dbd565b5b80604052505050565b6000611e27611cf2565b9050611e338282611dec565b919050565b600067ffffffffffffffff821115611e5357611e52611dbd565b5b611e5c82611c04565b9050602081019050919050565b82818337600083830152505050565b6000611e8b611e8684611e38565b611e1d565b905082815260208101848484011115611ea757611ea6611db8565b5b611eb2848285611e69565b509392505050565b600082601f830112611ecf57611ece611db3565b5b8135611edf848260208601611e78565b91505092915050565b600060208284031215611efe57611efd611cfc565b5b600082013567ffffffffffffffff811115611f1c57611f1b611d01565b5b611f2884828501611eba565b91505092915050565b6000819050919050565b611f4481611f31565b82525050565b6000602082019050611f5f6000830184611f3b565b92915050565b60008060408385031215611f7c57611f7b611cfc565b5b6000611f8a85828601611d1d565b9250506020611f9b85828601611d1d565b9150509250929050565b611fae81611c4e565b82525050565b6000602082019050611fc96000830184611fa5565b92915050565b600067ffffffffffffffff82169050919050565b611fec81611fcf565b82525050565b60006060820190506120076000830186611d7b565b6120146020830185611fe3565b6120216040830184611fe3565b949350505050565b600081519050919050565b600082825260208201905092915050565b600061205082612029565b61205a8185612034565b935061206a818560208601611bda565b61207381611c04565b840191505092915050565b600060208201905081810360008301526120988184612045565b905092915050565b600060408301600083015184820360008601526120bd8282611c15565b91505060208301516120d26020860182611c5a565b508091505092915050565b600060208201905081810360008301526120f781846120a0565b905092915050565b6000819050919050565b612112816120ff565b82525050565b600082825260208201905092915050565b600061213482611bbe565b61213e8185612118565b935061214e818560208601611bda565b61215781611c04565b840191505092915050565b600060c0820190506121776000830189611fe3565b6121846020830188612109565b6121916040830187611fe3565b61219e6060830186611fe3565b81810360808301526121b08185612129565b905081810360a08301526121c48184612129565b9050979650505050505050565b600081905092915050565b60006121e782611bbe565b6121f181856121d1565b9350612201818560208601611bda565b80840191505092915050565b600061221982846121dc565b915081905092915050565b61222d81611f31565b811461223857600080fd5b50565b60008151905061224a81612224565b92915050565b61225981611fcf565b811461226457600080fd5b50565b60008151905061227681612250565b92915050565b600067ffffffffffffffff82111561229757612296611dbd565b5b6122a082611c04565b9050602081019050919050565b60006122c06122bb8461227c565b611e1d565b9050828152602081018484840111156122dc576122db611db8565b5b6122e7848285611bda565b509392505050565b600082601f83011261230457612303611db3565b5b81516123148482602086016122ad565b91505092915050565b60008060006060848603121561233657612335611cfc565b5b60006123448682870161223b565b935050602061235586828701612267565b925050604084015167ffffffffffffffff81111561237657612375611d01565b5b612382868287016122ef565b9150509250925092565b7f726573706f6e736520636f646563206e6f7420737570706f7274656400000000600082015250565b60006123c2601c83612034565b91506123cd8261238c565b602082019050919050565b600060208201905081810360008301526123f1816123b5565b9050919050565b7f6163746f72206572726f7220636f6465202d0000000000000000000000000000815250565b600081905092915050565b600061243482612029565b61243e818561241e565b935061244e818560208601611bda565b80840191505092915050565b6000612465826123f8565b6012820191506124758284612429565b915081905092915050565b7f4e487b7100000000000000000000000000000000000000000000000000000000600052600160045260246000fd5b7f4e487b7100000000000000000000000000000000000000000000000000000000600052601160045260246000fd5b60006124e9826120ff565b91506124f4836120ff565b925082820190508082111561250c5761250b6124af565b5b92915050565b7f4e487b7100000000000000000000000000000000000000000000000000000000600052603260045260246000fd5b600061254c826120ff565b91507fffffffffffffffffffffffffffffffffffffffffffffffffffffffffffffffff820361257e5761257d6124af565b5b600182019050919050565b6000612594826120ff565b915061259f836120ff565b92508282039050818111156125b7576125b66124af565b5b92915050565b7f496e76616c69642043424f520000000000000000000000000000000000000000600082015250565b60006125f3600c83612034565b91506125fe826125bd565b602082019050919050565b60006020820190508181036000830152612622816125e6565b9050919050565b7f4e487b7100000000000000000000000000000000000000000000000000000000600052601260045260246000fd5b6000612663826120ff565b915061266e836120ff565b92508261267e5761267d612629565b5b828206905092915050565b7f736c6963696e67206f7574206f662072616e6765000000000000000000000000600082015250565b60006126bf601483612034565b91506126ca82612689565b602082019050919050565b600060208201905081810360008301526126ee816126b2565b9050919050565b6000612700826120ff565b915061270b836120ff565b9250828202612719816120ff565b915082820484148315176127305761272f6124af565b5b5092915050565b60008160011c9050919050565b6000808291508390505b600185111561278e5780860481111561276a576127696124af565b5b60018516156127795780820291505b808102905061278785612737565b945061274e565b94509492505050565b6000826127a75760019050612863565b816127b55760009050612863565b81600181146127cb57600281146127d557612804565b6001915050612863565b60ff8411156127e7576127e66124af565b5b8360020a9150848211156127fe576127fd6124af565b5b50612863565b5060208310610133831016604e8410600b84101617156128395782820a905083811115612834576128336124af565b5b612863565b6128468484846001612744565b9250905081840481111561285d5761285c6124af565b5b81810290505b9392505050565b6000612875826120ff565b9150612880836120ff565b92506128ad7fffffffffffffffffffffffffffffffffffffffffffffffffffffffffffffffff8484612797565b90509291505056fe307834374331436262314436373642343436346331394335633538646561413530624134363843363942a2646970667358221220bc1251b16bddc22ee30f3e409431e24e27b11e4141f6b5e46a59c72a16b82dab64736f6c63430008110033",
  "devdoc": {
    "kind": "dev",
    "methods": {},
    "version": 1
  },
  "userdoc": {
    "kind": "user",
    "methods": {},
    "version": 1
  },
  "storageLayout": {
    "storage": [
      {
        "astId": 6067,
        "contract": "contracts/Filfi.sol:Filfi",
        "label": "lastAccrualTime",
        "offset": 0,
        "slot": "0",
        "type": "t_uint40"
      },
      {
        "astId": 6069,
        "contract": "contracts/Filfi.sol:Filfi",
        "label": "pauseFlags",
        "offset": 5,
        "slot": "0",
        "type": "t_uint8"
      },
      {
        "astId": 6074,
        "contract": "contracts/Filfi.sol:Filfi",
        "label": "totalsCollateral",
        "offset": 0,
        "slot": "1",
        "type": "t_mapping(t_address,t_struct(TotalsCollateral)6079_storage)"
      },
      {
        "astId": 6085,
        "contract": "contracts/Filfi.sol:Filfi",
        "label": "isAllowed",
        "offset": 0,
        "slot": "2",
        "type": "t_mapping(t_address,t_mapping(t_address,t_bool))"
      },
      {
        "astId": 6090,
        "contract": "contracts/Filfi.sol:Filfi",
        "label": "userBasic",
        "offset": 0,
        "slot": "3",
        "type": "t_mapping(t_address,t_struct(UserBasic)6097_storage)"
      }
    ],
    "types": {
      "t_address": {
        "encoding": "inplace",
        "label": "address",
        "numberOfBytes": "20"
      },
      "t_bool": {
        "encoding": "inplace",
        "label": "bool",
        "numberOfBytes": "1"
      },
      "t_mapping(t_address,t_bool)": {
        "encoding": "mapping",
        "key": "t_address",
        "label": "mapping(address => bool)",
        "numberOfBytes": "32",
        "value": "t_bool"
      },
      "t_mapping(t_address,t_mapping(t_address,t_bool))": {
        "encoding": "mapping",
        "key": "t_address",
        "label": "mapping(address => mapping(address => bool))",
        "numberOfBytes": "32",
        "value": "t_mapping(t_address,t_bool)"
      },
      "t_mapping(t_address,t_struct(TotalsCollateral)6079_storage)": {
        "encoding": "mapping",
        "key": "t_address",
        "label": "mapping(address => struct FilfiStorage.TotalsCollateral)",
        "numberOfBytes": "32",
        "value": "t_struct(TotalsCollateral)6079_storage"
      },
      "t_mapping(t_address,t_struct(UserBasic)6097_storage)": {
        "encoding": "mapping",
        "key": "t_address",
        "label": "mapping(address => struct FilfiStorage.UserBasic)",
        "numberOfBytes": "32",
        "value": "t_struct(UserBasic)6097_storage"
      },
      "t_struct(TotalsCollateral)6079_storage": {
        "encoding": "inplace",
        "label": "struct FilfiStorage.TotalsCollateral",
        "members": [
          {
            "astId": 6076,
            "contract": "contracts/Filfi.sol:Filfi",
            "label": "totalSupplyAsset",
            "offset": 0,
            "slot": "0",
            "type": "t_uint128"
          },
          {
            "astId": 6078,
            "contract": "contracts/Filfi.sol:Filfi",
            "label": "_reserved",
            "offset": 16,
            "slot": "0",
            "type": "t_uint128"
          }
        ],
        "numberOfBytes": "32"
      },
      "t_struct(UserBasic)6097_storage": {
        "encoding": "inplace",
        "label": "struct FilfiStorage.UserBasic",
        "members": [
          {
            "astId": 6092,
            "contract": "contracts/Filfi.sol:Filfi",
            "label": "pricipal",
            "offset": 0,
            "slot": "0",
            "type": "t_uint128"
          },
          {
            "astId": 6094,
            "contract": "contracts/Filfi.sol:Filfi",
            "label": "baseTrackingIndex",
            "offset": 16,
            "slot": "0",
            "type": "t_uint64"
          },
          {
            "astId": 6096,
            "contract": "contracts/Filfi.sol:Filfi",
            "label": "baseTrackingAccrued",
            "offset": 24,
            "slot": "0",
            "type": "t_uint64"
          }
        ],
        "numberOfBytes": "32"
      },
      "t_uint128": {
        "encoding": "inplace",
        "label": "uint128",
        "numberOfBytes": "16"
      },
      "t_uint40": {
        "encoding": "inplace",
        "label": "uint40",
        "numberOfBytes": "5"
      },
      "t_uint64": {
        "encoding": "inplace",
        "label": "uint64",
        "numberOfBytes": "8"
      },
      "t_uint8": {
        "encoding": "inplace",
        "label": "uint8",
        "numberOfBytes": "1"
      }
    }
  }
}