{
  "address": "0xB46Cd4DFd682fb7e930082D2C5A988751981f379",
  "abi": [
    {
      "inputs": [],
      "stateMutability": "nonpayable",
      "type": "constructor"
    },
    {
      "inputs": [],
      "name": "AlreadyInitialized",
      "type": "error"
    },
    {
      "inputs": [],
      "name": "ChangeBeneficiaryFailed",
      "type": "error"
    },
    {
      "inputs": [],
      "name": "InvalidInt104",
      "type": "error"
    },
    {
      "inputs": [],
      "name": "InvalidInt256",
      "type": "error"
    },
    {
      "inputs": [],
      "name": "InvalidUInt104",
      "type": "error"
    },
    {
      "inputs": [],
      "name": "InvalidUInt128",
      "type": "error"
    },
    {
      "inputs": [],
      "name": "InvalidUInt64",
      "type": "error"
    },
    {
      "inputs": [],
      "name": "NegativeNumber",
      "type": "error"
    },
    {
      "inputs": [],
      "name": "TimestampTooLarge",
      "type": "error"
    },
    {
      "inputs": [],
      "name": "TransferInFailed",
      "type": "error"
    },
    {
      "inputs": [],
      "name": "TransferOutFailed",
      "type": "error"
    },
    {
      "inputs": [],
      "name": "Unauthorized",
      "type": "error"
    },
    {
      "anonymous": false,
      "inputs": [
        {
          "indexed": true,
          "internalType": "address",
          "name": "dst",
          "type": "address"
        },
        {
          "indexed": false,
          "internalType": "uint256",
          "name": "amount",
          "type": "uint256"
        }
      ],
      "name": "Borrow",
      "type": "event"
    },
    {
      "anonymous": false,
      "inputs": [
        {
          "indexed": true,
          "internalType": "address",
          "name": "to",
          "type": "address"
        },
        {
          "indexed": false,
          "internalType": "uint256",
          "name": "amount",
          "type": "uint256"
        }
      ],
      "name": "InterestWithdraw",
      "type": "event"
    },
    {
      "anonymous": false,
      "inputs": [
        {
          "components": [
            {
              "internalType": "bytes",
              "name": "val",
              "type": "bytes"
            },
            {
              "internalType": "bool",
              "name": "neg",
              "type": "bool"
            }
          ],
          "indexed": false,
          "internalType": "struct BigInt",
          "name": "msg",
          "type": "tuple"
        }
      ],
      "name": "Logger",
      "type": "event"
    },
    {
      "anonymous": false,
      "inputs": [
        {
          "indexed": true,
          "internalType": "address",
          "name": "src",
          "type": "address"
        },
        {
          "indexed": true,
          "internalType": "address",
          "name": "dst",
          "type": "address"
        },
        {
          "indexed": true,
          "internalType": "address",
          "name": "miner",
          "type": "address"
        }
      ],
      "name": "Pledge",
      "type": "event"
    },
    {
      "anonymous": false,
      "inputs": [
        {
          "indexed": true,
          "internalType": "address",
          "name": "src",
          "type": "address"
        },
        {
          "indexed": false,
          "internalType": "uint256",
          "name": "amount",
          "type": "uint256"
        }
      ],
      "name": "Repay",
      "type": "event"
    },
    {
      "anonymous": false,
      "inputs": [
        {
          "indexed": true,
          "internalType": "address",
          "name": "from",
          "type": "address"
        },
        {
          "indexed": true,
          "internalType": "address",
          "name": "dst",
          "type": "address"
        },
        {
          "indexed": false,
          "internalType": "uint256",
          "name": "amount",
          "type": "uint256"
        }
      ],
      "name": "Supply",
      "type": "event"
    },
    {
      "anonymous": false,
      "inputs": [
        {
          "indexed": true,
          "internalType": "address",
          "name": "src",
          "type": "address"
        },
        {
          "indexed": true,
          "internalType": "address",
          "name": "dst",
          "type": "address"
        },
        {
          "indexed": true,
          "internalType": "address",
          "name": "miner",
          "type": "address"
        }
      ],
      "name": "Unpledge",
      "type": "event"
    },
    {
      "anonymous": false,
      "inputs": [
        {
          "indexed": true,
          "internalType": "address",
          "name": "src",
          "type": "address"
        },
        {
          "indexed": true,
          "internalType": "address",
          "name": "to",
          "type": "address"
        },
        {
          "indexed": false,
          "internalType": "uint256",
          "name": "amount",
          "type": "uint256"
        }
      ],
      "name": "Withdraw",
      "type": "event"
    },
    {
      "inputs": [],
      "name": "baseToken",
      "outputs": [
        {
          "internalType": "address",
          "name": "",
          "type": "address"
        }
      ],
      "stateMutability": "view",
      "type": "function"
    },
    {
      "inputs": [],
      "name": "changeBeneficiary",
      "outputs": [],
      "stateMutability": "nonpayable",
      "type": "function"
    },
    {
      "inputs": [],
      "name": "getAvailableBalance",
      "outputs": [
        {
          "components": [
            {
              "components": [
                {
                  "internalType": "bytes",
                  "name": "val",
                  "type": "bytes"
                },
                {
                  "internalType": "bool",
                  "name": "neg",
                  "type": "bool"
                }
              ],
              "internalType": "struct BigInt",
              "name": "available_balance",
              "type": "tuple"
            }
          ],
          "internalType": "struct MinerTypes.GetAvailableBalanceReturn",
          "name": "",
          "type": "tuple"
        }
      ],
      "stateMutability": "nonpayable",
      "type": "function"
    },
    {
      "inputs": [
        {
          "internalType": "string",
          "name": "target",
          "type": "string"
        }
      ],
      "name": "getAvailableBalance",
      "outputs": [
        {
          "components": [
            {
              "internalType": "bytes",
              "name": "val",
              "type": "bytes"
            },
            {
              "internalType": "bool",
              "name": "neg",
              "type": "bool"
            }
          ],
          "internalType": "struct BigInt",
          "name": "",
          "type": "tuple"
        }
      ],
      "stateMutability": "nonpayable",
      "type": "function"
    },
    {
      "inputs": [],
      "name": "governor",
      "outputs": [
        {
          "internalType": "address",
          "name": "",
          "type": "address"
        }
      ],
      "stateMutability": "view",
      "type": "function"
    },
    {
      "inputs": [
        {
          "internalType": "address",
          "name": "owner",
          "type": "address"
        },
        {
          "internalType": "address",
          "name": "manager",
          "type": "address"
        }
      ],
      "name": "hasPermission",
      "outputs": [
        {
          "internalType": "bool",
          "name": "",
          "type": "bool"
        }
      ],
      "stateMutability": "view",
      "type": "function"
    },
    {
      "inputs": [],
      "name": "initializeStorage",
      "outputs": [],
      "stateMutability": "nonpayable",
      "type": "function"
    },
    {
      "inputs": [
        {
          "internalType": "address",
          "name": "",
          "type": "address"
        },
        {
          "internalType": "address",
          "name": "",
          "type": "address"
        }
      ],
      "name": "isAllowed",
      "outputs": [
        {
          "internalType": "bool",
          "name": "",
          "type": "bool"
        }
      ],
      "stateMutability": "view",
      "type": "function"
    },
    {
      "inputs": [
        {
          "internalType": "address",
          "name": "",
          "type": "address"
        },
        {
          "internalType": "address",
          "name": "",
          "type": "address"
        }
      ],
      "name": "nodeAssets",
      "outputs": [
        {
          "internalType": "address",
          "name": "miner",
          "type": "address"
        },
        {
          "internalType": "uint128",
          "name": "pledgedAmt",
          "type": "uint128"
        },
        {
          "internalType": "uint128",
          "name": "balance",
          "type": "uint128"
        },
        {
          "internalType": "uint128",
          "name": "canBorrowedBalance",
          "type": "uint128"
        },
        {
          "internalType": "uint128",
          "name": "beneficiaryWithdrawnAmt",
          "type": "uint128"
        }
      ],
      "stateMutability": "view",
      "type": "function"
    },
    {
      "inputs": [],
      "name": "pauseGuardian",
      "outputs": [
        {
          "internalType": "address",
          "name": "",
          "type": "address"
        }
      ],
      "stateMutability": "view",
      "type": "function"
    },
    {
      "inputs": [
        {
          "internalType": "string",
          "name": "tmp",
          "type": "string"
        }
      ],
      "name": "test",
      "outputs": [
        {
          "internalType": "string",
          "name": "",
          "type": "string"
        }
      ],
      "stateMutability": "pure",
      "type": "function"
    },
    {
      "inputs": [
        {
          "internalType": "address",
          "name": "",
          "type": "address"
        }
      ],
      "name": "userAccounts",
      "outputs": [
        {
          "internalType": "uint104",
          "name": "supplyBalance",
          "type": "uint104"
        },
        {
          "internalType": "uint104",
          "name": "borrowBalance",
          "type": "uint104"
        },
        {
          "internalType": "uint40",
          "name": "lastAccrualTime",
          "type": "uint40"
        },
        {
          "internalType": "uint64",
          "name": "supplyTotalInterest",
          "type": "uint64"
        },
        {
          "internalType": "uint64",
          "name": "unClaimSupplyInterest",
          "type": "uint64"
        },
        {
          "internalType": "uint64",
          "name": "borrowTotalInterest",
          "type": "uint64"
        },
        {
          "internalType": "uint64",
          "name": "unClaimBorrowInterest",
          "type": "uint64"
        },
        {
          "internalType": "uint128",
          "name": "canBorrowedBalance",
          "type": "uint128"
        }
      ],
      "stateMutability": "view",
      "type": "function"
    }
  ],
  "transactionHash": "0xa9209f5bebcdfc578d3de87a471bbb9e6ce8bb04a78563eea2216c8dc4425c02",
  "args": [],
  "numDeployments": 7,
  "solcInputHash": "d3861203e5c494acca39df61542da4ae",
  "bytecode": "0x60806040523480156200001157600080fd5b50306000806101000a81548173ffffffffffffffffffffffffffffffffffffffff021916908373ffffffffffffffffffffffffffffffffffffffff16021790555030600160006101000a81548173ffffffffffffffffffffffffffffffffffffffff021916908373ffffffffffffffffffffffffffffffffffffffff16021790555030600260006101000a81548173ffffffffffffffffffffffffffffffffffffffff021916908373ffffffffffffffffffffffffffffffffffffffff1602179055506301e13380662386f26fc100006007620000ef9190620001f9565b620000fb91906200026e565b600260146101000a81548167ffffffffffffffff021916908367ffffffffffffffff1602179055506301e13380662386f26fc1000060036200013e9190620001f9565b6200014a91906200026e565b600360006101000a81548167ffffffffffffffff021916908367ffffffffffffffff160217905550662386f26fc100006050620001889190620001f9565b600560006101000a81548167ffffffffffffffff021916908367ffffffffffffffff160217905550620002a6565b600067ffffffffffffffff82169050919050565b7f4e487b7100000000000000000000000000000000000000000000000000000000600052601160045260246000fd5b60006200020682620001b6565b91506200021383620001b6565b92508282026200022381620001b6565b9150808214620002385762000237620001ca565b5b5092915050565b7f4e487b7100000000000000000000000000000000000000000000000000000000600052601260045260246000fd5b60006200027b82620001b6565b91506200028883620001b6565b9250826200029b576200029a6200023f565b5b828204905092915050565b612a9580620002b66000396000f3fe608060405234801561001057600080fd5b50600436106100b45760003560e01c80638a594f50116100715780638a594f5014610188578063a1654379146101b8578063c55dae63146101e8578063cde6804114610206578063f6f6217d14610236578063f9fbd55414610240576100b4565b80630c340a24146100b95780631c9f7fb9146100d757806324a3d622146100e15780635251d91c146100ff5780637ca98acf14610136578063809dab6a1461016a575b600080fd5b6100c1610270565b6040516100ce9190611c94565b60405180910390f35b6100df610294565b005b6100e9610314565b6040516100f69190611c94565b60405180910390f35b61011960048036038101906101149190611cef565b61033a565b60405161012d989796959493929190611db2565b60405180910390f35b610150600480360381019061014b9190611e30565b610431565b604051610161959493929190611e70565b60405180910390f35b610172610504565b60405161017f9190611fd5565b60405180910390f35b6101a2600480360381019061019d919061212c565b61054f565b6040516101af91906121b2565b60405180910390f35b6101d260048036038101906101cd9190611e30565b6105ac565b6040516101df91906121e3565b60405180910390f35b6101f06105db565b6040516101fd9190611c94565b60405180910390f35b610220600480360381019061021b9190611e30565b610601565b60405161022d91906121e3565b60405180910390f35b61023e6106cb565b005b61025a6004803603810190610255919061212c565b6107b3565b6040516102679190612253565b60405180910390f35b60008054906101000a900473ffffffffffffffffffffffffffffffffffffffff1681565b6000600560089054906101000a900464ffffffffff1664ffffffffff16146102e8576040517f0dc149f000000000000000000000000000000000000000000000000000000000815260040160405180910390fd5b6102f06107bd565b600560086101000a81548164ffffffffff021916908364ffffffffff160217905550565b600160009054906101000a900473ffffffffffffffffffffffffffffffffffffffff1681565b60096020528060005260406000206000915090508060000160009054906101000a90046cffffffffffffffffffffffffff169080600001600d9054906101000a90046cffffffffffffffffffffffffff169080600001601a9054906101000a900464ffffffffff16908060010160009054906101000a900467ffffffffffffffff16908060010160089054906101000a900467ffffffffffffffff16908060010160109054906101000a900467ffffffffffffffff16908060010160189054906101000a900467ffffffffffffffff16908060020160009054906101000a90046fffffffffffffffffffffffffffffffff16905088565b600a602052816000526040600020602052806000526040600020600091509150508060000160009054906101000a900473ffffffffffffffffffffffffffffffffffffffff16908060010160009054906101000a90046fffffffffffffffffffffffffffffffff16908060010160109054906101000a90046fffffffffffffffffffffffffffffffff16908060020160009054906101000a90046fffffffffffffffffffffffffffffffff16908060020160109054906101000a90046fffffffffffffffffffffffffffffffff16905085565b61050c611bb3565b61054a6040518060400160405280600681526020017f7430313036340000000000000000000000000000000000000000000000000000815250610804565b905090565b610557611bcc565b600061056283610804565b90507fa2ddd6267efd2f6d55932aa34c682b9e61e408a2f4267a45334fa90a5247d210816000015160405161059791906121b2565b60405180910390a18060000151915050919050565b60086020528160005260406000206020528060005260406000206000915091509054906101000a900460ff1681565b600260009054906101000a900473ffffffffffffffffffffffffffffffffffffffff1681565b60008173ffffffffffffffffffffffffffffffffffffffff168373ffffffffffffffffffffffffffffffffffffffff1614806106c35750600860008473ffffffffffffffffffffffffffffffffffffffff1673ffffffffffffffffffffffffffffffffffffffff16815260200190815260200160002060008373ffffffffffffffffffffffffffffffffffffffff1673ffffffffffffffffffffffffffffffffffffffff16815260200190815260200160002060009054906101000a900460ff165b905092915050565b6106d3611be8565b600060405180604001604052806040518060400160405280600281526020017f100000000000000000000000000000000000000000000000000000000000000081525081526020016000151581525090508082602001819052506103e8826040019067ffffffffffffffff16908167ffffffffffffffff16815250506040518060600160405280602a8152602001612a36602a913982600001819052506107af6040518060400160405280600681526020017f7430313832330000000000000000000000000000000000000000000000000000815250836108a7565b5050565b6060819050919050565b60006501000000000042106107fe576040517f3d32ffdb00000000000000000000000000000000000000000000000000000000815260040160405180910390fd5b42905090565b61080c611bb3565b60008067ffffffffffffffff81111561082857610827612001565b5b6040519080825280601f01601f19166020018201604052801561085a5781602001600182028036833780820191505090505b509050600061087163eff983fa85846000346108da565b9050600061087e82610a15565b9050610888611bb3565b61089b8282610b0690919063ffffffff16565b80945050505050919050565b60006108b282610bb9565b905060006108c8635d9dfc2c85846071346108da565b90506108d381610a15565b5050505050565b606060008073fe0000000000000000000000000000000000000373ffffffffffffffffffffffffffffffffffffffff1688856000888a8c604051602001610926969594939291906122d8565b6040516020818303038152906040526040516109429190612383565b600060405180830381855af49150503d806000811461097d576040519150601f19603f3d011682016040523d82523d6000602084013e610982565b606091505b509150915060011515821515146040518060400160405280601181526020017f6163746f722063616c6c206661696c656400000000000000000000000000000081525090610a06576040517f08c379a00000000000000000000000000000000000000000000000000000000081526004016109fd9190612253565b60405180910390fd5b50809250505095945050505050565b6060600080600084806020019051810190610a30919061249d565b925092509250600067ffffffffffffffff168267ffffffffffffffff161480610a6d5750607167ffffffffffffffff168267ffffffffffffffff16145b610aac576040517f08c379a0000000000000000000000000000000000000000000000000000000008152600401610aa390612558565b60405180910390fd5b60008314610ab984610c3b565b90610afa576040517f08c379a0000000000000000000000000000000000000000000000000000000008152600401610af19190612253565b60405180910390fd5b50809350505050919050565b60006060610b1d8284610ca590919063ffffffff16565b8093508192505050600081511115610b4557610b3881610e4f565b8460000181905250610bb3565b6040518060400160405280600067ffffffffffffffff811115610b6b57610b6a612001565b5b6040519080825280601f01601f191660200182016040528015610b9d5781602001600182028036833780820191505090505b5081526020016000151581525084600001819052505b50505050565b60606000610bc76040610ff6565b9050610bdd60038261101d90919063ffffffff16565b610bf483600001518261102d90919063ffffffff16565b610c13610c048460200151611056565b8261102d90919063ffffffff16565b610c2a8360400151826111b390919063ffffffff16565b610c33816111c3565b915050919050565b60606000821215610c7557610c4f8261121c565b604051602001610c5f91906125da565b6040516020818303038152906040529050610ca0565b610c7e8261121c565b604051602001610c8e91906125da565b60405160208183030381529060405290505b919050565b60606000806000610cb686866112ea565b8167ffffffffffffffff169150809750819350829450505050600660ff168260ff161480610cea5750600260ff168260ff16145b610cf757610cf6612600565b5b600660ff168260ff1603610d4057610d0f86866112ea565b8167ffffffffffffffff169150809750819350829450505050600260ff168260ff1614610d3f57610d3e612600565b5b5b60008186610d4e919061265e565b905060008267ffffffffffffffff811115610d6c57610d6b612001565b5b6040519080825280601f01601f191660200182016040528015610d9e5781602001600182028036833780820191505090505b5090506000808890505b83811015610e3157898181518110610dc357610dc2612692565b5b602001015160f81c60f81b838381518110610de157610de0612692565b5b60200101907effffffffffffffffffffffffffffffffffffffffffffffffffffffffffffff1916908160001a9053508180610e1b906126c1565b9250508080610e29906126c1565b915050610da8565b50818489610e3f919061265e565b9650965050505050509250929050565b610e57611bcc565b6000825103610e9557604051806040016040528060405180604001604052806001815260200160008152508152602001600015158152509050610ff1565b600060018351610ea59190612709565b67ffffffffffffffff811115610ebe57610ebd612001565b5b6040519080825280601f01601f191660200182016040528015610ef05781602001600182028036833780820191505090505b5090506000600160f81b84600081518110610f0e57610f0d612692565b5b602001015160f81c60f81b7effffffffffffffffffffffffffffffffffffffffffffffffffffffffffffff191603610f4557600190505b6000600190505b8451811015610fd457848181518110610f6857610f67612692565b5b602001015160f81c60f81b83600183610f819190612709565b81518110610f9257610f91612692565b5b60200101907effffffffffffffffffffffffffffffffffffffffffffffffffffffffffffff1916908160001a9053508080610fcc906126c1565b915050610f4c565b506040518060400160405280838152602001821515815250925050505b919050565b610ffe611c19565b61100c816000015183611478565b506000816020018181525050919050565b611029826004836114f1565b5050565b61103a8260028351611501565b6110518183600001516116aa90919063ffffffff16565b505050565b60606000600183600001515161106c919061265e565b67ffffffffffffffff81111561108557611084612001565b5b6040519080825280601f01601f1916602001820160405280156110b75781602001600182028036833780820191505090505b50905082602001511561110d57600160f81b816000815181106110dd576110dc612692565b5b60200101907effffffffffffffffffffffffffffffffffffffffffffffffffffffffffffff1916908160001a9053505b60006001905060005b8460000151518110156111a8578460000151818151811061113a57611139612692565b5b602001015160f81c60f81b83838151811061115857611157612692565b5b60200101907effffffffffffffffffffffffffffffffffffffffffffffffffffffffffffff1916908160001a9053508180611192906126c1565b92505080806111a0906126c1565b915050611116565b508192505050919050565b6111bf82600083611501565b5050565b6060600082602001511461120c576040517f08c379a000000000000000000000000000000000000000000000000000000000815260040161120390612789565b60405180910390fd5b8160000151600001519050919050565b60606000600161122b846116c6565b01905060008167ffffffffffffffff81111561124a57611249612001565b5b6040519080825280601f01601f19166020018201604052801561127c5781602001600182028036833780820191505090505b509050600082602001820190505b6001156112df578080600190039150507f3031323334353637383961626364656600000000000000000000000000000000600a86061a8153600a85816112d3576112d26127a9565b5b0494506000850361128a575b819350505050919050565b6000806000806112fa8686611819565b9050600185611309919061265e565b94506000600560e0831660ff16901c90506000601f83169050601c8160ff161061133657611335612600565b5b60188160ff161015611359578181888160ff169150955095509550505050611471565b60188160ff16036113ae5760006113708989611819565b905060018861137f919061265e565b975060188160ff16101561139657611395612600565b5b8281898160ff16915096509650965050505050611471565b60198160ff16036113ef5760006113c58989611880565b90506002886113d4919061265e565b97508281898161ffff16915096509650965050505050611471565b601a8160ff160361143257600061140689896118e7565b9050600488611415919061265e565b97508281898163ffffffff16915096509650965050505050611471565b601b8160ff161461144657611445612600565b5b6000611452898961194e565b9050600888611461919061265e565b9750828189965096509650505050505b9250925092565b611480611c39565b600060208361148f91906127d8565b146114bb576020826114a191906127d8565b60206114ad9190612709565b826114b8919061265e565b91505b8183602001818152505060405180845260008152828101602001818110156114e257600080fd5b80604052505082905092915050565b6114fc838383611501565b505050565b60178167ffffffffffffffff161161153c576115368160058460ff16901b60ff161784600001516119b590919063ffffffff16565b506116a5565b60ff8167ffffffffffffffff161161159a5761156f601860058460ff16901b1784600001516119b590919063ffffffff16565b506115948167ffffffffffffffff1660018560000151611a1f9092919063ffffffff16565b506116a4565b61ffff8167ffffffffffffffff16116115f9576115ce601960058460ff16901b1784600001516119b590919063ffffffff16565b506115f38167ffffffffffffffff1660028560000151611a1f9092919063ffffffff16565b506116a3565b63ffffffff8167ffffffffffffffff161161165a5761162f601a60058460ff16901b1784600001516119b590919063ffffffff16565b506116548167ffffffffffffffff1660048560000151611a1f9092919063ffffffff16565b506116a2565b61167b601b60058460ff16901b1784600001516119b590919063ffffffff16565b506116a08167ffffffffffffffff1660088560000151611a1f9092919063ffffffff16565b505b5b5b5b505050565b6116b2611c39565b6116be83838451611aac565b905092915050565b600080600090507a184f03e93ff9f4daa797ed6e38ed64bf6a1f0100000000000000008310611724577a184f03e93ff9f4daa797ed6e38ed64bf6a1f010000000000000000838161171a576117196127a9565b5b0492506040810190505b6d04ee2d6d415b85acef81000000008310611761576d04ee2d6d415b85acef81000000008381611757576117566127a9565b5b0492506020810190505b662386f26fc10000831061179057662386f26fc100008381611786576117856127a9565b5b0492506010810190505b6305f5e10083106117b9576305f5e10083816117af576117ae6127a9565b5b0492506008810190505b61271083106117de5761271083816117d4576117d36127a9565b5b0492506004810190505b6064831061180157606483816117f7576117f66127a9565b5b0492506002810190505b600a8310611810576001810190505b80915050919050565b6000600182611828919061265e565b8351101561186b576040517f08c379a000000000000000000000000000000000000000000000000000000000815260040161186290612855565b60405180910390fd5b60008260010184015190508091505092915050565b600060028261188f919061265e565b835110156118d2576040517f08c379a00000000000000000000000000000000000000000000000000000000081526004016118c990612855565b60405180910390fd5b60008260020184015190508091505092915050565b60006004826118f6919061265e565b83511015611939576040517f08c379a000000000000000000000000000000000000000000000000000000000815260040161193090612855565b60405180910390fd5b60008260040184015190508091505092915050565b600060088261195d919061265e565b835110156119a0576040517f08c379a000000000000000000000000000000000000000000000000000000000815260040161199790612855565b60405180910390fd5b60008260080184015190508091505092915050565b6119bd611c39565b6000836000015151905060006001826119d6919061265e565b9050846020015182106119fa576119f9856002836119f49190612875565b611b8f565b5b84516020838201018581538151831115611a12578282525b5050849250505092915050565b611a27611c39565b6000846000015151905060008184611a3f919061265e565b90508560200151811115611a6457611a6386600283611a5e9190612875565b611b8f565b5b6000600185610100611a7691906129ea565b611a809190612709565b905086518281018783198251161781528151841115611a9d578382525b50508693505050509392505050565b611ab4611c39565b8251821115611ac257600080fd5b6000846000015151905060008382611ada919061265e565b90508560200151811115611aff57611afe86600283611af99190612875565b611b8f565b5b60008087518051856020830101935080851115611b1a578482525b60208901925050505b60208610611b615780518252602082611b3c919061265e565b9150602081611b4b919061265e565b9050602086611b5a9190612709565b9550611b23565b60006001876020036101000a0390508019825116818451168181178552505050879450505050509392505050565b600082600001519050611ba28383611478565b50611bad83826116aa565b50505050565b6040518060200160405280611bc6611bcc565b81525090565b6040518060400160405280606081526020016000151581525090565b604051806060016040528060608152602001611c02611bcc565b8152602001600067ffffffffffffffff1681525090565b6040518060400160405280611c2c611c39565b8152602001600081525090565b604051806040016040528060608152602001600081525090565b600073ffffffffffffffffffffffffffffffffffffffff82169050919050565b6000611c7e82611c53565b9050919050565b611c8e81611c73565b82525050565b6000602082019050611ca96000830184611c85565b92915050565b6000604051905090565b600080fd5b600080fd5b611ccc81611c73565b8114611cd757600080fd5b50565b600081359050611ce981611cc3565b92915050565b600060208284031215611d0557611d04611cb9565b5b6000611d1384828501611cda565b91505092915050565b60006cffffffffffffffffffffffffff82169050919050565b611d3e81611d1c565b82525050565b600064ffffffffff82169050919050565b611d5e81611d44565b82525050565b600067ffffffffffffffff82169050919050565b611d8181611d64565b82525050565b60006fffffffffffffffffffffffffffffffff82169050919050565b611dac81611d87565b82525050565b600061010082019050611dc8600083018b611d35565b611dd5602083018a611d35565b611de26040830189611d55565b611def6060830188611d78565b611dfc6080830187611d78565b611e0960a0830186611d78565b611e1660c0830185611d78565b611e2360e0830184611da3565b9998505050505050505050565b60008060408385031215611e4757611e46611cb9565b5b6000611e5585828601611cda565b9250506020611e6685828601611cda565b9150509250929050565b600060a082019050611e856000830188611c85565b611e926020830187611da3565b611e9f6040830186611da3565b611eac6060830185611da3565b611eb96080830184611da3565b9695505050505050565b600081519050919050565b600082825260208201905092915050565b60005b83811015611efd578082015181840152602081019050611ee2565b60008484015250505050565b6000601f19601f8301169050919050565b6000611f2582611ec3565b611f2f8185611ece565b9350611f3f818560208601611edf565b611f4881611f09565b840191505092915050565b60008115159050919050565b611f6881611f53565b82525050565b60006040830160008301518482036000860152611f8b8282611f1a565b9150506020830151611fa06020860182611f5f565b508091505092915050565b60006020830160008301518482036000860152611fc88282611f6e565b9150508091505092915050565b60006020820190508181036000830152611fef8184611fab565b905092915050565b600080fd5b600080fd5b7f4e487b7100000000000000000000000000000000000000000000000000000000600052604160045260246000fd5b61203982611f09565b810181811067ffffffffffffffff8211171561205857612057612001565b5b80604052505050565b600061206b611caf565b90506120778282612030565b919050565b600067ffffffffffffffff82111561209757612096612001565b5b6120a082611f09565b9050602081019050919050565b82818337600083830152505050565b60006120cf6120ca8461207c565b612061565b9050828152602081018484840111156120eb576120ea611ffc565b5b6120f68482856120ad565b509392505050565b600082601f83011261211357612112611ff7565b5b81356121238482602086016120bc565b91505092915050565b60006020828403121561214257612141611cb9565b5b600082013567ffffffffffffffff8111156121605761215f611cbe565b5b61216c848285016120fe565b91505092915050565b600060408301600083015184820360008601526121928282611f1a565b91505060208301516121a76020860182611f5f565b508091505092915050565b600060208201905081810360008301526121cc8184612175565b905092915050565b6121dd81611f53565b82525050565b60006020820190506121f860008301846121d4565b92915050565b600081519050919050565b600082825260208201905092915050565b6000612225826121fe565b61222f8185612209565b935061223f818560208601611edf565b61224881611f09565b840191505092915050565b6000602082019050818103600083015261226d818461221a565b905092915050565b6000819050919050565b61228881612275565b82525050565b600082825260208201905092915050565b60006122aa82611ec3565b6122b4818561228e565b93506122c4818560208601611edf565b6122cd81611f09565b840191505092915050565b600060c0820190506122ed6000830189611d78565b6122fa602083018861227f565b6123076040830187611d78565b6123146060830186611d78565b8181036080830152612326818561229f565b905081810360a083015261233a818461229f565b9050979650505050505050565b600081905092915050565b600061235d82611ec3565b6123678185612347565b9350612377818560208601611edf565b80840191505092915050565b600061238f8284612352565b915081905092915050565b6000819050919050565b6123ad8161239a565b81146123b857600080fd5b50565b6000815190506123ca816123a4565b92915050565b6123d981611d64565b81146123e457600080fd5b50565b6000815190506123f6816123d0565b92915050565b600067ffffffffffffffff82111561241757612416612001565b5b61242082611f09565b9050602081019050919050565b600061244061243b846123fc565b612061565b90508281526020810184848401111561245c5761245b611ffc565b5b612467848285611edf565b509392505050565b600082601f83011261248457612483611ff7565b5b815161249484826020860161242d565b91505092915050565b6000806000606084860312156124b6576124b5611cb9565b5b60006124c4868287016123bb565b93505060206124d5868287016123e7565b925050604084015167ffffffffffffffff8111156124f6576124f5611cbe565b5b6125028682870161246f565b9150509250925092565b7f726573706f6e736520636f646563206e6f7420737570706f7274656400000000600082015250565b6000612542601c83612209565b915061254d8261250c565b602082019050919050565b6000602082019050818103600083015261257181612535565b9050919050565b7f6163746f72206572726f7220636f6465202d0000000000000000000000000000815250565b600081905092915050565b60006125b4826121fe565b6125be818561259e565b93506125ce818560208601611edf565b80840191505092915050565b60006125e582612578565b6012820191506125f582846125a9565b915081905092915050565b7f4e487b7100000000000000000000000000000000000000000000000000000000600052600160045260246000fd5b7f4e487b7100000000000000000000000000000000000000000000000000000000600052601160045260246000fd5b600061266982612275565b915061267483612275565b925082820190508082111561268c5761268b61262f565b5b92915050565b7f4e487b7100000000000000000000000000000000000000000000000000000000600052603260045260246000fd5b60006126cc82612275565b91507fffffffffffffffffffffffffffffffffffffffffffffffffffffffffffffffff82036126fe576126fd61262f565b5b600182019050919050565b600061271482612275565b915061271f83612275565b92508282039050818111156127375761273661262f565b5b92915050565b7f496e76616c69642043424f520000000000000000000000000000000000000000600082015250565b6000612773600c83612209565b915061277e8261273d565b602082019050919050565b600060208201905081810360008301526127a281612766565b9050919050565b7f4e487b7100000000000000000000000000000000000000000000000000000000600052601260045260246000fd5b60006127e382612275565b91506127ee83612275565b9250826127fe576127fd6127a9565b5b828206905092915050565b7f736c6963696e67206f7574206f662072616e6765000000000000000000000000600082015250565b600061283f601483612209565b915061284a82612809565b602082019050919050565b6000602082019050818103600083015261286e81612832565b9050919050565b600061288082612275565b915061288b83612275565b925082820261289981612275565b915082820484148315176128b0576128af61262f565b5b5092915050565b60008160011c9050919050565b6000808291508390505b600185111561290e578086048111156128ea576128e961262f565b5b60018516156128f95780820291505b8081029050612907856128b7565b94506128ce565b94509492505050565b60008261292757600190506129e3565b8161293557600090506129e3565b816001811461294b576002811461295557612984565b60019150506129e3565b60ff8411156129675761296661262f565b5b8360020a91508482111561297e5761297d61262f565b5b506129e3565b5060208310610133831016604e8410600b84101617156129b95782820a9050838111156129b4576129b361262f565b5b6129e3565b6129c684848460016128c4565b925090508184048111156129dd576129dc61262f565b5b81810290505b9392505050565b60006129f582612275565b9150612a0083612275565b9250612a2d7fffffffffffffffffffffffffffffffffffffffffffffffffffffffffffffffff8484612917565b90509291505056fe307834374331436262314436373642343436346331394335633538646561413530624134363843363942a2646970667358221220aba395eb4eaaa22a822a133b4332105bd7c686b37af9566b3af56a6d3d40efc464736f6c63430008110033",
  "devdoc": {
    "kind": "dev",
    "methods": {
      "initializeStorage()": {
        "details": "This function must be called exactly once"
      }
    },
    "version": 1
  },
  "userdoc": {
    "kind": "user",
    "methods": {
      "initializeStorage()": {
        "notice": "Initialize the market"
      }
    },
    "version": 1
  },
  "storageLayout": {
    "storage": [
      {
        "astId": 6137,
        "contract": "contracts/Filfi.sol:Filfi",
        "label": "governor",
        "offset": 0,
        "slot": "0",
        "type": "t_address"
      },
      {
        "astId": 6139,
        "contract": "contracts/Filfi.sol:Filfi",
        "label": "pauseGuardian",
        "offset": 0,
        "slot": "1",
        "type": "t_address"
      },
      {
        "astId": 6141,
        "contract": "contracts/Filfi.sol:Filfi",
        "label": "baseToken",
        "offset": 0,
        "slot": "2",
        "type": "t_address"
      },
      {
        "astId": 6180,
        "contract": "contracts/Filfi.sol:Filfi",
        "label": "baseBorrowInterestRate",
        "offset": 20,
        "slot": "2",
        "type": "t_uint64"
      },
      {
        "astId": 6182,
        "contract": "contracts/Filfi.sol:Filfi",
        "label": "baseSupplyInterestRate",
        "offset": 0,
        "slot": "3",
        "type": "t_uint64"
      },
      {
        "astId": 6184,
        "contract": "contracts/Filfi.sol:Filfi",
        "label": "totalSupply",
        "offset": 8,
        "slot": "3",
        "type": "t_uint128"
      },
      {
        "astId": 6186,
        "contract": "contracts/Filfi.sol:Filfi",
        "label": "totalBorrow",
        "offset": 0,
        "slot": "4",
        "type": "t_uint128"
      },
      {
        "astId": 6188,
        "contract": "contracts/Filfi.sol:Filfi",
        "label": "totalPledged",
        "offset": 16,
        "slot": "4",
        "type": "t_uint128"
      },
      {
        "astId": 6190,
        "contract": "contracts/Filfi.sol:Filfi",
        "label": "liquidateCollateralFactor",
        "offset": 0,
        "slot": "5",
        "type": "t_uint64"
      },
      {
        "astId": 6192,
        "contract": "contracts/Filfi.sol:Filfi",
        "label": "lastAccrualTime",
        "offset": 8,
        "slot": "5",
        "type": "t_uint40"
      },
      {
        "astId": 6195,
        "contract": "contracts/Filfi.sol:Filfi",
        "label": "totalsStatistics",
        "offset": 0,
        "slot": "6",
        "type": "t_struct(TotalsStatistics)6150_storage"
      },
      {
        "astId": 6201,
        "contract": "contracts/Filfi.sol:Filfi",
        "label": "isAllowed",
        "offset": 0,
        "slot": "8",
        "type": "t_mapping(t_address,t_mapping(t_address,t_bool))"
      },
      {
        "astId": 6206,
        "contract": "contracts/Filfi.sol:Filfi",
        "label": "userAccounts",
        "offset": 0,
        "slot": "9",
        "type": "t_mapping(t_address,t_struct(UserAccount)6178_storage)"
      },
      {
        "astId": 6213,
        "contract": "contracts/Filfi.sol:Filfi",
        "label": "nodeAssets",
        "offset": 0,
        "slot": "10",
        "type": "t_mapping(t_address,t_mapping(t_address,t_struct(NodeAsset)6161_storage))"
      }
    ],
    "types": {
      "t_address": {
        "encoding": "inplace",
        "label": "address",
        "numberOfBytes": "20"
      },
      "t_bool": {
        "encoding": "inplace",
        "label": "bool",
        "numberOfBytes": "1"
      },
      "t_mapping(t_address,t_bool)": {
        "encoding": "mapping",
        "key": "t_address",
        "label": "mapping(address => bool)",
        "numberOfBytes": "32",
        "value": "t_bool"
      },
      "t_mapping(t_address,t_mapping(t_address,t_bool))": {
        "encoding": "mapping",
        "key": "t_address",
        "label": "mapping(address => mapping(address => bool))",
        "numberOfBytes": "32",
        "value": "t_mapping(t_address,t_bool)"
      },
      "t_mapping(t_address,t_mapping(t_address,t_struct(NodeAsset)6161_storage))": {
        "encoding": "mapping",
        "key": "t_address",
        "label": "mapping(address => mapping(address => struct FilfiStorage.NodeAsset))",
        "numberOfBytes": "32",
        "value": "t_mapping(t_address,t_struct(NodeAsset)6161_storage)"
      },
      "t_mapping(t_address,t_struct(NodeAsset)6161_storage)": {
        "encoding": "mapping",
        "key": "t_address",
        "label": "mapping(address => struct FilfiStorage.NodeAsset)",
        "numberOfBytes": "32",
        "value": "t_struct(NodeAsset)6161_storage"
      },
      "t_mapping(t_address,t_struct(UserAccount)6178_storage)": {
        "encoding": "mapping",
        "key": "t_address",
        "label": "mapping(address => struct FilfiStorage.UserAccount)",
        "numberOfBytes": "32",
        "value": "t_struct(UserAccount)6178_storage"
      },
      "t_struct(NodeAsset)6161_storage": {
        "encoding": "inplace",
        "label": "struct FilfiStorage.NodeAsset",
        "members": [
          {
            "astId": 6152,
            "contract": "contracts/Filfi.sol:Filfi",
            "label": "miner",
            "offset": 0,
            "slot": "0",
            "type": "t_address"
          },
          {
            "astId": 6154,
            "contract": "contracts/Filfi.sol:Filfi",
            "label": "pledgedAmt",
            "offset": 0,
            "slot": "1",
            "type": "t_uint128"
          },
          {
            "astId": 6156,
            "contract": "contracts/Filfi.sol:Filfi",
            "label": "balance",
            "offset": 16,
            "slot": "1",
            "type": "t_uint128"
          },
          {
            "astId": 6158,
            "contract": "contracts/Filfi.sol:Filfi",
            "label": "canBorrowedBalance",
            "offset": 0,
            "slot": "2",
            "type": "t_uint128"
          },
          {
            "astId": 6160,
            "contract": "contracts/Filfi.sol:Filfi",
            "label": "beneficiaryWithdrawnAmt",
            "offset": 16,
            "slot": "2",
            "type": "t_uint128"
          }
        ],
        "numberOfBytes": "96"
      },
      "t_struct(TotalsStatistics)6150_storage": {
        "encoding": "inplace",
        "label": "struct FilfiStorage.TotalsStatistics",
        "members": [
          {
            "astId": 6143,
            "contract": "contracts/Filfi.sol:Filfi",
            "label": "totalSupply",
            "offset": 0,
            "slot": "0",
            "type": "t_uint128"
          },
          {
            "astId": 6145,
            "contract": "contracts/Filfi.sol:Filfi",
            "label": "totalBorrow",
            "offset": 16,
            "slot": "0",
            "type": "t_uint128"
          },
          {
            "astId": 6147,
            "contract": "contracts/Filfi.sol:Filfi",
            "label": "totalPledged",
            "offset": 0,
            "slot": "1",
            "type": "t_uint128"
          },
          {
            "astId": 6149,
            "contract": "contracts/Filfi.sol:Filfi",
            "label": "lastAccrualTime",
            "offset": 16,
            "slot": "1",
            "type": "t_uint40"
          }
        ],
        "numberOfBytes": "64"
      },
      "t_struct(UserAccount)6178_storage": {
        "encoding": "inplace",
        "label": "struct FilfiStorage.UserAccount",
        "members": [
          {
            "astId": 6163,
            "contract": "contracts/Filfi.sol:Filfi",
            "label": "supplyBalance",
            "offset": 0,
            "slot": "0",
            "type": "t_uint104"
          },
          {
            "astId": 6165,
            "contract": "contracts/Filfi.sol:Filfi",
            "label": "borrowBalance",
            "offset": 13,
            "slot": "0",
            "type": "t_uint104"
          },
          {
            "astId": 6167,
            "contract": "contracts/Filfi.sol:Filfi",
            "label": "lastAccrualTime",
            "offset": 26,
            "slot": "0",
            "type": "t_uint40"
          },
          {
            "astId": 6169,
            "contract": "contracts/Filfi.sol:Filfi",
            "label": "supplyTotalInterest",
            "offset": 0,
            "slot": "1",
            "type": "t_uint64"
          },
          {
            "astId": 6171,
            "contract": "contracts/Filfi.sol:Filfi",
            "label": "unClaimSupplyInterest",
            "offset": 8,
            "slot": "1",
            "type": "t_uint64"
          },
          {
            "astId": 6173,
            "contract": "contracts/Filfi.sol:Filfi",
            "label": "borrowTotalInterest",
            "offset": 16,
            "slot": "1",
            "type": "t_uint64"
          },
          {
            "astId": 6175,
            "contract": "contracts/Filfi.sol:Filfi",
            "label": "unClaimBorrowInterest",
            "offset": 24,
            "slot": "1",
            "type": "t_uint64"
          },
          {
            "astId": 6177,
            "contract": "contracts/Filfi.sol:Filfi",
            "label": "canBorrowedBalance",
            "offset": 0,
            "slot": "2",
            "type": "t_uint128"
          }
        ],
        "numberOfBytes": "96"
      },
      "t_uint104": {
        "encoding": "inplace",
        "label": "uint104",
        "numberOfBytes": "13"
      },
      "t_uint128": {
        "encoding": "inplace",
        "label": "uint128",
        "numberOfBytes": "16"
      },
      "t_uint40": {
        "encoding": "inplace",
        "label": "uint40",
        "numberOfBytes": "5"
      },
      "t_uint64": {
        "encoding": "inplace",
        "label": "uint64",
        "numberOfBytes": "8"
      }
    }
  }
}