{
  "address": "0xcD7b947f5614f0F813F70FA20b249ea1c7450EC5",
  "abi": [
    {
      "anonymous": false,
      "inputs": [
        {
          "components": [
            {
              "internalType": "bytes",
              "name": "val",
              "type": "bytes"
            },
            {
              "internalType": "bool",
              "name": "neg",
              "type": "bool"
            }
          ],
          "indexed": false,
          "internalType": "struct BigInt",
          "name": "msg",
          "type": "tuple"
        }
      ],
      "name": "Logger",
      "type": "event"
    },
    {
      "stateMutability": "payable",
      "type": "fallback"
    },
    {
      "inputs": [
        {
          "internalType": "string",
          "name": "target",
          "type": "string"
        }
      ],
      "name": "getAvailableBalance",
      "outputs": [
        {
          "components": [
            {
              "internalType": "bytes",
              "name": "val",
              "type": "bytes"
            },
            {
              "internalType": "bool",
              "name": "neg",
              "type": "bool"
            }
          ],
          "internalType": "struct BigInt",
          "name": "",
          "type": "tuple"
        }
      ],
      "stateMutability": "payable",
      "type": "function"
    },
    {
      "inputs": [
        {
          "internalType": "bytes",
          "name": "minerId",
          "type": "bytes"
        }
      ],
      "name": "getOwner",
      "outputs": [
        {
          "internalType": "bytes",
          "name": "",
          "type": "bytes"
        }
      ],
      "stateMutability": "nonpayable",
      "type": "function"
    },
    {
      "inputs": [
        {
          "internalType": "uint64",
          "name": "dealId",
          "type": "uint64"
        }
      ],
      "name": "test",
      "outputs": [
        {
          "internalType": "uint64",
          "name": "actorId",
          "type": "uint64"
        }
      ],
      "stateMutability": "nonpayable",
      "type": "function"
    },
    {
      "stateMutability": "payable",
      "type": "receive"
    }
  ],
  "transactionHash": "0x0c353b8a65b90f59f2953c40cb551ed741b5e8340dda3f562a0cbac7a655c338",
  "args": [],
  "numDeployments": 1,
  "solcInputHash": "1a4c90bf0466fd1fc63a8ef63424e8c7",
  "bytecode": "0x608060405234801561001057600080fd5b506122d5806100206000396000f3fe6080604052600436106100385760003560e01c80638a594f5014610041578063b0e0b9ed14610071578063b102bfbe146100ae5761003f565b3661003f57005b005b61005b600480360381019061005691906117cb565b6100eb565b60405161006891906118eb565b60405180910390f35b34801561007d57600080fd5b506100986004803603810190610093919061194d565b610107565b6040516100a59190611989565b60405180910390f35b3480156100ba57600080fd5b506100d560048036038101906100d09190611a45565b61011d565b6040516100e29190611ad8565b60405180910390f35b6100f36115cb565b6100fc82610133565b600001519050919050565b6000610112826101d6565b600001519050919050565b606061012882610273565b600001519050919050565b61013b6115e7565b60008067ffffffffffffffff811115610157576101566116a0565b5b6040519080825280601f01601f1916602001820160405280156101895781602001600182028036833780820191505090505b50905060006101a063eff983fa8584600034610316565b905060006101ad82610451565b90506101b76115e7565b6101ca828261054290919063ffffffff16565b80945050505050919050565b6101de611600565b60006101f38367ffffffffffffffff166105f5565b9050600061023d6307a1f0516040518060400160405280600281526020017e0500000000000000000000000000000000000000000000000000000000000081525084607134610316565b9050600061024a82610451565b9050610254611600565b610267828261062990919063ffffffff16565b80945050505050919050565b61027b61161d565b60008067ffffffffffffffff811115610297576102966116a0565b5b6040519080825280601f01601f1916602001820160405280156102c95781602001600182028036833780820191505090505b50905060006102e063c33a1cc68584600034610316565b905060006102ed82610451565b90506102f761161d565b61030a828261066490919063ffffffff16565b80945050505050919050565b606060008073fe0000000000000000000000000000000000000373ffffffffffffffffffffffffffffffffffffffff1688856000888a8c60405160200161036296959493929190611b13565b60405160208183030381529060405260405161037e9190611bbe565b600060405180830381855af49150503d80600081146103b9576040519150601f19603f3d011682016040523d82523d6000602084013e6103be565b606091505b509150915060011515821515146040518060400160405280601181526020017f6163746f722063616c6c206661696c656400000000000000000000000000000081525090610442576040517f08c379a00000000000000000000000000000000000000000000000000000000081526004016104399190611c2a565b60405180910390fd5b50809250505095945050505050565b606060008060008480602001905181019061046c9190611d07565b925092509250600067ffffffffffffffff168267ffffffffffffffff1614806104a95750607167ffffffffffffffff168267ffffffffffffffff16145b6104e8576040517f08c379a00000000000000000000000000000000000000000000000000000000081526004016104df90611dc2565b60405180910390fd5b600083146104f5846106ef565b90610536576040517f08c379a000000000000000000000000000000000000000000000000000000000815260040161052d9190611c2a565b60405180910390fd5b50809350505050919050565b60006060610559828461075990919063ffffffff16565b80935081925050506000815111156105815761057481610903565b84600001819052506105ef565b6040518060400160405280600067ffffffffffffffff8111156105a7576105a66116a0565b5b6040519080825280601f01601f1916602001820160405280156105d95781602001600182028036833780820191505090505b5081526020016000151581525084600001819052505b50505050565b606060006106036040610aaa565b90506106188382610ad190919063ffffffff16565b61062181610ae1565b915050919050565b600061063e8183610b3a90919063ffffffff16565b846000018193508267ffffffffffffffff1667ffffffffffffffff168152505050505050565b60008061067a8284610b8990919063ffffffff16565b80935081925050506002811461069357610692611de2565b5b6106a6828461075990919063ffffffff16565b8560000181945082905250506106c58284610bd890919063ffffffff16565b6106e9576106dc828461075990919063ffffffff16565b8560200181945082905250505b50505050565b606060008212156107295761070382610c44565b6040516020016107139190611e73565b6040516020818303038152906040529050610754565b61073282610c44565b6040516020016107429190611e73565b60405160208183030381529060405290505b919050565b6060600080600061076a8686610d12565b8167ffffffffffffffff169150809750819350829450505050600660ff168260ff16148061079e5750600260ff168260ff16145b6107ab576107aa611de2565b5b600660ff168260ff16036107f4576107c38686610d12565b8167ffffffffffffffff169150809750819350829450505050600260ff168260ff16146107f3576107f2611de2565b5b5b600081866108029190611ec8565b905060008267ffffffffffffffff8111156108205761081f6116a0565b5b6040519080825280601f01601f1916602001820160405280156108525781602001600182028036833780820191505090505b5090506000808890505b838110156108e55789818151811061087757610876611efc565b5b602001015160f81c60f81b83838151811061089557610894611efc565b5b60200101907effffffffffffffffffffffffffffffffffffffffffffffffffffffffffffff1916908160001a90535081806108cf90611f2b565b92505080806108dd90611f2b565b91505061085c565b508184896108f39190611ec8565b9650965050505050509250929050565b61090b6115cb565b600082510361094957604051806040016040528060405180604001604052806001815260200160008152508152602001600015158152509050610aa5565b6000600183516109599190611f73565b67ffffffffffffffff811115610972576109716116a0565b5b6040519080825280601f01601f1916602001820160405280156109a45781602001600182028036833780820191505090505b5090506000600160f81b846000815181106109c2576109c1611efc565b5b602001015160f81c60f81b7effffffffffffffffffffffffffffffffffffffffffffffffffffffffffffff1916036109f957600190505b6000600190505b8451811015610a8857848181518110610a1c57610a1b611efc565b5b602001015160f81c60f81b83600183610a359190611f73565b81518110610a4657610a45611efc565b5b60200101907effffffffffffffffffffffffffffffffffffffffffffffffffffffffffffff1916908160001a9053508080610a8090611f2b565b915050610a00565b506040518060400160405280838152602001821515815250925050505b919050565b610ab2611637565b610ac0816000015183610ea0565b506000816020018181525050919050565b610add82600083610f19565b5050565b60606000826020015114610b2a576040517f08c379a0000000000000000000000000000000000000000000000000000000008152600401610b2190611ff3565b60405180910390fd5b8160000151600001519050919050565b600080600080610b4a8686610d12565b8167ffffffffffffffff169150809750819350829450505050600060ff168260ff1614610b7a57610b79611de2565b5b80859350935050509250929050565b600080600080610b998686610d12565b8167ffffffffffffffff169150809750819350829450505050600460ff168260ff1614610bc957610bc8611de2565b5b80859350935050509250929050565b60007ff600000000000000000000000000000000000000000000000000000000000000838381518110610c0e57610c0d611efc565b5b602001015160f81c60f81b7effffffffffffffffffffffffffffffffffffffffffffffffffffffffffffff191614905092915050565b606060006001610c53846110c2565b01905060008167ffffffffffffffff811115610c7257610c716116a0565b5b6040519080825280601f01601f191660200182016040528015610ca45781602001600182028036833780820191505090505b509050600082602001820190505b600115610d07578080600190039150507f3031323334353637383961626364656600000000000000000000000000000000600a86061a8153600a8581610cfb57610cfa612013565b5b04945060008503610cb2575b819350505050919050565b600080600080610d228686611215565b9050600185610d319190611ec8565b94506000600560e0831660ff16901c90506000601f83169050601c8160ff1610610d5e57610d5d611de2565b5b60188160ff161015610d81578181888160ff169150955095509550505050610e99565b60188160ff1603610dd6576000610d988989611215565b9050600188610da79190611ec8565b975060188160ff161015610dbe57610dbd611de2565b5b8281898160ff16915096509650965050505050610e99565b60198160ff1603610e17576000610ded898961127c565b9050600288610dfc9190611ec8565b97508281898161ffff16915096509650965050505050610e99565b601a8160ff1603610e5a576000610e2e89896112e3565b9050600488610e3d9190611ec8565b97508281898163ffffffff16915096509650965050505050610e99565b601b8160ff1614610e6e57610e6d611de2565b5b6000610e7a898961134a565b9050600888610e899190611ec8565b9750828189965096509650505050505b9250925092565b610ea8611657565b6000602083610eb79190612042565b14610ee357602082610ec99190612042565b6020610ed59190611f73565b82610ee09190611ec8565b91505b818360200181815250506040518084526000815282810160200181811015610f0a57600080fd5b80604052505082905092915050565b60178167ffffffffffffffff1611610f5457610f4e8160058460ff16901b60ff161784600001516113b190919063ffffffff16565b506110bd565b60ff8167ffffffffffffffff1611610fb257610f87601860058460ff16901b1784600001516113b190919063ffffffff16565b50610fac8167ffffffffffffffff166001856000015161141b9092919063ffffffff16565b506110bc565b61ffff8167ffffffffffffffff161161101157610fe6601960058460ff16901b1784600001516113b190919063ffffffff16565b5061100b8167ffffffffffffffff166002856000015161141b9092919063ffffffff16565b506110bb565b63ffffffff8167ffffffffffffffff161161107257611047601a60058460ff16901b1784600001516113b190919063ffffffff16565b5061106c8167ffffffffffffffff166004856000015161141b9092919063ffffffff16565b506110ba565b611093601b60058460ff16901b1784600001516113b190919063ffffffff16565b506110b88167ffffffffffffffff166008856000015161141b9092919063ffffffff16565b505b5b5b5b505050565b600080600090507a184f03e93ff9f4daa797ed6e38ed64bf6a1f0100000000000000008310611120577a184f03e93ff9f4daa797ed6e38ed64bf6a1f010000000000000000838161111657611115612013565b5b0492506040810190505b6d04ee2d6d415b85acef8100000000831061115d576d04ee2d6d415b85acef8100000000838161115357611152612013565b5b0492506020810190505b662386f26fc10000831061118c57662386f26fc10000838161118257611181612013565b5b0492506010810190505b6305f5e10083106111b5576305f5e10083816111ab576111aa612013565b5b0492506008810190505b61271083106111da5761271083816111d0576111cf612013565b5b0492506004810190505b606483106111fd57606483816111f3576111f2612013565b5b0492506002810190505b600a831061120c576001810190505b80915050919050565b60006001826112249190611ec8565b83511015611267576040517f08c379a000000000000000000000000000000000000000000000000000000000815260040161125e906120bf565b60405180910390fd5b60008260010184015190508091505092915050565b600060028261128b9190611ec8565b835110156112ce576040517f08c379a00000000000000000000000000000000000000000000000000000000081526004016112c5906120bf565b60405180910390fd5b60008260020184015190508091505092915050565b60006004826112f29190611ec8565b83511015611335576040517f08c379a000000000000000000000000000000000000000000000000000000000815260040161132c906120bf565b60405180910390fd5b60008260040184015190508091505092915050565b60006008826113599190611ec8565b8351101561139c576040517f08c379a0000000000000000000000000000000000000000000000000000000008152600401611393906120bf565b60405180910390fd5b60008260080184015190508091505092915050565b6113b9611657565b6000836000015151905060006001826113d29190611ec8565b9050846020015182106113f6576113f5856002836113f091906120df565b6114a8565b5b8451602083820101858153815183111561140e578282525b5050849250505092915050565b611423611657565b600084600001515190506000818461143b9190611ec8565b905085602001518111156114605761145f8660028361145a91906120df565b6114a8565b5b60006001856101006114729190612254565b61147c9190611f73565b905086518281018783198251161781528151841115611499578382525b50508693505050509392505050565b6000826000015190506114bb8383610ea0565b506114c683826114cc565b50505050565b6114d4611657565b6114e0838384516114e8565b905092915050565b6114f0611657565b82518211156114fe57600080fd5b60008460000151519050600083826115169190611ec8565b9050856020015181111561153b5761153a8660028361153591906120df565b6114a8565b5b60008087518051856020830101935080851115611556578482525b60208901925050505b6020861061159d57805182526020826115789190611ec8565b91506020816115879190611ec8565b90506020866115969190611f73565b955061155f565b60006001876020036101000a0390508019825116818451168181178552505050879450505050509392505050565b6040518060400160405280606081526020016000151581525090565b60405180602001604052806115fa6115cb565b81525090565b6040518060200160405280600067ffffffffffffffff1681525090565b604051806040016040528060608152602001606081525090565b604051806040016040528061164a611657565b8152602001600081525090565b604051806040016040528060608152602001600081525090565b6000604051905090565b600080fd5b600080fd5b600080fd5b600080fd5b6000601f19601f8301169050919050565b7f4e487b7100000000000000000000000000000000000000000000000000000000600052604160045260246000fd5b6116d88261168f565b810181811067ffffffffffffffff821117156116f7576116f66116a0565b5b80604052505050565b600061170a611671565b905061171682826116cf565b919050565b600067ffffffffffffffff821115611736576117356116a0565b5b61173f8261168f565b9050602081019050919050565b82818337600083830152505050565b600061176e6117698461171b565b611700565b90508281526020810184848401111561178a5761178961168a565b5b61179584828561174c565b509392505050565b600082601f8301126117b2576117b1611685565b5b81356117c284826020860161175b565b91505092915050565b6000602082840312156117e1576117e061167b565b5b600082013567ffffffffffffffff8111156117ff576117fe611680565b5b61180b8482850161179d565b91505092915050565b600081519050919050565b600082825260208201905092915050565b60005b8381101561184e578082015181840152602081019050611833565b60008484015250505050565b600061186582611814565b61186f818561181f565b935061187f818560208601611830565b6118888161168f565b840191505092915050565b60008115159050919050565b6118a881611893565b82525050565b600060408301600083015184820360008601526118cb828261185a565b91505060208301516118e0602086018261189f565b508091505092915050565b6000602082019050818103600083015261190581846118ae565b905092915050565b600067ffffffffffffffff82169050919050565b61192a8161190d565b811461193557600080fd5b50565b60008135905061194781611921565b92915050565b6000602082840312156119635761196261167b565b5b600061197184828501611938565b91505092915050565b6119838161190d565b82525050565b600060208201905061199e600083018461197a565b92915050565b600067ffffffffffffffff8211156119bf576119be6116a0565b5b6119c88261168f565b9050602081019050919050565b60006119e86119e3846119a4565b611700565b905082815260208101848484011115611a0457611a0361168a565b5b611a0f84828561174c565b509392505050565b600082601f830112611a2c57611a2b611685565b5b8135611a3c8482602086016119d5565b91505092915050565b600060208284031215611a5b57611a5a61167b565b5b600082013567ffffffffffffffff811115611a7957611a78611680565b5b611a8584828501611a17565b91505092915050565b600082825260208201905092915050565b6000611aaa82611814565b611ab48185611a8e565b9350611ac4818560208601611830565b611acd8161168f565b840191505092915050565b60006020820190508181036000830152611af28184611a9f565b905092915050565b6000819050919050565b611b0d81611afa565b82525050565b600060c082019050611b28600083018961197a565b611b356020830188611b04565b611b42604083018761197a565b611b4f606083018661197a565b8181036080830152611b618185611a9f565b905081810360a0830152611b758184611a9f565b9050979650505050505050565b600081905092915050565b6000611b9882611814565b611ba28185611b82565b9350611bb2818560208601611830565b80840191505092915050565b6000611bca8284611b8d565b915081905092915050565b600081519050919050565b600082825260208201905092915050565b6000611bfc82611bd5565b611c068185611be0565b9350611c16818560208601611830565b611c1f8161168f565b840191505092915050565b60006020820190508181036000830152611c448184611bf1565b905092915050565b6000819050919050565b611c5f81611c4c565b8114611c6a57600080fd5b50565b600081519050611c7c81611c56565b92915050565b600081519050611c9181611921565b92915050565b6000611caa611ca5846119a4565b611700565b905082815260208101848484011115611cc657611cc561168a565b5b611cd1848285611830565b509392505050565b600082601f830112611cee57611ced611685565b5b8151611cfe848260208601611c97565b91505092915050565b600080600060608486031215611d2057611d1f61167b565b5b6000611d2e86828701611c6d565b9350506020611d3f86828701611c82565b925050604084015167ffffffffffffffff811115611d6057611d5f611680565b5b611d6c86828701611cd9565b9150509250925092565b7f726573706f6e736520636f646563206e6f7420737570706f7274656400000000600082015250565b6000611dac601c83611be0565b9150611db782611d76565b602082019050919050565b60006020820190508181036000830152611ddb81611d9f565b9050919050565b7f4e487b7100000000000000000000000000000000000000000000000000000000600052600160045260246000fd5b7f6163746f72206572726f7220636f6465202d0000000000000000000000000000815250565b600081905092915050565b6000611e4d82611bd5565b611e578185611e37565b9350611e67818560208601611830565b80840191505092915050565b6000611e7e82611e11565b601282019150611e8e8284611e42565b915081905092915050565b7f4e487b7100000000000000000000000000000000000000000000000000000000600052601160045260246000fd5b6000611ed382611afa565b9150611ede83611afa565b9250828201905080821115611ef657611ef5611e99565b5b92915050565b7f4e487b7100000000000000000000000000000000000000000000000000000000600052603260045260246000fd5b6000611f3682611afa565b91507fffffffffffffffffffffffffffffffffffffffffffffffffffffffffffffffff8203611f6857611f67611e99565b5b600182019050919050565b6000611f7e82611afa565b9150611f8983611afa565b9250828203905081811115611fa157611fa0611e99565b5b92915050565b7f496e76616c69642043424f520000000000000000000000000000000000000000600082015250565b6000611fdd600c83611be0565b9150611fe882611fa7565b602082019050919050565b6000602082019050818103600083015261200c81611fd0565b9050919050565b7f4e487b7100000000000000000000000000000000000000000000000000000000600052601260045260246000fd5b600061204d82611afa565b915061205883611afa565b92508261206857612067612013565b5b828206905092915050565b7f736c6963696e67206f7574206f662072616e6765000000000000000000000000600082015250565b60006120a9601483611be0565b91506120b482612073565b602082019050919050565b600060208201905081810360008301526120d88161209c565b9050919050565b60006120ea82611afa565b91506120f583611afa565b925082820261210381611afa565b9150828204841483151761211a57612119611e99565b5b5092915050565b60008160011c9050919050565b6000808291508390505b60018511156121785780860481111561215457612153611e99565b5b60018516156121635780820291505b808102905061217185612121565b9450612138565b94509492505050565b600082612191576001905061224d565b8161219f576000905061224d565b81600181146121b557600281146121bf576121ee565b600191505061224d565b60ff8411156121d1576121d0611e99565b5b8360020a9150848211156121e8576121e7611e99565b5b5061224d565b5060208310610133831016604e8410600b84101617156122235782820a90508381111561221e5761221d611e99565b5b61224d565b612230848484600161212e565b9250905081840481111561224757612246611e99565b5b81810290505b9392505050565b600061225f82611afa565b915061226a83611afa565b92506122977fffffffffffffffffffffffffffffffffffffffffffffffffffffffffffffffff8484612181565b90509291505056fea2646970667358221220f626837c4d67fe13e5e6908da47eec7cdd0294f7ad175b6ebaeab6d0374ffd2864736f6c63430008110033",
  "devdoc": {
    "kind": "dev",
    "methods": {},
    "version": 1
  },
  "userdoc": {
    "kind": "user",
    "methods": {},
    "version": 1
  },
  "storageLayout": {
    "storage": [],
    "types": null
  }
}