{
  "address": "0x3e3B63545fa9E375467E479F0AF1b2D72a2113a4",
  "abi": [
    {
      "inputs": [],
      "stateMutability": "nonpayable",
      "type": "constructor"
    },
    {
      "anonymous": false,
      "inputs": [
        {
          "indexed": false,
          "internalType": "string",
          "name": "msg",
          "type": "string"
        }
      ],
      "name": "Logger",
      "type": "event"
    },
    {
      "inputs": [],
      "name": "changeBeneficiary",
      "outputs": [],
      "stateMutability": "nonpayable",
      "type": "function"
    },
    {
      "inputs": [],
      "name": "confirmChangeBeneficiary",
      "outputs": [],
      "stateMutability": "nonpayable",
      "type": "function"
    },
    {
      "inputs": [],
      "name": "confirmContract",
      "outputs": [
        {
          "internalType": "address",
          "name": "",
          "type": "address"
        }
      ],
      "stateMutability": "view",
      "type": "function"
    },
    {
      "inputs": [],
      "name": "getRollNumber",
      "outputs": [
        {
          "internalType": "uint256",
          "name": "",
          "type": "uint256"
        }
      ],
      "stateMutability": "nonpayable",
      "type": "function"
    },
    {
      "inputs": [
        {
          "internalType": "bytes",
          "name": "target",
          "type": "bytes"
        }
      ],
      "name": "get_available_balance",
      "outputs": [
        {
          "components": [
            {
              "components": [
                {
                  "internalType": "bytes",
                  "name": "val",
                  "type": "bytes"
                },
                {
                  "internalType": "bool",
                  "name": "neg",
                  "type": "bool"
                }
              ],
              "internalType": "struct BigInt",
              "name": "available_balance",
              "type": "tuple"
            }
          ],
          "internalType": "struct MinerTypes.GetAvailableBalanceReturn",
          "name": "",
          "type": "tuple"
        }
      ],
      "stateMutability": "nonpayable",
      "type": "function"
    },
    {
      "inputs": [
        {
          "internalType": "bytes",
          "name": "target",
          "type": "bytes"
        }
      ],
      "name": "get_beneficiary",
      "outputs": [
        {
          "components": [
            {
              "components": [
                {
                  "internalType": "bytes",
                  "name": "beneficiary",
                  "type": "bytes"
                },
                {
                  "components": [
                    {
                      "components": [
                        {
                          "internalType": "bytes",
                          "name": "val",
                          "type": "bytes"
                        },
                        {
                          "internalType": "bool",
                          "name": "neg",
                          "type": "bool"
                        }
                      ],
                      "internalType": "struct BigInt",
                      "name": "quota",
                      "type": "tuple"
                    },
                    {
                      "components": [
                        {
                          "internalType": "bytes",
                          "name": "val",
                          "type": "bytes"
                        },
                        {
                          "internalType": "bool",
                          "name": "neg",
                          "type": "bool"
                        }
                      ],
                      "internalType": "struct BigInt",
                      "name": "used_quota",
                      "type": "tuple"
                    },
                    {
                      "internalType": "uint64",
                      "name": "expiration",
                      "type": "uint64"
                    }
                  ],
                  "internalType": "struct CommonTypes.BeneficiaryTerm",
                  "name": "term",
                  "type": "tuple"
                }
              ],
              "internalType": "struct CommonTypes.ActiveBeneficiary",
              "name": "active",
              "type": "tuple"
            },
            {
              "components": [
                {
                  "internalType": "bytes",
                  "name": "new_beneficiary",
                  "type": "bytes"
                },
                {
                  "components": [
                    {
                      "internalType": "bytes",
                      "name": "val",
                      "type": "bytes"
                    },
                    {
                      "internalType": "bool",
                      "name": "neg",
                      "type": "bool"
                    }
                  ],
                  "internalType": "struct BigInt",
                  "name": "new_quota",
                  "type": "tuple"
                },
                {
                  "internalType": "uint64",
                  "name": "new_expiration",
                  "type": "uint64"
                },
                {
                  "internalType": "bool",
                  "name": "approved_by_beneficiary",
                  "type": "bool"
                },
                {
                  "internalType": "bool",
                  "name": "approved_by_nominee",
                  "type": "bool"
                }
              ],
              "internalType": "struct CommonTypes.PendingBeneficiaryChange",
              "name": "proposed",
              "type": "tuple"
            }
          ],
          "internalType": "struct MinerTypes.GetBeneficiaryReturn",
          "name": "",
          "type": "tuple"
        }
      ],
      "stateMutability": "nonpayable",
      "type": "function"
    },
    {
      "inputs": [],
      "name": "setConFirmContract",
      "outputs": [],
      "stateMutability": "nonpayable",
      "type": "function"
    },
    {
      "inputs": [
        {
          "internalType": "address",
          "name": "addr",
          "type": "address"
        }
      ],
      "name": "toBytes",
      "outputs": [
        {
          "internalType": "bytes",
          "name": "b",
          "type": "bytes"
        }
      ],
      "stateMutability": "pure",
      "type": "function"
    }
  ],
  "transactionHash": "0xf5d7dcc6f0d3815d0909cbd8ee21cbde2e24ed23589ac2ffa3d4c78793fadc35",
  "args": [],
  "numDeployments": 2,
  "solcInputHash": "9877f22d027acf24ce0e8d8cfdfa12d0",
  "bytecode": "0x608060405234801561001057600080fd5b5061001f61002460201b60201c565b61007a565b73e94f054d5f773955bcc121d773f287dfe454f38e6000806101000a81548173ffffffffffffffffffffffffffffffffffffffff021916908373ffffffffffffffffffffffffffffffffffffffff160217905550565b613127806200008a6000396000f3fe608060405234801561001057600080fd5b50600436106100885760003560e01c8063b03483281161005b578063b034832814610115578063bd1d68cb14610133578063d8d0ff211461013d578063f6f6217d1461016d57610088565b806309ce2d4f1461008d57806335275164146100ab578063593b79fe146100db57806360b84f591461010b575b600080fd5b610095610177565b6040516100a2919061223c565b60405180910390f35b6100c560048036038101906100c091906123b1565b6102ec565b6040516100d29190612650565b60405180910390f35b6100f560048036038101906100f091906126d0565b610304565b6040516101029190612747565b60405180910390f35b61011361034f565b005b61011d610564565b60405161012a9190612778565b60405180910390f35b61013b610588565b005b610157600480360381019061015291906123b1565b6105de565b60405161016491906127bd565b60405180910390f35b6101756105f6565b005b60008060008060009054906101000a900473ffffffffffffffffffffffffffffffffffffffff1673ffffffffffffffffffffffffffffffffffffffff166040516024016040516020818303038152906040527f09ce2d4f000000000000000000000000000000000000000000000000000000007bffffffffffffffffffffffffffffffffffffffffffffffffffffffff19166020820180517bffffffffffffffffffffffffffffffffffffffffffffffffffffffff8381831617835250505050604051610244919061281b565b6000604051808303816000865af19150503d8060008114610281576040519150601f19603f3d011682016040523d82523d6000602084013e610286565b606091505b5091509150816102cb576040517f08c379a00000000000000000000000000000000000000000000000000000000081526004016102c29061288f565b60405180910390fd5b6000818060200190518101906102e191906128db565b905080935050505090565b6102f46120c3565b6102fd826106ee565b9050919050565b606060405173ffffffffffffffffffffffffffffffffffffffff8316925082741400000000000000000000000000000000000000001860148201526034810160405280915050919050565b6103576120e9565b6103e8816040019067ffffffffffffffff16908167ffffffffffffffff168152505060008060008054906101000a900473ffffffffffffffffffffffffffffffffffffffff1673ffffffffffffffffffffffffffffffffffffffff166040518060400160405280600481526020017f313030300000000000000000000000000000000000000000000000000000000081525084604001516040518060400160405280600681526020017f743032343733000000000000000000000000000000000000000000000000000081525060405160240161043693929190612917565b6040516020818303038152906040527f2fdd9724000000000000000000000000000000000000000000000000000000007bffffffffffffffffffffffffffffffffffffffffffffffffffffffff19166020820180517bffffffffffffffffffffffffffffffffffffffffffffffffffffffff83818316178352505050506040516104c0919061281b565b6000604051808303816000865af19150503d80600081146104fd576040519150601f19603f3d011682016040523d82523d6000602084013e610502565b606091505b509150915060008180602001905181019061051d91906128db565b90507f65e06b3884a88e13243953e5160aec7a836e4cc7abc0762f84c66d6b918efe7f61054982610791565b60405161055691906129a0565b60405180910390a150505050565b60008054906101000a900473ffffffffffffffffffffffffffffffffffffffff1681565b73e94f054d5f773955bcc121d773f287dfe454f38e6000806101000a81548173ffffffffffffffffffffffffffffffffffffffff021916908373ffffffffffffffffffffffffffffffffffffffff160217905550565b6105e661211a565b6105ef8261085f565b9050919050565b6105fe6120e9565b600060405180604001604052806040518060400160405280600281526020017f100000000000000000000000000000000000000000000000000000000000000081525081526020016000151581525090508082602001819052506103e8826040019067ffffffffffffffff16908167ffffffffffffffff168152505060003060601b90508060405160200161069391906129fd565b60405160208183030381529060405283600001819052506106e96040518060400160405280600681526020017f743032343733000000000000000000000000000000000000000000000000000081525084610902565b505050565b6106f66120c3565b60008067ffffffffffffffff81111561071257610711612286565b5b6040519080825280601f01601f1916602001820160405280156107445781602001600182028036833780820191505090505b509050600061075b63f7e4e2998584600034610935565b9050600061076882610a70565b90506107726120c3565b6107858282610b6190919063ffffffff16565b80945050505050919050565b6060600060016107a084610f62565b01905060008167ffffffffffffffff8111156107bf576107be612286565b5b6040519080825280601f01601f1916602001820160405280156107f15781602001600182028036833780820191505090505b509050600082602001820190505b600115610854578080600190039150507f3031323334353637383961626364656600000000000000000000000000000000600a86061a8153600a858161084857610847612a18565b5b049450600085036107ff575b819350505050919050565b61086761211a565b60008067ffffffffffffffff81111561088357610882612286565b5b6040519080825280601f01601f1916602001820160405280156108b55781602001600182028036833780820191505090505b50905060006108cc63eff983fa8584600034610935565b905060006108d982610a70565b90506108e361211a565b6108f682826110b590919063ffffffff16565b80945050505050919050565b600061090d82611168565b90506000610923635d9dfc2c8584607134610935565b905061092e81610a70565b5050505050565b606060008073fe0000000000000000000000000000000000000373ffffffffffffffffffffffffffffffffffffffff1688856000888a8c60405160200161098196959493929190612a47565b60405160208183030381529060405260405161099d919061281b565b600060405180830381855af49150503d80600081146109d8576040519150601f19603f3d011682016040523d82523d6000602084013e6109dd565b606091505b509150915060011515821515146040518060400160405280601181526020017f6163746f722063616c6c206661696c656400000000000000000000000000000081525090610a61576040517f08c379a0000000000000000000000000000000000000000000000000000000008152600401610a5891906129a0565b60405180910390fd5b50809250505095945050505050565b6060600080600084806020019051810190610a8b9190612b88565b925092509250600067ffffffffffffffff168267ffffffffffffffff161480610ac85750607167ffffffffffffffff168267ffffffffffffffff16145b610b07576040517f08c379a0000000000000000000000000000000000000000000000000000000008152600401610afe90612c43565b60405180910390fd5b60008314610b14846111ea565b90610b55576040517f08c379a0000000000000000000000000000000000000000000000000000000008152600401610b4c91906129a0565b60405180910390fd5b50809350505050919050565b6060600080610b79828561125490919063ffffffff16565b809350819250505060028114610b9257610b91612c63565b5b610ba5828561125490919063ffffffff16565b809350819250505060028114610bbe57610bbd612c63565b5b610bd182856112a390919063ffffffff16565b86600001516000018194508290525050610bf4828561125490919063ffffffff16565b809350819250505060038114610c0d57610c0c612c63565b5b610c2082856112a390919063ffffffff16565b8093508194505050600083511115610c5057610c3b8361144d565b85600001516020015160000181905250610cc6565b6040518060400160405280600067ffffffffffffffff811115610c7657610c75612286565b5b6040519080825280601f01601f191660200182016040528015610ca85781602001600182028036833780820191505090505b50815260200160001515815250856000015160200151600001819052505b610cd982856112a390919063ffffffff16565b8093508194505050600083511115610d0957610cf48361144d565b85600001516020015160200181905250610d7f565b6040518060400160405280600067ffffffffffffffff811115610d2f57610d2e612286565b5b6040519080825280601f01601f191660200182016040528015610d615781602001600182028036833780820191505090505b50815260200160001515815250856000015160200151602001819052505b610d9282856115f490919063ffffffff16565b8660000151602001516040018194508267ffffffffffffffff1667ffffffffffffffff168152505050610dce828561164390919063ffffffff16565b610f5b57610de5828561125490919063ffffffff16565b809350819250505060058114610dfe57610dfd612c63565b5b610e1182856112a390919063ffffffff16565b86602001516000018194508290525050610e3482856112a390919063ffffffff16565b8093508194505050600083511115610e6057610e4f8361144d565b856020015160200181905250610ed2565b6040518060400160405280600067ffffffffffffffff811115610e8657610e85612286565b5b6040519080825280601f01601f191660200182016040528015610eb85781602001600182028036833780820191505090505b508152602001600015158152508560200151602001819052505b610ee582856115f490919063ffffffff16565b86602001516040018194508267ffffffffffffffff1667ffffffffffffffff168152505050610f1d82856116af90919063ffffffff16565b866020015160600181945082151515158152505050610f4582856116af90919063ffffffff16565b8660200151608001819450821515151581525050505b5050505050565b600080600090507a184f03e93ff9f4daa797ed6e38ed64bf6a1f0100000000000000008310610fc0577a184f03e93ff9f4daa797ed6e38ed64bf6a1f0100000000000000008381610fb657610fb5612a18565b5b0492506040810190505b6d04ee2d6d415b85acef81000000008310610ffd576d04ee2d6d415b85acef81000000008381610ff357610ff2612a18565b5b0492506020810190505b662386f26fc10000831061102c57662386f26fc10000838161102257611021612a18565b5b0492506010810190505b6305f5e1008310611055576305f5e100838161104b5761104a612a18565b5b0492506008810190505b612710831061107a5761271083816110705761106f612a18565b5b0492506004810190505b6064831061109d576064838161109357611092612a18565b5b0492506002810190505b600a83106110ac576001810190505b80915050919050565b600060606110cc82846112a390919063ffffffff16565b80935081925050506000815111156110f4576110e78161144d565b8460000181905250611162565b6040518060400160405280600067ffffffffffffffff81111561111a57611119612286565b5b6040519080825280601f01601f19166020018201604052801561114c5781602001600182028036833780820191505090505b5081526020016000151581525084600001819052505b50505050565b606060006111766040611727565b905061118c60038261174e90919063ffffffff16565b6111a383600001518261175e90919063ffffffff16565b6111c26111b38460200151611787565b8261175e90919063ffffffff16565b6111d98360400151826118e490919063ffffffff16565b6111e2816118f4565b915050919050565b60606000821215611224576111fe82610791565b60405160200161120e9190612cf4565b604051602081830303815290604052905061124f565b61122d82610791565b60405160200161123d9190612cf4565b60405160208183030381529060405290505b919050565b600080600080611264868661194d565b8167ffffffffffffffff169150809750819350829450505050600460ff168260ff161461129457611293612c63565b5b80859350935050509250929050565b606060008060006112b4868661194d565b8167ffffffffffffffff169150809750819350829450505050600660ff168260ff1614806112e85750600260ff168260ff16145b6112f5576112f4612c63565b5b600660ff168260ff160361133e5761130d868661194d565b8167ffffffffffffffff169150809750819350829450505050600260ff168260ff161461133d5761133c612c63565b5b5b6000818661134c9190612d49565b905060008267ffffffffffffffff81111561136a57611369612286565b5b6040519080825280601f01601f19166020018201604052801561139c5781602001600182028036833780820191505090505b5090506000808890505b8381101561142f578981815181106113c1576113c0612d7d565b5b602001015160f81c60f81b8383815181106113df576113de612d7d565b5b60200101907effffffffffffffffffffffffffffffffffffffffffffffffffffffffffffff1916908160001a905350818061141990612dac565b925050808061142790612dac565b9150506113a6565b5081848961143d9190612d49565b9650965050505050509250929050565b611455612133565b6000825103611493576040518060400160405280604051806040016040528060018152602001600081525081526020016000151581525090506115ef565b6000600183516114a39190612df4565b67ffffffffffffffff8111156114bc576114bb612286565b5b6040519080825280601f01601f1916602001820160405280156114ee5781602001600182028036833780820191505090505b5090506000600160f81b8460008151811061150c5761150b612d7d565b5b602001015160f81c60f81b7effffffffffffffffffffffffffffffffffffffffffffffffffffffffffffff19160361154357600190505b6000600190505b84518110156115d25784818151811061156657611565612d7d565b5b602001015160f81c60f81b8360018361157f9190612df4565b815181106115905761158f612d7d565b5b60200101907effffffffffffffffffffffffffffffffffffffffffffffffffffffffffffff1916908160001a90535080806115ca90612dac565b91505061154a565b506040518060400160405280838152602001821515815250925050505b919050565b600080600080611604868661194d565b8167ffffffffffffffff169150809750819350829450505050600060ff168260ff161461163457611633612c63565b5b80859350935050509250929050565b60007ff60000000000000000000000000000000000000000000000000000000000000083838151811061167957611678612d7d565b5b602001015160f81c60f81b7effffffffffffffffffffffffffffffffffffffffffffffffffffffffffffff191614905092915050565b6000806000806116bf868661194d565b8167ffffffffffffffff169150809750819350829450505050600760ff168260ff16146116ef576116ee612c63565b5b601560ff168114806117045750601460ff1681145b61171157611710612c63565b5b601460ff16811415859350935050509250929050565b61172f61214f565b61173d816000015183611adb565b506000816020018181525050919050565b61175a82600483611b54565b5050565b61176b8260028351611b64565b611782818360000151611d0d90919063ffffffff16565b505050565b60606000600183600001515161179d9190612d49565b67ffffffffffffffff8111156117b6576117b5612286565b5b6040519080825280601f01601f1916602001820160405280156117e85781602001600182028036833780820191505090505b50905082602001511561183e57600160f81b8160008151811061180e5761180d612d7d565b5b60200101907effffffffffffffffffffffffffffffffffffffffffffffffffffffffffffff1916908160001a9053505b60006001905060005b8460000151518110156118d9578460000151818151811061186b5761186a612d7d565b5b602001015160f81c60f81b83838151811061188957611888612d7d565b5b60200101907effffffffffffffffffffffffffffffffffffffffffffffffffffffffffffff1916908160001a90535081806118c390612dac565b92505080806118d190612dac565b915050611847565b508192505050919050565b6118f082600083611b64565b5050565b6060600082602001511461193d576040517f08c379a000000000000000000000000000000000000000000000000000000000815260040161193490612e74565b60405180910390fd5b8160000151600001519050919050565b60008060008061195d8686611d29565b905060018561196c9190612d49565b94506000600560e0831660ff16901c90506000601f83169050601c8160ff161061199957611998612c63565b5b60188160ff1610156119bc578181888160ff169150955095509550505050611ad4565b60188160ff1603611a115760006119d38989611d29565b90506001886119e29190612d49565b975060188160ff1610156119f9576119f8612c63565b5b8281898160ff16915096509650965050505050611ad4565b60198160ff1603611a52576000611a288989611d90565b9050600288611a379190612d49565b97508281898161ffff16915096509650965050505050611ad4565b601a8160ff1603611a95576000611a698989611df7565b9050600488611a789190612d49565b97508281898163ffffffff16915096509650965050505050611ad4565b601b8160ff1614611aa957611aa8612c63565b5b6000611ab58989611e5e565b9050600888611ac49190612d49565b9750828189965096509650505050505b9250925092565b611ae361216f565b6000602083611af29190612e94565b14611b1e57602082611b049190612e94565b6020611b109190612df4565b82611b1b9190612d49565b91505b818360200181815250506040518084526000815282810160200181811015611b4557600080fd5b80604052505082905092915050565b611b5f838383611b64565b505050565b60178167ffffffffffffffff1611611b9f57611b998160058460ff16901b60ff16178460000151611ec590919063ffffffff16565b50611d08565b60ff8167ffffffffffffffff1611611bfd57611bd2601860058460ff16901b178460000151611ec590919063ffffffff16565b50611bf78167ffffffffffffffff1660018560000151611f2f9092919063ffffffff16565b50611d07565b61ffff8167ffffffffffffffff1611611c5c57611c31601960058460ff16901b178460000151611ec590919063ffffffff16565b50611c568167ffffffffffffffff1660028560000151611f2f9092919063ffffffff16565b50611d06565b63ffffffff8167ffffffffffffffff1611611cbd57611c92601a60058460ff16901b178460000151611ec590919063ffffffff16565b50611cb78167ffffffffffffffff1660048560000151611f2f9092919063ffffffff16565b50611d05565b611cde601b60058460ff16901b178460000151611ec590919063ffffffff16565b50611d038167ffffffffffffffff1660088560000151611f2f9092919063ffffffff16565b505b5b5b5b505050565b611d1561216f565b611d2183838451611fbc565b905092915050565b6000600182611d389190612d49565b83511015611d7b576040517f08c379a0000000000000000000000000000000000000000000000000000000008152600401611d7290612f11565b60405180910390fd5b60008260010184015190508091505092915050565b6000600282611d9f9190612d49565b83511015611de2576040517f08c379a0000000000000000000000000000000000000000000000000000000008152600401611dd990612f11565b60405180910390fd5b60008260020184015190508091505092915050565b6000600482611e069190612d49565b83511015611e49576040517f08c379a0000000000000000000000000000000000000000000000000000000008152600401611e4090612f11565b60405180910390fd5b60008260040184015190508091505092915050565b6000600882611e6d9190612d49565b83511015611eb0576040517f08c379a0000000000000000000000000000000000000000000000000000000008152600401611ea790612f11565b60405180910390fd5b60008260080184015190508091505092915050565b611ecd61216f565b600083600001515190506000600182611ee69190612d49565b905084602001518210611f0a57611f0985600283611f049190612f31565b61209f565b5b84516020838201018581538151831115611f22578282525b5050849250505092915050565b611f3761216f565b6000846000015151905060008184611f4f9190612d49565b90508560200151811115611f7457611f7386600283611f6e9190612f31565b61209f565b5b6000600185610100611f8691906130a6565b611f909190612df4565b905086518281018783198251161781528151841115611fad578382525b50508693505050509392505050565b611fc461216f565b8251821115611fd257600080fd5b6000846000015151905060008382611fea9190612d49565b9050856020015181111561200f5761200e866002836120099190612f31565b61209f565b5b6000808751805185602083010193508085111561202a578482525b60208901925050505b60208610612071578051825260208261204c9190612d49565b915060208161205b9190612d49565b905060208661206a9190612df4565b9550612033565b60006001876020036101000a0390508019825116818451168181178552505050879450505050509392505050565b6000826000015190506120b28383611adb565b506120bd8382611d0d565b50505050565b60405180604001604052806120d6612189565b81526020016120e36121a9565b81525090565b604051806060016040528060608152602001612103612133565b8152602001600067ffffffffffffffff1681525090565b604051806020016040528061212d612133565b81525090565b6040518060400160405280606081526020016000151581525090565b604051806040016040528061216261216f565b8152602001600081525090565b604051806040016040528060608152602001600081525090565b6040518060400160405280606081526020016121a36121ec565b81525090565b6040518060a00160405280606081526020016121c3612133565b8152602001600067ffffffffffffffff1681526020016000151581526020016000151581525090565b60405180606001604052806121ff612133565b815260200161220c612133565b8152602001600067ffffffffffffffff1681525090565b6000819050919050565b61223681612223565b82525050565b6000602082019050612251600083018461222d565b92915050565b6000604051905090565b600080fd5b600080fd5b600080fd5b600080fd5b6000601f19601f8301169050919050565b7f4e487b7100000000000000000000000000000000000000000000000000000000600052604160045260246000fd5b6122be82612275565b810181811067ffffffffffffffff821117156122dd576122dc612286565b5b80604052505050565b60006122f0612257565b90506122fc82826122b5565b919050565b600067ffffffffffffffff82111561231c5761231b612286565b5b61232582612275565b9050602081019050919050565b82818337600083830152505050565b600061235461234f84612301565b6122e6565b9050828152602081018484840111156123705761236f612270565b5b61237b848285612332565b509392505050565b600082601f8301126123985761239761226b565b5b81356123a8848260208601612341565b91505092915050565b6000602082840312156123c7576123c6612261565b5b600082013567ffffffffffffffff8111156123e5576123e4612266565b5b6123f184828501612383565b91505092915050565b600081519050919050565b600082825260208201905092915050565b60005b83811015612434578082015181840152602081019050612419565b60008484015250505050565b600061244b826123fa565b6124558185612405565b9350612465818560208601612416565b61246e81612275565b840191505092915050565b60008115159050919050565b61248e81612479565b82525050565b600060408301600083015184820360008601526124b18282612440565b91505060208301516124c66020860182612485565b508091505092915050565b600067ffffffffffffffff82169050919050565b6124ee816124d1565b82525050565b600060608301600083015184820360008601526125118282612494565b9150506020830151848203602086015261252b8282612494565b915050604083015161254060408601826124e5565b508091505092915050565b600060408301600083015184820360008601526125688282612440565b9150506020830151848203602086015261258282826124f4565b9150508091505092915050565b600060a08301600083015184820360008601526125ac8282612440565b915050602083015184820360208601526125c68282612494565b91505060408301516125db60408601826124e5565b5060608301516125ee6060860182612485565b5060808301516126016080860182612485565b508091505092915050565b60006040830160008301518482036000860152612629828261254b565b91505060208301518482036020860152612643828261258f565b9150508091505092915050565b6000602082019050818103600083015261266a818461260c565b905092915050565b600073ffffffffffffffffffffffffffffffffffffffff82169050919050565b600061269d82612672565b9050919050565b6126ad81612692565b81146126b857600080fd5b50565b6000813590506126ca816126a4565b92915050565b6000602082840312156126e6576126e5612261565b5b60006126f4848285016126bb565b91505092915050565b600082825260208201905092915050565b6000612719826123fa565b61272381856126fd565b9350612733818560208601612416565b61273c81612275565b840191505092915050565b60006020820190508181036000830152612761818461270e565b905092915050565b61277281612692565b82525050565b600060208201905061278d6000830184612769565b92915050565b600060208301600083015184820360008601526127b08282612494565b9150508091505092915050565b600060208201905081810360008301526127d78184612793565b905092915050565b600081905092915050565b60006127f5826123fa565b6127ff81856127df565b935061280f818560208601612416565b80840191505092915050565b600061282782846127ea565b915081905092915050565b600082825260208201905092915050565b7f636f6e6669726d4368616e676542656e6566696369617279206661696c656400600082015250565b6000612879601f83612832565b915061288482612843565b602082019050919050565b600060208201905081810360008301526128a88161286c565b9050919050565b6128b881612223565b81146128c357600080fd5b50565b6000815190506128d5816128af565b92915050565b6000602082840312156128f1576128f0612261565b5b60006128ff848285016128c6565b91505092915050565b612911816124d1565b82525050565b60006060820190508181036000830152612931818661270e565b90506129406020830185612908565b8181036040830152612952818461270e565b9050949350505050565b600081519050919050565b60006129728261295c565b61297c8185612832565b935061298c818560208601612416565b61299581612275565b840191505092915050565b600060208201905081810360008301526129ba8184612967565b905092915050565b60007fffffffffffffffffffffffffffffffffffffffff00000000000000000000000082169050919050565b6129f7816129c2565b82525050565b6000602082019050612a1260008301846129ee565b92915050565b7f4e487b7100000000000000000000000000000000000000000000000000000000600052601260045260246000fd5b600060c082019050612a5c6000830189612908565b612a69602083018861222d565b612a766040830187612908565b612a836060830186612908565b8181036080830152612a95818561270e565b905081810360a0830152612aa9818461270e565b9050979650505050505050565b6000819050919050565b612ac981612ab6565b8114612ad457600080fd5b50565b600081519050612ae681612ac0565b92915050565b612af5816124d1565b8114612b0057600080fd5b50565b600081519050612b1281612aec565b92915050565b6000612b2b612b2684612301565b6122e6565b905082815260208101848484011115612b4757612b46612270565b5b612b52848285612416565b509392505050565b600082601f830112612b6f57612b6e61226b565b5b8151612b7f848260208601612b18565b91505092915050565b600080600060608486031215612ba157612ba0612261565b5b6000612baf86828701612ad7565b9350506020612bc086828701612b03565b925050604084015167ffffffffffffffff811115612be157612be0612266565b5b612bed86828701612b5a565b9150509250925092565b7f726573706f6e736520636f646563206e6f7420737570706f7274656400000000600082015250565b6000612c2d601c83612832565b9150612c3882612bf7565b602082019050919050565b60006020820190508181036000830152612c5c81612c20565b9050919050565b7f4e487b7100000000000000000000000000000000000000000000000000000000600052600160045260246000fd5b7f6163746f72206572726f7220636f6465202d0000000000000000000000000000815250565b600081905092915050565b6000612cce8261295c565b612cd88185612cb8565b9350612ce8818560208601612416565b80840191505092915050565b6000612cff82612c92565b601282019150612d0f8284612cc3565b915081905092915050565b7f4e487b7100000000000000000000000000000000000000000000000000000000600052601160045260246000fd5b6000612d5482612223565b9150612d5f83612223565b9250828201905080821115612d7757612d76612d1a565b5b92915050565b7f4e487b7100000000000000000000000000000000000000000000000000000000600052603260045260246000fd5b6000612db782612223565b91507fffffffffffffffffffffffffffffffffffffffffffffffffffffffffffffffff8203612de957612de8612d1a565b5b600182019050919050565b6000612dff82612223565b9150612e0a83612223565b9250828203905081811115612e2257612e21612d1a565b5b92915050565b7f496e76616c69642043424f520000000000000000000000000000000000000000600082015250565b6000612e5e600c83612832565b9150612e6982612e28565b602082019050919050565b60006020820190508181036000830152612e8d81612e51565b9050919050565b6000612e9f82612223565b9150612eaa83612223565b925082612eba57612eb9612a18565b5b828206905092915050565b7f736c6963696e67206f7574206f662072616e6765000000000000000000000000600082015250565b6000612efb601483612832565b9150612f0682612ec5565b602082019050919050565b60006020820190508181036000830152612f2a81612eee565b9050919050565b6000612f3c82612223565b9150612f4783612223565b9250828202612f5581612223565b91508282048414831517612f6c57612f6b612d1a565b5b5092915050565b60008160011c9050919050565b6000808291508390505b6001851115612fca57808604811115612fa657612fa5612d1a565b5b6001851615612fb55780820291505b8081029050612fc385612f73565b9450612f8a565b94509492505050565b600082612fe3576001905061309f565b81612ff1576000905061309f565b8160018114613007576002811461301157613040565b600191505061309f565b60ff84111561302357613022612d1a565b5b8360020a91508482111561303a57613039612d1a565b5b5061309f565b5060208310610133831016604e8410600b84101617156130755782820a9050838111156130705761306f612d1a565b5b61309f565b6130828484846001612f80565b9250905081840481111561309957613098612d1a565b5b81810290505b9392505050565b60006130b182612223565b91506130bc83612223565b92506130e97fffffffffffffffffffffffffffffffffffffffffffffffffffffffffffffffff8484612fd3565b90509291505056fea2646970667358221220847166dc7a5c5f3cc3ade51f5d7fa8b7ccc6ad0066fa2c6b1f7028303d6f675264736f6c63430008110033",
  "devdoc": {
    "kind": "dev",
    "methods": {},
    "version": 1
  },
  "userdoc": {
    "kind": "user",
    "methods": {
      "changeBeneficiary()": {
        "notice": "test build-in actor"
      },
      "toBytes(address)": {
        "notice": "convert address to bytes     "
      }
    },
    "version": 1
  },
  "storageLayout": {
    "storage": [
      {
        "astId": 5589,
        "contract": "contracts/Pledge.sol:Pledge",
        "label": "confirmContract",
        "offset": 0,
        "slot": "0",
        "type": "t_address"
      }
    ],
    "types": {
      "t_address": {
        "encoding": "inplace",
        "label": "address",
        "numberOfBytes": "20"
      }
    }
  }
}