{
  "address": "0x8221fBc9D9b928CC8A441d5093850FD0E40A0E6C",
  "abi": [
    {
      "inputs": [],
      "stateMutability": "nonpayable",
      "type": "constructor"
    },
    {
      "anonymous": false,
      "inputs": [
        {
          "components": [
            {
              "internalType": "bytes",
              "name": "val",
              "type": "bytes"
            },
            {
              "internalType": "bool",
              "name": "neg",
              "type": "bool"
            }
          ],
          "indexed": false,
          "internalType": "struct BigInt",
          "name": "msg",
          "type": "tuple"
        }
      ],
      "name": "Logger",
      "type": "event"
    },
    {
      "stateMutability": "payable",
      "type": "fallback"
    },
    {
      "inputs": [
        {
          "internalType": "address",
          "name": "receiver",
          "type": "address"
        },
        {
          "internalType": "uint256",
          "name": "amount",
          "type": "uint256"
        }
      ],
      "name": "borrow",
      "outputs": [],
      "stateMutability": "nonpayable",
      "type": "function"
    },
    {
      "inputs": [],
      "name": "calculateInterests",
      "outputs": [
        {
          "internalType": "uint256",
          "name": "",
          "type": "uint256"
        }
      ],
      "stateMutability": "pure",
      "type": "function"
    },
    {
      "inputs": [],
      "name": "changeBeneficiary",
      "outputs": [],
      "stateMutability": "nonpayable",
      "type": "function"
    },
    {
      "inputs": [],
      "name": "deposit",
      "outputs": [],
      "stateMutability": "payable",
      "type": "function"
    },
    {
      "inputs": [],
      "name": "getAvailableBalance",
      "outputs": [
        {
          "components": [
            {
              "components": [
                {
                  "internalType": "bytes",
                  "name": "val",
                  "type": "bytes"
                },
                {
                  "internalType": "bool",
                  "name": "neg",
                  "type": "bool"
                }
              ],
              "internalType": "struct BigInt",
              "name": "available_balance",
              "type": "tuple"
            }
          ],
          "internalType": "struct MinerTypes.GetAvailableBalanceReturn",
          "name": "",
          "type": "tuple"
        }
      ],
      "stateMutability": "nonpayable",
      "type": "function"
    },
    {
      "inputs": [
        {
          "internalType": "string",
          "name": "target",
          "type": "string"
        }
      ],
      "name": "getAvailableBalance",
      "outputs": [
        {
          "components": [
            {
              "internalType": "bytes",
              "name": "val",
              "type": "bytes"
            },
            {
              "internalType": "bool",
              "name": "neg",
              "type": "bool"
            }
          ],
          "internalType": "struct BigInt",
          "name": "",
          "type": "tuple"
        }
      ],
      "stateMutability": "nonpayable",
      "type": "function"
    },
    {
      "inputs": [
        {
          "internalType": "uint256",
          "name": "amount",
          "type": "uint256"
        }
      ],
      "name": "repay",
      "outputs": [],
      "stateMutability": "nonpayable",
      "type": "function"
    },
    {
      "inputs": [
        {
          "internalType": "uint256",
          "name": "amount",
          "type": "uint256"
        }
      ],
      "name": "supply",
      "outputs": [],
      "stateMutability": "payable",
      "type": "function"
    },
    {
      "inputs": [
        {
          "internalType": "address",
          "name": "from",
          "type": "address"
        },
        {
          "internalType": "string",
          "name": "miner",
          "type": "string"
        }
      ],
      "name": "supplyCollateral",
      "outputs": [],
      "stateMutability": "nonpayable",
      "type": "function"
    },
    {
      "inputs": [
        {
          "internalType": "string",
          "name": "tmp",
          "type": "string"
        }
      ],
      "name": "test",
      "outputs": [
        {
          "internalType": "string",
          "name": "",
          "type": "string"
        }
      ],
      "stateMutability": "pure",
      "type": "function"
    },
    {
      "inputs": [
        {
          "internalType": "address",
          "name": "from",
          "type": "address"
        },
        {
          "internalType": "address",
          "name": "to",
          "type": "address"
        }
      ],
      "name": "transferFil",
      "outputs": [],
      "stateMutability": "nonpayable",
      "type": "function"
    },
    {
      "stateMutability": "payable",
      "type": "receive"
    }
  ],
  "transactionHash": "0x732ced88f77e165dbd667677d7e2bcee8d110ab072b2b65942af3f0dae93cf1f",
  "args": [],
  "numDeployments": 3,
  "solcInputHash": "d3861203e5c494acca39df61542da4ae",
  "bytecode": "0x608060405234801561001057600080fd5b50612635806100206000396000f3fe6080604052600436106100a05760003560e01c8063809dab6a11610064578063809dab6a1461016b5780638a594f50146101965780639913d13a146101d3578063d0e30db0146101fc578063f6f6217d14610206578063f9fbd5541461021d576100a7565b80632b128450146100a957806335403023146100d2578063371fd8e6146100ee5780634b8a35291461011757806359ba494114610140576100a7565b366100a757005b005b3480156100b557600080fd5b506100d060048036038101906100cb9190611a60565b61025a565b005b6100ec60048036038101906100e79190611af2565b61025e565b005b3480156100fa57600080fd5b5061011560048036038101906101109190611af2565b610261565b005b34801561012357600080fd5b5061013e60048036038101906101399190611b1f565b610264565b005b34801561014c57600080fd5b50610155610268565b6040516101629190611b6e565b60405180910390f35b34801561017757600080fd5b50610180610271565b60405161018d9190611c8a565b60405180910390f35b3480156101a257600080fd5b506101bd60048036038101906101b89190611cac565b6102bc565b6040516101ca9190611d32565b60405180910390f35b3480156101df57600080fd5b506101fa60048036038101906101f59190611d54565b610319565b005b610204610365565b005b34801561021257600080fd5b5061021b610367565b005b34801561022957600080fd5b50610244600480360381019061023f9190611cac565b61044f565b6040516102519190611de9565b60405180910390f35b5050565b50565b50565b5050565b60006001905090565b610279611808565b6102b76040518060400160405280600681526020017f7430313036340000000000000000000000000000000000000000000000000000815250610459565b905090565b6102c4611821565b60006102cf83610459565b90507fa2ddd6267efd2f6d55932aa34c682b9e61e408a2f4267a45334fa90a5247d21081600001516040516103049190611d32565b60405180910390a18060000151915050919050565b8073ffffffffffffffffffffffffffffffffffffffff166108fc60019081150290604051600060405180830381858888f19350505050158015610360573d6000803e3d6000fd5b505050565b565b61036f61183d565b600060405180604001604052806040518060400160405280600281526020017f100000000000000000000000000000000000000000000000000000000000000081525081526020016000151581525090508082602001819052506103e8826040019067ffffffffffffffff16908167ffffffffffffffff16815250506040518060600160405280602a81526020016125d6602a9139826000018190525061044b6040518060400160405280600681526020017f7430313832330000000000000000000000000000000000000000000000000000815250836104fc565b5050565b6060819050919050565b610461611808565b60008067ffffffffffffffff81111561047d5761047c611935565b5b6040519080825280601f01601f1916602001820160405280156104af5781602001600182028036833780820191505090505b50905060006104c663eff983fa858460003461052f565b905060006104d38261066a565b90506104dd611808565b6104f0828261075b90919063ffffffff16565b80945050505050919050565b60006105078261080e565b9050600061051d635d9dfc2c858460713461052f565b90506105288161066a565b5050505050565b606060008073fe0000000000000000000000000000000000000373ffffffffffffffffffffffffffffffffffffffff1688856000888a8c60405160200161057b96959493929190611e78565b6040516020818303038152906040526040516105979190611f23565b600060405180830381855af49150503d80600081146105d2576040519150601f19603f3d011682016040523d82523d6000602084013e6105d7565b606091505b509150915060011515821515146040518060400160405280601181526020017f6163746f722063616c6c206661696c65640000000000000000000000000000008152509061065b576040517f08c379a00000000000000000000000000000000000000000000000000000000081526004016106529190611de9565b60405180910390fd5b50809250505095945050505050565b6060600080600084806020019051810190610685919061203d565b925092509250600067ffffffffffffffff168267ffffffffffffffff1614806106c25750607167ffffffffffffffff168267ffffffffffffffff16145b610701576040517f08c379a00000000000000000000000000000000000000000000000000000000081526004016106f8906120f8565b60405180910390fd5b6000831461070e84610890565b9061074f576040517f08c379a00000000000000000000000000000000000000000000000000000000081526004016107469190611de9565b60405180910390fd5b50809350505050919050565b6000606061077282846108fa90919063ffffffff16565b809350819250505060008151111561079a5761078d81610aa4565b8460000181905250610808565b6040518060400160405280600067ffffffffffffffff8111156107c0576107bf611935565b5b6040519080825280601f01601f1916602001820160405280156107f25781602001600182028036833780820191505090505b5081526020016000151581525084600001819052505b50505050565b6060600061081c6040610c4b565b9050610832600382610c7290919063ffffffff16565b610849836000015182610c8290919063ffffffff16565b6108686108598460200151610cab565b82610c8290919063ffffffff16565b61087f836040015182610e0890919063ffffffff16565b61088881610e18565b915050919050565b606060008212156108ca576108a482610e71565b6040516020016108b4919061217a565b60405160208183030381529060405290506108f5565b6108d382610e71565b6040516020016108e3919061217a565b60405160208183030381529060405290505b919050565b6060600080600061090b8686610f3f565b8167ffffffffffffffff169150809750819350829450505050600660ff168260ff16148061093f5750600260ff168260ff16145b61094c5761094b6121a0565b5b600660ff168260ff1603610995576109648686610f3f565b8167ffffffffffffffff169150809750819350829450505050600260ff168260ff1614610994576109936121a0565b5b5b600081866109a391906121fe565b905060008267ffffffffffffffff8111156109c1576109c0611935565b5b6040519080825280601f01601f1916602001820160405280156109f35781602001600182028036833780820191505090505b5090506000808890505b83811015610a8657898181518110610a1857610a17612232565b5b602001015160f81c60f81b838381518110610a3657610a35612232565b5b60200101907effffffffffffffffffffffffffffffffffffffffffffffffffffffffffffff1916908160001a9053508180610a7090612261565b9250508080610a7e90612261565b9150506109fd565b50818489610a9491906121fe565b9650965050505050509250929050565b610aac611821565b6000825103610aea57604051806040016040528060405180604001604052806001815260200160008152508152602001600015158152509050610c46565b600060018351610afa91906122a9565b67ffffffffffffffff811115610b1357610b12611935565b5b6040519080825280601f01601f191660200182016040528015610b455781602001600182028036833780820191505090505b5090506000600160f81b84600081518110610b6357610b62612232565b5b602001015160f81c60f81b7effffffffffffffffffffffffffffffffffffffffffffffffffffffffffffff191603610b9a57600190505b6000600190505b8451811015610c2957848181518110610bbd57610bbc612232565b5b602001015160f81c60f81b83600183610bd691906122a9565b81518110610be757610be6612232565b5b60200101907effffffffffffffffffffffffffffffffffffffffffffffffffffffffffffff1916908160001a9053508080610c2190612261565b915050610ba1565b506040518060400160405280838152602001821515815250925050505b919050565b610c5361186e565b610c618160000151836110cd565b506000816020018181525050919050565b610c7e82600483611146565b5050565b610c8f8260028351611156565b610ca68183600001516112ff90919063ffffffff16565b505050565b606060006001836000015151610cc191906121fe565b67ffffffffffffffff811115610cda57610cd9611935565b5b6040519080825280601f01601f191660200182016040528015610d0c5781602001600182028036833780820191505090505b509050826020015115610d6257600160f81b81600081518110610d3257610d31612232565b5b60200101907effffffffffffffffffffffffffffffffffffffffffffffffffffffffffffff1916908160001a9053505b60006001905060005b846000015151811015610dfd5784600001518181518110610d8f57610d8e612232565b5b602001015160f81c60f81b838381518110610dad57610dac612232565b5b60200101907effffffffffffffffffffffffffffffffffffffffffffffffffffffffffffff1916908160001a9053508180610de790612261565b9250508080610df590612261565b915050610d6b565b508192505050919050565b610e1482600083611156565b5050565b60606000826020015114610e61576040517f08c379a0000000000000000000000000000000000000000000000000000000008152600401610e5890612329565b60405180910390fd5b8160000151600001519050919050565b606060006001610e808461131b565b01905060008167ffffffffffffffff811115610e9f57610e9e611935565b5b6040519080825280601f01601f191660200182016040528015610ed15781602001600182028036833780820191505090505b509050600082602001820190505b600115610f34578080600190039150507f3031323334353637383961626364656600000000000000000000000000000000600a86061a8153600a8581610f2857610f27612349565b5b04945060008503610edf575b819350505050919050565b600080600080610f4f868661146e565b9050600185610f5e91906121fe565b94506000600560e0831660ff16901c90506000601f83169050601c8160ff1610610f8b57610f8a6121a0565b5b60188160ff161015610fae578181888160ff1691509550955095505050506110c6565b60188160ff1603611003576000610fc5898961146e565b9050600188610fd491906121fe565b975060188160ff161015610feb57610fea6121a0565b5b8281898160ff169150965096509650505050506110c6565b60198160ff160361104457600061101a89896114d5565b905060028861102991906121fe565b97508281898161ffff169150965096509650505050506110c6565b601a8160ff160361108757600061105b898961153c565b905060048861106a91906121fe565b97508281898163ffffffff169150965096509650505050506110c6565b601b8160ff161461109b5761109a6121a0565b5b60006110a789896115a3565b90506008886110b691906121fe565b9750828189965096509650505050505b9250925092565b6110d561188e565b60006020836110e49190612378565b14611110576020826110f69190612378565b602061110291906122a9565b8261110d91906121fe565b91505b81836020018181525050604051808452600081528281016020018181101561113757600080fd5b80604052505082905092915050565b611151838383611156565b505050565b60178167ffffffffffffffff16116111915761118b8160058460ff16901b60ff1617846000015161160a90919063ffffffff16565b506112fa565b60ff8167ffffffffffffffff16116111ef576111c4601860058460ff16901b17846000015161160a90919063ffffffff16565b506111e98167ffffffffffffffff16600185600001516116749092919063ffffffff16565b506112f9565b61ffff8167ffffffffffffffff161161124e57611223601960058460ff16901b17846000015161160a90919063ffffffff16565b506112488167ffffffffffffffff16600285600001516116749092919063ffffffff16565b506112f8565b63ffffffff8167ffffffffffffffff16116112af57611284601a60058460ff16901b17846000015161160a90919063ffffffff16565b506112a98167ffffffffffffffff16600485600001516116749092919063ffffffff16565b506112f7565b6112d0601b60058460ff16901b17846000015161160a90919063ffffffff16565b506112f58167ffffffffffffffff16600885600001516116749092919063ffffffff16565b505b5b5b5b505050565b61130761188e565b61131383838451611701565b905092915050565b600080600090507a184f03e93ff9f4daa797ed6e38ed64bf6a1f0100000000000000008310611379577a184f03e93ff9f4daa797ed6e38ed64bf6a1f010000000000000000838161136f5761136e612349565b5b0492506040810190505b6d04ee2d6d415b85acef810000000083106113b6576d04ee2d6d415b85acef810000000083816113ac576113ab612349565b5b0492506020810190505b662386f26fc1000083106113e557662386f26fc1000083816113db576113da612349565b5b0492506010810190505b6305f5e100831061140e576305f5e100838161140457611403612349565b5b0492506008810190505b612710831061143357612710838161142957611428612349565b5b0492506004810190505b60648310611456576064838161144c5761144b612349565b5b0492506002810190505b600a8310611465576001810190505b80915050919050565b600060018261147d91906121fe565b835110156114c0576040517f08c379a00000000000000000000000000000000000000000000000000000000081526004016114b7906123f5565b60405180910390fd5b60008260010184015190508091505092915050565b60006002826114e491906121fe565b83511015611527576040517f08c379a000000000000000000000000000000000000000000000000000000000815260040161151e906123f5565b60405180910390fd5b60008260020184015190508091505092915050565b600060048261154b91906121fe565b8351101561158e576040517f08c379a0000000000000000000000000000000000000000000000000000000008152600401611585906123f5565b60405180910390fd5b60008260040184015190508091505092915050565b60006008826115b291906121fe565b835110156115f5576040517f08c379a00000000000000000000000000000000000000000000000000000000081526004016115ec906123f5565b60405180910390fd5b60008260080184015190508091505092915050565b61161261188e565b60008360000151519050600060018261162b91906121fe565b90508460200151821061164f5761164e856002836116499190612415565b6117e4565b5b84516020838201018581538151831115611667578282525b5050849250505092915050565b61167c61188e565b600084600001515190506000818461169491906121fe565b905085602001518111156116b9576116b8866002836116b39190612415565b6117e4565b5b60006001856101006116cb919061258a565b6116d591906122a9565b9050865182810187831982511617815281518411156116f2578382525b50508693505050509392505050565b61170961188e565b825182111561171757600080fd5b600084600001515190506000838261172f91906121fe565b90508560200151811115611754576117538660028361174e9190612415565b6117e4565b5b6000808751805185602083010193508085111561176f578482525b60208901925050505b602086106117b6578051825260208261179191906121fe565b91506020816117a091906121fe565b90506020866117af91906122a9565b9550611778565b60006001876020036101000a0390508019825116818451168181178552505050879450505050509392505050565b6000826000015190506117f783836110cd565b5061180283826112ff565b50505050565b604051806020016040528061181b611821565b81525090565b6040518060400160405280606081526020016000151581525090565b604051806060016040528060608152602001611857611821565b8152602001600067ffffffffffffffff1681525090565b604051806040016040528061188161188e565b8152602001600081525090565b604051806040016040528060608152602001600081525090565b6000604051905090565b600080fd5b600080fd5b600073ffffffffffffffffffffffffffffffffffffffff82169050919050565b60006118e7826118bc565b9050919050565b6118f7816118dc565b811461190257600080fd5b50565b600081359050611914816118ee565b92915050565b600080fd5b600080fd5b6000601f19601f8301169050919050565b7f4e487b7100000000000000000000000000000000000000000000000000000000600052604160045260246000fd5b61196d82611924565b810181811067ffffffffffffffff8211171561198c5761198b611935565b5b80604052505050565b600061199f6118a8565b90506119ab8282611964565b919050565b600067ffffffffffffffff8211156119cb576119ca611935565b5b6119d482611924565b9050602081019050919050565b82818337600083830152505050565b6000611a036119fe846119b0565b611995565b905082815260208101848484011115611a1f57611a1e61191f565b5b611a2a8482856119e1565b509392505050565b600082601f830112611a4757611a4661191a565b5b8135611a578482602086016119f0565b91505092915050565b60008060408385031215611a7757611a766118b2565b5b6000611a8585828601611905565b925050602083013567ffffffffffffffff811115611aa657611aa56118b7565b5b611ab285828601611a32565b9150509250929050565b6000819050919050565b611acf81611abc565b8114611ada57600080fd5b50565b600081359050611aec81611ac6565b92915050565b600060208284031215611b0857611b076118b2565b5b6000611b1684828501611add565b91505092915050565b60008060408385031215611b3657611b356118b2565b5b6000611b4485828601611905565b9250506020611b5585828601611add565b9150509250929050565b611b6881611abc565b82525050565b6000602082019050611b836000830184611b5f565b92915050565b600081519050919050565b600082825260208201905092915050565b60005b83811015611bc3578082015181840152602081019050611ba8565b60008484015250505050565b6000611bda82611b89565b611be48185611b94565b9350611bf4818560208601611ba5565b611bfd81611924565b840191505092915050565b60008115159050919050565b611c1d81611c08565b82525050565b60006040830160008301518482036000860152611c408282611bcf565b9150506020830151611c556020860182611c14565b508091505092915050565b60006020830160008301518482036000860152611c7d8282611c23565b9150508091505092915050565b60006020820190508181036000830152611ca48184611c60565b905092915050565b600060208284031215611cc257611cc16118b2565b5b600082013567ffffffffffffffff811115611ce057611cdf6118b7565b5b611cec84828501611a32565b91505092915050565b60006040830160008301518482036000860152611d128282611bcf565b9150506020830151611d276020860182611c14565b508091505092915050565b60006020820190508181036000830152611d4c8184611cf5565b905092915050565b60008060408385031215611d6b57611d6a6118b2565b5b6000611d7985828601611905565b9250506020611d8a85828601611905565b9150509250929050565b600081519050919050565b600082825260208201905092915050565b6000611dbb82611d94565b611dc58185611d9f565b9350611dd5818560208601611ba5565b611dde81611924565b840191505092915050565b60006020820190508181036000830152611e038184611db0565b905092915050565b600067ffffffffffffffff82169050919050565b611e2881611e0b565b82525050565b600082825260208201905092915050565b6000611e4a82611b89565b611e548185611e2e565b9350611e64818560208601611ba5565b611e6d81611924565b840191505092915050565b600060c082019050611e8d6000830189611e1f565b611e9a6020830188611b5f565b611ea76040830187611e1f565b611eb46060830186611e1f565b8181036080830152611ec68185611e3f565b905081810360a0830152611eda8184611e3f565b9050979650505050505050565b600081905092915050565b6000611efd82611b89565b611f078185611ee7565b9350611f17818560208601611ba5565b80840191505092915050565b6000611f2f8284611ef2565b915081905092915050565b6000819050919050565b611f4d81611f3a565b8114611f5857600080fd5b50565b600081519050611f6a81611f44565b92915050565b611f7981611e0b565b8114611f8457600080fd5b50565b600081519050611f9681611f70565b92915050565b600067ffffffffffffffff821115611fb757611fb6611935565b5b611fc082611924565b9050602081019050919050565b6000611fe0611fdb84611f9c565b611995565b905082815260208101848484011115611ffc57611ffb61191f565b5b612007848285611ba5565b509392505050565b600082601f8301126120245761202361191a565b5b8151612034848260208601611fcd565b91505092915050565b600080600060608486031215612056576120556118b2565b5b600061206486828701611f5b565b935050602061207586828701611f87565b925050604084015167ffffffffffffffff811115612096576120956118b7565b5b6120a28682870161200f565b9150509250925092565b7f726573706f6e736520636f646563206e6f7420737570706f7274656400000000600082015250565b60006120e2601c83611d9f565b91506120ed826120ac565b602082019050919050565b60006020820190508181036000830152612111816120d5565b9050919050565b7f6163746f72206572726f7220636f6465202d0000000000000000000000000000815250565b600081905092915050565b600061215482611d94565b61215e818561213e565b935061216e818560208601611ba5565b80840191505092915050565b600061218582612118565b6012820191506121958284612149565b915081905092915050565b7f4e487b7100000000000000000000000000000000000000000000000000000000600052600160045260246000fd5b7f4e487b7100000000000000000000000000000000000000000000000000000000600052601160045260246000fd5b600061220982611abc565b915061221483611abc565b925082820190508082111561222c5761222b6121cf565b5b92915050565b7f4e487b7100000000000000000000000000000000000000000000000000000000600052603260045260246000fd5b600061226c82611abc565b91507fffffffffffffffffffffffffffffffffffffffffffffffffffffffffffffffff820361229e5761229d6121cf565b5b600182019050919050565b60006122b482611abc565b91506122bf83611abc565b92508282039050818111156122d7576122d66121cf565b5b92915050565b7f496e76616c69642043424f520000000000000000000000000000000000000000600082015250565b6000612313600c83611d9f565b915061231e826122dd565b602082019050919050565b6000602082019050818103600083015261234281612306565b9050919050565b7f4e487b7100000000000000000000000000000000000000000000000000000000600052601260045260246000fd5b600061238382611abc565b915061238e83611abc565b92508261239e5761239d612349565b5b828206905092915050565b7f736c6963696e67206f7574206f662072616e6765000000000000000000000000600082015250565b60006123df601483611d9f565b91506123ea826123a9565b602082019050919050565b6000602082019050818103600083015261240e816123d2565b9050919050565b600061242082611abc565b915061242b83611abc565b925082820261243981611abc565b915082820484148315176124505761244f6121cf565b5b5092915050565b60008160011c9050919050565b6000808291508390505b60018511156124ae5780860481111561248a576124896121cf565b5b60018516156124995780820291505b80810290506124a785612457565b945061246e565b94509492505050565b6000826124c75760019050612583565b816124d55760009050612583565b81600181146124eb57600281146124f557612524565b6001915050612583565b60ff841115612507576125066121cf565b5b8360020a91508482111561251e5761251d6121cf565b5b50612583565b5060208310610133831016604e8410600b84101617156125595782820a905083811115612554576125536121cf565b5b612583565b6125668484846001612464565b9250905081840481111561257d5761257c6121cf565b5b81810290505b9392505050565b600061259582611abc565b91506125a083611abc565b92506125cd7fffffffffffffffffffffffffffffffffffffffffffffffffffffffffffffffff84846124b7565b90509291505056fe307834374331436262314436373642343436346331394335633538646561413530624134363843363942a264697066735822122049a5bf206a4d3f4ec75d316e9f23e480f42a99bd1693ab240bd8e55d8de0f79664736f6c63430008110033",
  "devdoc": {
    "kind": "dev",
    "methods": {},
    "version": 1
  },
  "userdoc": {
    "kind": "user",
    "methods": {
      "borrow(address,uint256)": {
        "notice": "borrow  transfer fil from pool to user wallet"
      },
      "calculateInterests()": {
        "notice": "calculate interest"
      },
      "changeBeneficiary()": {
        "notice": "test build-in actor"
      },
      "deposit()": {
        "notice": "test deposit"
      },
      "getAvailableBalance()": {
        "notice": "test build-in actor"
      },
      "getAvailableBalance(string)": {
        "notice": "test build-in actor"
      },
      "repay(uint256)": {
        "notice": "repay change beneficiary calculate interest"
      },
      "supply(uint256)": {
        "notice": "supply transfer from user wallet to pool"
      },
      "supplyCollateral(address,string)": {
        "notice": "supply collateral"
      },
      "test(string)": {
        "notice": "test network"
      },
      "transferFil(address,address)": {
        "notice": "test transfer fil"
      }
    },
    "version": 1
  },
  "storageLayout": {
    "storage": [],
    "types": null
  }
}