{
  "address": "0x5a33B921450296CcFD5550925c0dDC6F8Ad5af9A",
  "abi": [
    {
      "anonymous": false,
      "inputs": [
        {
          "components": [
            {
              "internalType": "bytes",
              "name": "val",
              "type": "bytes"
            },
            {
              "internalType": "bool",
              "name": "neg",
              "type": "bool"
            }
          ],
          "indexed": false,
          "internalType": "struct BigInt",
          "name": "msg",
          "type": "tuple"
        }
      ],
      "name": "Logger",
      "type": "event"
    },
    {
      "stateMutability": "payable",
      "type": "fallback"
    },
    {
      "inputs": [
        {
          "internalType": "address",
          "name": "receiver",
          "type": "address"
        },
        {
          "internalType": "uint256",
          "name": "amount",
          "type": "uint256"
        }
      ],
      "name": "borrow",
      "outputs": [],
      "stateMutability": "nonpayable",
      "type": "function"
    },
    {
      "inputs": [],
      "name": "calculateInterests",
      "outputs": [
        {
          "internalType": "uint256",
          "name": "",
          "type": "uint256"
        }
      ],
      "stateMutability": "pure",
      "type": "function"
    },
    {
      "inputs": [],
      "name": "changeBeneficiary",
      "outputs": [
        {
          "internalType": "bool",
          "name": "",
          "type": "bool"
        },
        {
          "internalType": "int256",
          "name": "",
          "type": "int256"
        },
        {
          "internalType": "uint64",
          "name": "",
          "type": "uint64"
        },
        {
          "internalType": "bytes",
          "name": "",
          "type": "bytes"
        }
      ],
      "stateMutability": "nonpayable",
      "type": "function"
    },
    {
      "inputs": [],
      "name": "deposit",
      "outputs": [],
      "stateMutability": "payable",
      "type": "function"
    },
    {
      "inputs": [],
      "name": "getAvailableBalance",
      "outputs": [
        {
          "components": [
            {
              "components": [
                {
                  "internalType": "bytes",
                  "name": "val",
                  "type": "bytes"
                },
                {
                  "internalType": "bool",
                  "name": "neg",
                  "type": "bool"
                }
              ],
              "internalType": "struct BigInt",
              "name": "available_balance",
              "type": "tuple"
            }
          ],
          "internalType": "struct MinerTypes.GetAvailableBalanceReturn",
          "name": "",
          "type": "tuple"
        }
      ],
      "stateMutability": "nonpayable",
      "type": "function"
    },
    {
      "inputs": [
        {
          "internalType": "string",
          "name": "target",
          "type": "string"
        }
      ],
      "name": "getAvailableBalance",
      "outputs": [
        {
          "components": [
            {
              "internalType": "bytes",
              "name": "val",
              "type": "bytes"
            },
            {
              "internalType": "bool",
              "name": "neg",
              "type": "bool"
            }
          ],
          "internalType": "struct BigInt",
          "name": "",
          "type": "tuple"
        }
      ],
      "stateMutability": "nonpayable",
      "type": "function"
    },
    {
      "inputs": [
        {
          "internalType": "uint256",
          "name": "amount",
          "type": "uint256"
        }
      ],
      "name": "repay",
      "outputs": [],
      "stateMutability": "nonpayable",
      "type": "function"
    },
    {
      "inputs": [
        {
          "internalType": "uint256",
          "name": "amount",
          "type": "uint256"
        }
      ],
      "name": "supply",
      "outputs": [],
      "stateMutability": "payable",
      "type": "function"
    },
    {
      "inputs": [
        {
          "internalType": "address",
          "name": "from",
          "type": "address"
        },
        {
          "internalType": "string",
          "name": "miner",
          "type": "string"
        }
      ],
      "name": "supplyCollateral",
      "outputs": [],
      "stateMutability": "nonpayable",
      "type": "function"
    },
    {
      "inputs": [
        {
          "internalType": "string",
          "name": "tmp",
          "type": "string"
        }
      ],
      "name": "test",
      "outputs": [
        {
          "internalType": "string",
          "name": "",
          "type": "string"
        }
      ],
      "stateMutability": "pure",
      "type": "function"
    },
    {
      "inputs": [
        {
          "internalType": "address",
          "name": "from",
          "type": "address"
        },
        {
          "internalType": "address",
          "name": "to",
          "type": "address"
        }
      ],
      "name": "transferFil",
      "outputs": [],
      "stateMutability": "nonpayable",
      "type": "function"
    },
    {
      "stateMutability": "payable",
      "type": "receive"
    }
  ],
  "transactionHash": "0xa2a1ee9772587163e5115d961502c81f28046c9e97e1891452ee0ad69d20c9d8",
  "args": [],
  "numDeployments": 1,
  "solcInputHash": "1a4c90bf0466fd1fc63a8ef63424e8c7",
  "bytecode": "0x608060405234801561001057600080fd5b506127ad806100206000396000f3fe6080604052600436106100a05760003560e01c8063809dab6a11610064578063809dab6a1461016b5780638a594f50146101965780639913d13a146101d3578063d0e30db0146101fc578063f6f6217d14610206578063f9fbd55414610234576100a7565b80632b128450146100a957806335403023146100d2578063371fd8e6146100ee5780634b8a35291461011757806359ba494114610140576100a7565b366100a757005b005b3480156100b557600080fd5b506100d060048036038101906100cb9190611b6e565b610271565b005b6100ec60048036038101906100e79190611c00565b610316565b005b3480156100fa57600080fd5b5061011560048036038101906101109190611c00565b610319565b005b34801561012357600080fd5b5061013e60048036038101906101399190611c2d565b61031c565b005b34801561014c57600080fd5b50610155610320565b6040516101629190611c7c565b60405180910390f35b34801561017757600080fd5b50610180610329565b60405161018d9190611d98565b60405180910390f35b3480156101a257600080fd5b506101bd60048036038101906101b89190611dba565b610374565b6040516101ca9190611e40565b60405180910390f35b3480156101df57600080fd5b506101fa60048036038101906101f59190611e62565b6103d1565b005b61020461041d565b005b34801561021257600080fd5b5061021b61041f565b60405161022b9493929190611f37565b60405180910390f35b34801561024057600080fd5b5061025b60048036038101906102569190611dba565b610512565b6040516102689190611fd8565b60405180910390f35b610279611916565b600060405180604001604052806040518060400160405280600281526020017f100000000000000000000000000000000000000000000000000000000000000081525081526020016000151581525090508082602001819052506103e8826040019067ffffffffffffffff16908167ffffffffffffffff16815250506102fe3061051c565b82600001819052506103108383610567565b50505050565b50565b50565b5050565b60006001905090565b610331611947565b61036f6040518060400160405280600681526020017f743031303634000000000000000000000000000000000000000000000000000081525061059a565b905090565b61037c611960565b60006103878361059a565b90507fa2ddd6267efd2f6d55932aa34c682b9e61e408a2f4267a45334fa90a5247d21081600001516040516103bc9190611e40565b60405180910390a18060000151915050919050565b8073ffffffffffffffffffffffffffffffffffffffff166108fc60019081150290604051600060405180830381858888f19350505050158015610418573d6000803e3d6000fd5b505050565b565b6000806000606061042e611916565b600060405180604001604052806040518060400160405280600281526020017f100000000000000000000000000000000000000000000000000000000000000081525081526020016000151581525090508082602001819052506103e8826040019067ffffffffffffffff16908167ffffffffffffffff16815250506040518060600160405280602a815260200161274e602a9139826000018190525061050a6040518060400160405280600681526020017f743031383233000000000000000000000000000000000000000000000000000081525083610567565b505090919293565b6060819050919050565b606060405173ffffffffffffffffffffffffffffffffffffffff8316925082741400000000000000000000000000000000000000001860148201526034810160405280915050919050565b60006105728261063d565b90506000610588635d9dfc2c85846071346106bf565b9050610593816107fa565b5050505050565b6105a2611947565b60008067ffffffffffffffff8111156105be576105bd611a43565b5b6040519080825280601f01601f1916602001820160405280156105f05781602001600182028036833780820191505090505b509050600061060763eff983fa85846000346106bf565b90506000610614826107fa565b905061061e611947565b61063182826108eb90919063ffffffff16565b80945050505050919050565b6060600061064b604061099e565b90506106616003826109c590919063ffffffff16565b6106788360000151826109d590919063ffffffff16565b61069761068884602001516109fe565b826109d590919063ffffffff16565b6106ae836040015182610b5b90919063ffffffff16565b6106b781610b6b565b915050919050565b606060008073fe0000000000000000000000000000000000000373ffffffffffffffffffffffffffffffffffffffff1688856000888a8c60405160200161070b96959493929190611ffa565b60405160208183030381529060405260405161072791906120a5565b600060405180830381855af49150503d8060008114610762576040519150601f19603f3d011682016040523d82523d6000602084013e610767565b606091505b509150915060011515821515146040518060400160405280601181526020017f6163746f722063616c6c206661696c6564000000000000000000000000000000815250906107eb576040517f08c379a00000000000000000000000000000000000000000000000000000000081526004016107e29190611fd8565b60405180910390fd5b50809250505095945050505050565b606060008060008480602001905181019061081591906121b5565b925092509250600067ffffffffffffffff168267ffffffffffffffff1614806108525750607167ffffffffffffffff168267ffffffffffffffff16145b610891576040517f08c379a000000000000000000000000000000000000000000000000000000000815260040161088890612270565b60405180910390fd5b6000831461089e84610bc4565b906108df576040517f08c379a00000000000000000000000000000000000000000000000000000000081526004016108d69190611fd8565b60405180910390fd5b50809350505050919050565b600060606109028284610c2e90919063ffffffff16565b809350819250505060008151111561092a5761091d81610dd8565b8460000181905250610998565b6040518060400160405280600067ffffffffffffffff8111156109505761094f611a43565b5b6040519080825280601f01601f1916602001820160405280156109825781602001600182028036833780820191505090505b5081526020016000151581525084600001819052505b50505050565b6109a661197c565b6109b4816000015183610f7f565b506000816020018181525050919050565b6109d182600483610ff8565b5050565b6109e28260028351611008565b6109f98183600001516111b190919063ffffffff16565b505050565b606060006001836000015151610a1491906122bf565b67ffffffffffffffff811115610a2d57610a2c611a43565b5b6040519080825280601f01601f191660200182016040528015610a5f5781602001600182028036833780820191505090505b509050826020015115610ab557600160f81b81600081518110610a8557610a846122f3565b5b60200101907effffffffffffffffffffffffffffffffffffffffffffffffffffffffffffff1916908160001a9053505b60006001905060005b846000015151811015610b505784600001518181518110610ae257610ae16122f3565b5b602001015160f81c60f81b838381518110610b0057610aff6122f3565b5b60200101907effffffffffffffffffffffffffffffffffffffffffffffffffffffffffffff1916908160001a9053508180610b3a90612322565b9250508080610b4890612322565b915050610abe565b508192505050919050565b610b6782600083611008565b5050565b60606000826020015114610bb4576040517f08c379a0000000000000000000000000000000000000000000000000000000008152600401610bab906123b6565b60405180910390fd5b8160000151600001519050919050565b60606000821215610bfe57610bd8826111cd565b604051602001610be89190612438565b6040516020818303038152906040529050610c29565b610c07826111cd565b604051602001610c179190612438565b60405160208183030381529060405290505b919050565b60606000806000610c3f868661129b565b8167ffffffffffffffff169150809750819350829450505050600660ff168260ff161480610c735750600260ff168260ff16145b610c8057610c7f61245e565b5b600660ff168260ff1603610cc957610c98868661129b565b8167ffffffffffffffff169150809750819350829450505050600260ff168260ff1614610cc857610cc761245e565b5b5b60008186610cd791906122bf565b905060008267ffffffffffffffff811115610cf557610cf4611a43565b5b6040519080825280601f01601f191660200182016040528015610d275781602001600182028036833780820191505090505b5090506000808890505b83811015610dba57898181518110610d4c57610d4b6122f3565b5b602001015160f81c60f81b838381518110610d6a57610d696122f3565b5b60200101907effffffffffffffffffffffffffffffffffffffffffffffffffffffffffffff1916908160001a9053508180610da490612322565b9250508080610db290612322565b915050610d31565b50818489610dc891906122bf565b9650965050505050509250929050565b610de0611960565b6000825103610e1e57604051806040016040528060405180604001604052806001815260200160008152508152602001600015158152509050610f7a565b600060018351610e2e919061248d565b67ffffffffffffffff811115610e4757610e46611a43565b5b6040519080825280601f01601f191660200182016040528015610e795781602001600182028036833780820191505090505b5090506000600160f81b84600081518110610e9757610e966122f3565b5b602001015160f81c60f81b7effffffffffffffffffffffffffffffffffffffffffffffffffffffffffffff191603610ece57600190505b6000600190505b8451811015610f5d57848181518110610ef157610ef06122f3565b5b602001015160f81c60f81b83600183610f0a919061248d565b81518110610f1b57610f1a6122f3565b5b60200101907effffffffffffffffffffffffffffffffffffffffffffffffffffffffffffff1916908160001a9053508080610f5590612322565b915050610ed5565b506040518060400160405280838152602001821515815250925050505b919050565b610f8761199c565b6000602083610f9691906124f0565b14610fc257602082610fa891906124f0565b6020610fb4919061248d565b82610fbf91906122bf565b91505b818360200181815250506040518084526000815282810160200181811015610fe957600080fd5b80604052505082905092915050565b611003838383611008565b505050565b60178167ffffffffffffffff16116110435761103d8160058460ff16901b60ff1617846000015161142990919063ffffffff16565b506111ac565b60ff8167ffffffffffffffff16116110a157611076601860058460ff16901b17846000015161142990919063ffffffff16565b5061109b8167ffffffffffffffff16600185600001516114939092919063ffffffff16565b506111ab565b61ffff8167ffffffffffffffff1611611100576110d5601960058460ff16901b17846000015161142990919063ffffffff16565b506110fa8167ffffffffffffffff16600285600001516114939092919063ffffffff16565b506111aa565b63ffffffff8167ffffffffffffffff161161116157611136601a60058460ff16901b17846000015161142990919063ffffffff16565b5061115b8167ffffffffffffffff16600485600001516114939092919063ffffffff16565b506111a9565b611182601b60058460ff16901b17846000015161142990919063ffffffff16565b506111a78167ffffffffffffffff16600885600001516114939092919063ffffffff16565b505b5b5b5b505050565b6111b961199c565b6111c583838451611520565b905092915050565b6060600060016111dc84611603565b01905060008167ffffffffffffffff8111156111fb576111fa611a43565b5b6040519080825280601f01601f19166020018201604052801561122d5781602001600182028036833780820191505090505b509050600082602001820190505b600115611290578080600190039150507f3031323334353637383961626364656600000000000000000000000000000000600a86061a8153600a8581611284576112836124c1565b5b0494506000850361123b575b819350505050919050565b6000806000806112ab8686611756565b90506001856112ba91906122bf565b94506000600560e0831660ff16901c90506000601f83169050601c8160ff16106112e7576112e661245e565b5b60188160ff16101561130a578181888160ff169150955095509550505050611422565b60188160ff160361135f5760006113218989611756565b905060018861133091906122bf565b975060188160ff1610156113475761134661245e565b5b8281898160ff16915096509650965050505050611422565b60198160ff16036113a057600061137689896117bd565b905060028861138591906122bf565b97508281898161ffff16915096509650965050505050611422565b601a8160ff16036113e35760006113b78989611824565b90506004886113c691906122bf565b97508281898163ffffffff16915096509650965050505050611422565b601b8160ff16146113f7576113f661245e565b5b6000611403898961188b565b905060088861141291906122bf565b9750828189965096509650505050505b9250925092565b61143161199c565b60008360000151519050600060018261144a91906122bf565b90508460200151821061146e5761146d856002836114689190612521565b6118f2565b5b84516020838201018581538151831115611486578282525b5050849250505092915050565b61149b61199c565b60008460000151519050600081846114b391906122bf565b905085602001518111156114d8576114d7866002836114d29190612521565b6118f2565b5b60006001856101006114ea9190612696565b6114f4919061248d565b905086518281018783198251161781528151841115611511578382525b50508693505050509392505050565b61152861199c565b825182111561153657600080fd5b600084600001515190506000838261154e91906122bf565b90508560200151811115611573576115728660028361156d9190612521565b6118f2565b5b6000808751805185602083010193508085111561158e578482525b60208901925050505b602086106115d557805182526020826115b091906122bf565b91506020816115bf91906122bf565b90506020866115ce919061248d565b9550611597565b60006001876020036101000a0390508019825116818451168181178552505050879450505050509392505050565b600080600090507a184f03e93ff9f4daa797ed6e38ed64bf6a1f0100000000000000008310611661577a184f03e93ff9f4daa797ed6e38ed64bf6a1f0100000000000000008381611657576116566124c1565b5b0492506040810190505b6d04ee2d6d415b85acef8100000000831061169e576d04ee2d6d415b85acef81000000008381611694576116936124c1565b5b0492506020810190505b662386f26fc1000083106116cd57662386f26fc1000083816116c3576116c26124c1565b5b0492506010810190505b6305f5e10083106116f6576305f5e10083816116ec576116eb6124c1565b5b0492506008810190505b612710831061171b576127108381611711576117106124c1565b5b0492506004810190505b6064831061173e5760648381611734576117336124c1565b5b0492506002810190505b600a831061174d576001810190505b80915050919050565b600060018261176591906122bf565b835110156117a8576040517f08c379a000000000000000000000000000000000000000000000000000000000815260040161179f9061272d565b60405180910390fd5b60008260010184015190508091505092915050565b60006002826117cc91906122bf565b8351101561180f576040517f08c379a00000000000000000000000000000000000000000000000000000000081526004016118069061272d565b60405180910390fd5b60008260020184015190508091505092915050565b600060048261183391906122bf565b83511015611876576040517f08c379a000000000000000000000000000000000000000000000000000000000815260040161186d9061272d565b60405180910390fd5b60008260040184015190508091505092915050565b600060088261189a91906122bf565b835110156118dd576040517f08c379a00000000000000000000000000000000000000000000000000000000081526004016118d49061272d565b60405180910390fd5b60008260080184015190508091505092915050565b6000826000015190506119058383610f7f565b5061191083826111b1565b50505050565b604051806060016040528060608152602001611930611960565b8152602001600067ffffffffffffffff1681525090565b604051806020016040528061195a611960565b81525090565b6040518060400160405280606081526020016000151581525090565b604051806040016040528061198f61199c565b8152602001600081525090565b604051806040016040528060608152602001600081525090565b6000604051905090565b600080fd5b600080fd5b600073ffffffffffffffffffffffffffffffffffffffff82169050919050565b60006119f5826119ca565b9050919050565b611a05816119ea565b8114611a1057600080fd5b50565b600081359050611a22816119fc565b92915050565b600080fd5b600080fd5b6000601f19601f8301169050919050565b7f4e487b7100000000000000000000000000000000000000000000000000000000600052604160045260246000fd5b611a7b82611a32565b810181811067ffffffffffffffff82111715611a9a57611a99611a43565b5b80604052505050565b6000611aad6119b6565b9050611ab98282611a72565b919050565b600067ffffffffffffffff821115611ad957611ad8611a43565b5b611ae282611a32565b9050602081019050919050565b82818337600083830152505050565b6000611b11611b0c84611abe565b611aa3565b905082815260208101848484011115611b2d57611b2c611a2d565b5b611b38848285611aef565b509392505050565b600082601f830112611b5557611b54611a28565b5b8135611b65848260208601611afe565b91505092915050565b60008060408385031215611b8557611b846119c0565b5b6000611b9385828601611a13565b925050602083013567ffffffffffffffff811115611bb457611bb36119c5565b5b611bc085828601611b40565b9150509250929050565b6000819050919050565b611bdd81611bca565b8114611be857600080fd5b50565b600081359050611bfa81611bd4565b92915050565b600060208284031215611c1657611c156119c0565b5b6000611c2484828501611beb565b91505092915050565b60008060408385031215611c4457611c436119c0565b5b6000611c5285828601611a13565b9250506020611c6385828601611beb565b9150509250929050565b611c7681611bca565b82525050565b6000602082019050611c916000830184611c6d565b92915050565b600081519050919050565b600082825260208201905092915050565b60005b83811015611cd1578082015181840152602081019050611cb6565b60008484015250505050565b6000611ce882611c97565b611cf28185611ca2565b9350611d02818560208601611cb3565b611d0b81611a32565b840191505092915050565b60008115159050919050565b611d2b81611d16565b82525050565b60006040830160008301518482036000860152611d4e8282611cdd565b9150506020830151611d636020860182611d22565b508091505092915050565b60006020830160008301518482036000860152611d8b8282611d31565b9150508091505092915050565b60006020820190508181036000830152611db28184611d6e565b905092915050565b600060208284031215611dd057611dcf6119c0565b5b600082013567ffffffffffffffff811115611dee57611ded6119c5565b5b611dfa84828501611b40565b91505092915050565b60006040830160008301518482036000860152611e208282611cdd565b9150506020830151611e356020860182611d22565b508091505092915050565b60006020820190508181036000830152611e5a8184611e03565b905092915050565b60008060408385031215611e7957611e786119c0565b5b6000611e8785828601611a13565b9250506020611e9885828601611a13565b9150509250929050565b611eab81611d16565b82525050565b6000819050919050565b611ec481611eb1565b82525050565b600067ffffffffffffffff82169050919050565b611ee781611eca565b82525050565b600082825260208201905092915050565b6000611f0982611c97565b611f138185611eed565b9350611f23818560208601611cb3565b611f2c81611a32565b840191505092915050565b6000608082019050611f4c6000830187611ea2565b611f596020830186611ebb565b611f666040830185611ede565b8181036060830152611f788184611efe565b905095945050505050565b600081519050919050565b600082825260208201905092915050565b6000611faa82611f83565b611fb48185611f8e565b9350611fc4818560208601611cb3565b611fcd81611a32565b840191505092915050565b60006020820190508181036000830152611ff28184611f9f565b905092915050565b600060c08201905061200f6000830189611ede565b61201c6020830188611c6d565b6120296040830187611ede565b6120366060830186611ede565b81810360808301526120488185611efe565b905081810360a083015261205c8184611efe565b9050979650505050505050565b600081905092915050565b600061207f82611c97565b6120898185612069565b9350612099818560208601611cb3565b80840191505092915050565b60006120b18284612074565b915081905092915050565b6120c581611eb1565b81146120d057600080fd5b50565b6000815190506120e2816120bc565b92915050565b6120f181611eca565b81146120fc57600080fd5b50565b60008151905061210e816120e8565b92915050565b600067ffffffffffffffff82111561212f5761212e611a43565b5b61213882611a32565b9050602081019050919050565b600061215861215384612114565b611aa3565b90508281526020810184848401111561217457612173611a2d565b5b61217f848285611cb3565b509392505050565b600082601f83011261219c5761219b611a28565b5b81516121ac848260208601612145565b91505092915050565b6000806000606084860312156121ce576121cd6119c0565b5b60006121dc868287016120d3565b93505060206121ed868287016120ff565b925050604084015167ffffffffffffffff81111561220e5761220d6119c5565b5b61221a86828701612187565b9150509250925092565b7f726573706f6e736520636f646563206e6f7420737570706f7274656400000000600082015250565b600061225a601c83611f8e565b915061226582612224565b602082019050919050565b600060208201905081810360008301526122898161224d565b9050919050565b7f4e487b7100000000000000000000000000000000000000000000000000000000600052601160045260246000fd5b60006122ca82611bca565b91506122d583611bca565b92508282019050808211156122ed576122ec612290565b5b92915050565b7f4e487b7100000000000000000000000000000000000000000000000000000000600052603260045260246000fd5b600061232d82611bca565b91507fffffffffffffffffffffffffffffffffffffffffffffffffffffffffffffffff820361235f5761235e612290565b5b600182019050919050565b7f496e76616c69642043424f520000000000000000000000000000000000000000600082015250565b60006123a0600c83611f8e565b91506123ab8261236a565b602082019050919050565b600060208201905081810360008301526123cf81612393565b9050919050565b7f6163746f72206572726f7220636f6465202d0000000000000000000000000000815250565b600081905092915050565b600061241282611f83565b61241c81856123fc565b935061242c818560208601611cb3565b80840191505092915050565b6000612443826123d6565b6012820191506124538284612407565b915081905092915050565b7f4e487b7100000000000000000000000000000000000000000000000000000000600052600160045260246000fd5b600061249882611bca565b91506124a383611bca565b92508282039050818111156124bb576124ba612290565b5b92915050565b7f4e487b7100000000000000000000000000000000000000000000000000000000600052601260045260246000fd5b60006124fb82611bca565b915061250683611bca565b925082612516576125156124c1565b5b828206905092915050565b600061252c82611bca565b915061253783611bca565b925082820261254581611bca565b9150828204841483151761255c5761255b612290565b5b5092915050565b60008160011c9050919050565b6000808291508390505b60018511156125ba5780860481111561259657612595612290565b5b60018516156125a55780820291505b80810290506125b385612563565b945061257a565b94509492505050565b6000826125d3576001905061268f565b816125e1576000905061268f565b81600181146125f7576002811461260157612630565b600191505061268f565b60ff84111561261357612612612290565b5b8360020a91508482111561262a57612629612290565b5b5061268f565b5060208310610133831016604e8410600b84101617156126655782820a9050838111156126605761265f612290565b5b61268f565b6126728484846001612570565b9250905081840481111561268957612688612290565b5b81810290505b9392505050565b60006126a182611bca565b91506126ac83611bca565b92506126d97fffffffffffffffffffffffffffffffffffffffffffffffffffffffffffffffff84846125c3565b905092915050565b7f736c6963696e67206f7574206f662072616e6765000000000000000000000000600082015250565b6000612717601483611f8e565b9150612722826126e1565b602082019050919050565b600060208201905081810360008301526127468161270a565b905091905056fe307834374331436262314436373642343436346331394335633538646561413530624134363843363942a264697066735822122016e4448fdb4e3dd75f81e7b0107ee8cf7bde6e2087af671282dcab351d8a105264736f6c63430008110033",
  "devdoc": {
    "kind": "dev",
    "methods": {},
    "version": 1
  },
  "userdoc": {
    "kind": "user",
    "methods": {
      "borrow(address,uint256)": {
        "notice": "borrow  transfer fil from pool to user wallet"
      },
      "calculateInterests()": {
        "notice": "calculate interest"
      },
      "changeBeneficiary()": {
        "notice": "test build-in actor"
      },
      "deposit()": {
        "notice": "test deposit"
      },
      "getAvailableBalance()": {
        "notice": "test build-in actor"
      },
      "getAvailableBalance(string)": {
        "notice": "test build-in actor"
      },
      "repay(uint256)": {
        "notice": "repay change beneficiary calculate interest"
      },
      "supply(uint256)": {
        "notice": "supply transfer from user wallet to pool"
      },
      "supplyCollateral(address,string)": {
        "notice": "supply collateral"
      },
      "test(string)": {
        "notice": "test network"
      },
      "transferFil(address,address)": {
        "notice": "test transfer fil"
      }
    },
    "version": 1
  },
  "storageLayout": {
    "storage": [
      {
        "astId": 9469,
        "contract": "contracts/Protocol.sol:Protocol",
        "label": "minerAPIAddress",
        "offset": 0,
        "slot": "0",
        "type": "t_address"
      }
    ],
    "types": {
      "t_address": {
        "encoding": "inplace",
        "label": "address",
        "numberOfBytes": "20"
      }
    }
  }
}